:02000002B0004C
:1040000000400B00A8530B00000006000C00050246
:084010000401810C0000000016
:04401800C0500B0089
:10401C0009480A49884208B505D0094A824202D0AB
:10402C00121A00F095FF0748074A0021121A00F0F7
:10403C009DFF014808BD00BF3CE6032014530B0054
:10404C00A8E60320A8E60320EDE7032070B5074E91
:10405C00074C00F05DFEA41BA4080025AC4200D167
:10406C0070BD56F8043B98470135F7E7EC520B004E
:10407C0010530B0000F013B808B500F019F8BDE8A8
:10408C00084000F0FDBD00F05FBA00F065BA0078A2
:10409C00B0FA80F04009704701230370704708B5EF
:1040AC0000F068FDBDE808404FF4165100F056BD15
:1040BC0038B500F05FFD1E4900F057FC1D4800F0BC
:1040CC007BF8044600F056FD002C05462CDA2D2119
:1040DC0000F03CFC61420A22284600F050FC00F043
:1040EC0049FD154900F041FC4FF47A7000F04CFA90
:1040FC00104800F03DF8044600F03CFD002C05464D
:10410C0014DA2D2100F022FC61420A22284600F02C
:10411C0036FC00F02FFD094900F027FCBDE83840C3
:10412C004FF47A7000F030BA2146D4E72146ECE720
:10413C00D4500B00B4E60320FC500B0002510B00D2
:10414C0008B5084B0022C3E90022A2F580329A6020
:10415C00022000F06DF9BDE808400348112100F081
:10416C0005B800BFA8E60320B4E603200160704741
:10417C0010B504460121008800F03AFE2088002189
:10418C0000F047FE022000F04BF82088012100F0DF
:10419C0040FE052000F044F82088002100F039FE94
:1041AC002088002100F024FE2088012100F04AFE26
:1041BC003A2390FBF3F010BD10B5044601210088A2
:1041CC0000F016FE2088002100F023FE022000F0F3
:1041DC0027F82088012100F01CFE052000F020F8B3
:1041EC002088002100F015FE2088002100F000FE40
:1041FC002088012100F026FE942390FBF3F010BDE3
:10420C0008B5024B1B685B6C019308BD48020300A8
:10421C0008B5024B1B685B68019308BD18020300CC
:10422C0008B5024B1B68DB68019308BD180203003C
:10423C0008B5024B1B685B69019308BD18020300AB
:10424C0008B5024B1B689B68019308BD2C02030048
:10425C0008B5024B1B68DB68019308BD2C020300F8
:10426C0008B5024B1B681B69019308BD2C020300A7
:10427C0008B5024B1B68DB6C019308BD2C020300D4
:10428C0008B5024B1B681B6A019308BD280203008A
:10429C0008B5024B1B685B6A019308BD280203003A
:1042AC0008B5024B1B689B6A019308BD28020300EA
:1042BC0008B5024B1B68DB6A019308BD280203009A
:1042CC0008B5024B1B681B6B019308BD2802030049
:1042DC0008B5024B1B685B6B019308BD28020300F9
:1042EC0008B5024B1B681B6C019308BD2802030028
:1042FC0008B5024B1B685B69019308BD640203009F
:10430C0008B5024B1B689B68019308BD680203004B
:10431C0008B5024B1B68DB68019308BD68020300FB
:10432C0008B5024B1B68DB69019308BD3002030022
:10433C0008B5024B1B681B6A019308BD30020300D1
:10434C0008B5024B1B68DB68019308BD3C020300F7
:10435C0008B5024B1B681B69019308BD3C020300A6
:10436C0008B5024B1B685B69019308BD3C02030056
:10437C0008B5024B1B689B69019308BD3C02030006
:10438C0008B5024B1B68DB69019308BD3C020300B6
:10439C0008B5024B1B681B6A019308BD3C02030065
:1043AC0008B5024B1B689B6A019308BD3C020300D5
:1043BC0008B5024B1B681B6C019308BD3C02030043
:1043CC0008B5024B1B681B68019308BD4C02030027
:1043DC0008B5024B1B685B68019308BD4C020300D7
:1043EC0008B5024B1B681B69019308BD4C02030006
:1043FC0008B5024B1B685B69019308BD4C020300B6
:10440C0008B5024B1B689B69019308BD4C02030065
:10441C0008B5024B1B68DB69019308BD4C02030015
:10442C0008B5024B1B681B6A019308BD4C020300C4
:10443C0008B5024B1B685B68019308BD20020300A2
:10444C0008B5024B1B685B69019308BD2002030091
:10445C0008B5034B1B68D3F88830019308BD0000E6
:10446C002002030008B5034B1B68D3F8943001936A
:10447C0008BD00002002030008B5024B1B68DB6B73
:10448C00019308BD4402030008B5024B1B685B682E
:10449C00019308BD4002030008B5024B1B689B68E2
:1044AC00019308BD4002030008B5024B1B68DB6892
:1044BC00019308BD4002030008B5024B1B681B6941
:1044CC00019308BD4002030008B5024B1B685B69F1
:1044DC00019308BD4002030008B5024B1B689B69A1
:1044EC00019308BD4002030008B5024B1B68DB6951
:1044FC00019308BD4002030008B5024B1B681B6A00
:10450C00019308BD4002030008B5024B1B681B6BEE
:10451C00019308BD4002030008B5024B1B685B6B9E
:10452C00019308BD4002030008B5024B1B681B6CCD
:10453C00019308BD4002030008B5024B1B685B6C7D
:10454C00019308BD4002030008B5024B1B681B68B1
:10455C00019308BD1C02030008B5024B1B685B6885
:10456C00019308BD1C02030008B5024B1B681B6CB1
:10457C00019308BD1C02030008B5024B1B685B6C61
:10458C00019308BD1C0203000021FFF759BF000076
:10459C00024800230360FFF733BE00BFB8E60320D8
:1045AC00002240681146FFF7A7BF00224068114661
:1045BC00FFF7B2BF40680022FFF7A6BF4068002299
:1045CC0081F00101FFF790BF002340681A4619469D
:1045DC00FFF782BF002340681A461946FFF774BFE5
:1045EC00002240681146FFF767BF00224068114661
:1045FC00FFF752BF406800220221FFF755BF00238E
:10460C0040681A46FFF740BF024B03225A60024A29
:10461C001A607047BCE6032010510B007047F8B5C8
:10462C00064615460C468F18BC4206D0336814F863
:10463C00011B9B6830469847F6E72846F8BD007C7E
:10464C000022FFF71DBE007C0021FFF721BE007C7D
:10465C000021FFF725BE007C0021FFF729BE007C5E
:10466C000021FFF72DBE10B514210446FFF70DFDF8
:10467C00204610BD10B54FF47A730446084600214D
:10468C00C4E90113034B236020741146FFF728FE85
:10469C00204610BD4C510B00704710B51821044634
:1046AC00FFF7F3FC204610BDF0B5037D062B8DB053
:1046BC000E4600F104074FF0000412D000F108057B
:1046CC0015F8011D0A22304600F059F9AF42044496
:1046DC0019D0002CF4D02E21304600F037F90444C8
:1046EC00EEE72F236A4639460A208DF80040FFF783
:1046FC00FFFD684600F070FC33680246DB686946D3
:10470C0030469847044620460DB0F0BD10B5054B19
:10471C000446112240F8043B002100F027FC2046FF
:10472C0010BD00BF74510B000346074A10B543F887
:10473C00042B01F1100251F8044B43F8044B914245
:10474C00F9D10A781A7010BD74510B0010B59DF890
:10475C00084044EA032343EA024242EA016104238B
:10476C004160037510BD000007B5064B0360CB78A4
:10477C0000938B784A780978FFF7E8FF03B05DF86F
:10478C0004FB00BF74510B00014B024A1A607047C6
:10479C00C4E6032080510B00002340681A46FFF743
:1047AC0073BE406800220221FFF77EBE00224068E3
:1047BC001146FFF771BE002240681146FFF77CBE20
:1047CC00002340681A461946FFF77EBE0023406856
:1047DC001A461946FFF780BE40680021FFF7A4BEB9
:1047EC0040680021FFF7A8BE4068002281F001015B
:1047FC00FFF77ABE40680022FFF786BE00224068B1
:10480C001146FFF789BE002240681146FFF774BEBF
:10481C002DE9F04395B014460D460746FFF776FF99
:10482C0000211C220DA8009100F0A0FB40230C934A
:10483C0020466B460CAA0021FFF76AFD04460028AF
:10484C004BD1024601216868FFF736FE02218046F3
:10485C0022466868FFF730FE009E81462146002EF6
:10486C003BD0002939D17368022B03D00A2B11D00D
:10487C00F669F4E7B8F1000FFAD0716906A80431B3
:10488C0007ADFFF771FF0FCD3C1D0FC42B682370D4
:10489C004146EDE7B9F1000FEAD07469102201A886
:1048AC0000F064FB06238DF8143001AD04F108030D
:1048BC001834186859682A4603C20833A3421546AF
:1048CC00F7D101A906A807ADFFF72EFF0FCD3C1DB0
:1048DC000FC42B6823704946CAE70098FFF710FDF8
:1048EC00384615B0BDE8F083024B034A1A6000222B
:1048FC005A607047C8E603208C510B00F8B5064689
:10490C000D468F180024BD420CD0336815F8011BDE
:10491C009B6830469847031E01DB1C44F3E7002CD0
:10492C0008BF1C462046F8BD13B50446084659B1CD
:10493C00019100F051FB23680199DB680246204687
:10494C0002B0BDE81040184702B010BD03689B6868
:10495C00184738B50D210546FFF7F8FF0A21044624
:10496C002846FFF7F3FF204438BD38B50546FFF75E
:10497C00DBFF04462846FFF7ECFF204438BD30B57A
:10498C008BB00023012A8DF8243098BF0A2209AC81
:10499C000D46B1FBF2F101FB125303F0FF03092B9F
:1049AC0094BF30333733DBB2AA4204F8013DEFD960
:1049BC002146FFF7B9FF0BB030BD0000014B0022C0
:1049CC009A607047D0E6032010B504460846217063
:1049DC00FFF7A6FC00236360204610BD054B0222A6
:1049EC001A60054B054A9A600020C3E90000FFF7E6
:1049FC001FBD00BFECE60320E0E603200000FFFF34
:104A0C00024B1A68024B1A60704700BF3CE6032049
:104A1C00F0E6032070474174704708B5007CFFF73F
:104A2C00BFFC20EAE07008BD08B5007CFFF790FCE5
:104A3C0020EAE07008BD08B5007CFFF799FC40EA5D
:104A4C00E07008BD08B5007CFFF78AFC40EAE07016
:104A5C0008BD007CFFF794BC37B5457C04462DB1EE
:104A6C00207C03B0BDE83040FFF76ABC007C0191AC
:104A7C00FFF796FC00280199F2DC284603B030BD04
:104A8C0010B514210446FFF700FB204610BD0000B2
:104A9C0010B54FF47A730446084611460022C4E957
:104AAC000123044B2360012320746374FFF780FC03
:104ABC00204610BDE4510B0041747047704770479D
:104ACC0008B50021007CFFF79BFC40EAE07008BDB4
:104ADC0008B50121007CFFF793FC40EAE07008BDAB
:104AEC0008B5007CFFF784FC20EAE07008BD08B52F
:104AFC00007CFFF775FC20EAE07008BD13B5044696
:104B0C00007C0191FFF774FC0028019901DC607CAA
:104B1C0020B1207CFFF77CFC20EAE07002B010BDD5
:104B2C00007CFFF77DBC10B514210446FFF7ADFAED
:104B3C00204610BD10B54FF47A7304460846002188
:104B4C00C4E90113044B23600123207463741146E0
:104B5C00FFF736FC204610BD14520B00007C0022DF
:104B6C00FFF736BC10B514220446002100F0FEF904
:104B7C00204610BD10B50F4C88B003A8FFF7F2FF0C
:104B8C002178BFF35B8F11F001010FD12046019109
:104B9C00FFF77DFA019948B103AA0748FFF7CAFF4E
:104BAC002046FFF779FA054800F0CCF9024808B026
:104BBC0010BD00BFF4E60320F8E60320C94A0B0041
:104BCC00002240681146FFF777BC0022406811466E
:104BDC00FFF792BC002240681146FFF79DBC40686D
:104BEC000022FFF791BC4068002281F00101FFF721
:104BFC007BBC002340681A461946FFF76DBC0023A6
:104C0C0040681A461946FFF75FBC002240681146FF
:104C1C00FFF742BC406800220221FFF745BC00238D
:104C2C0040681A46FFF730BC024B04225A60024A15
:104C3C001A6070470CE7032044520B00014B1860BC
:104C4C00704700BF40E6032008B50B4B43B1FFF79C
:104C5C0091FF03681B699847002801DDAFF30080C2
:104C6C00064B43B100F048F903681B6998470028CC
:104C7C0001DDAFF3008008BD000000000000000063
:104C8C0008B5FFF7E1FFFFF7D3FA014B186008BD39
:104C9C0028E703200548064A064908B5121A00F011
:104CAC0057F9054B054A1A6008BD00BF00F40320F4
:104CBC0004F4032010530B0000F403201E1C279A4D
:104CCC0007B5002300931A466FF07701FFF7CAFB74
:104CDC0003B05DF804FB000007B543880A2B08D02D
:104CEC00502B0BD1094B1B684BB103B05DF804EB97
:104CFC001847FFF7E5FF03B05DF804FB00230093B2
:104D0C001A466FF07701FFF7ADFBF4E718E70320C5
:104D1C0010B512480021FFF72FFC114B1A68114BEC
:104D2C009A42114B0CBF012200221A7001D0FFF7DE
:104D3C00B1FFFFF76DFA044600F020F90B4B13B1ED
:104D4C002046AFF3008000210848FFF795FBBDE833
:104D5C00104007480021FFF77BBB00BF494C0B00FC
:104D6C0000F403201E1C279A14E703200000000007
:104D7C00E54C0B00232813B502D9002002B010BD5E
:104D8C00A0F10B03022B1AD8174C2178BFF35B8FC1
:104D9C0011F001010BD120460191FFF778F901992F
:104DAC0028B11248FFF710FE2046FFF775F90F4B9C
:104DBC001878FFF7BDFA0028DFD10120DEE70128C3
:104DCC0009D800F059F80021007CFFF781FA80F037
:104DDC000100C0B2D2E709380128EED800F08CF8F7
:104DEC00007CFFF7D5FAF2E71CE7032020E703204D
:104DFC00232838B504460D460AD8FF2908D0FFF7FA
:104E0C00B9FF28B129462046BDE83840FFF718BA4B
:104E1C0038BD38B504460D46FFF71AFAFF2810D0F6
:104E2C00062804D84D2323FA00F0C30709D42046E2
:104E3C00FFF7A0FF28B129462046BDE83840FFF710
:104E4C000FBA38BDFFF714BA7047000038B52025EB
:104E5C00142304460360856005610649284600F06A
:104E6C006FF804496060284600F06AF8E06020465C
:104E7C0038BD00BF78520B0030B50E4D2978BFF30A
:104E8C005B8F11F0010487B011D12846FFF7FFF8B2
:104E9C0068B101A8FFF7DAFF01AA21460648FFF71F
:104EAC00E9FB2846FFF7F8F8044800F04BF80248F5
:104EBC0007B030BD2CE7032030E70320554E0B0024
:104ECC007047000038B5044614252A46002100F02E
:104EDC004DF825804025074925812846258200F07C
:104EEC002FF804496060284600F02AF8E06020465C
:104EFC0038BD00BF78520B0030B50E4D2978BFF38A
:104F0C005B8F11F0010487B011D12846FFF7BFF871
:104F1C0068B101A8FFF7D6FF01AA21460648FFF7A2
:104F2C00B7FD2846FFF7B8F8044800F00BF8024824
:104F3C0007B030BD44E7032048E70320CD4E0B00FB
:104F4C00FFF7A1B8002301461A46184600F04CB8EA
:104F5C000A44914200F1FF3300D1704710B511F8AB
:104F6C00014B03F8014F9142F9D110BD02440346A5
:104F7C00934200D1704703F8011BF9E738B5104B89
:104F8C001D68AB6B0446B3B91820FFF7DDFA024677
:104F9C00A86320B90B4B0C484221FFF7E5FA0B49EB
:104FAC000B4BC0E900130B4B83600B238381002157
:104FBC000120C2E90401AB6B00221C615A6138BDAF
:104FCC0040E6032079520B0090520B000E33CDAB10
:104FDC0034126DE6ECDE0500034613F8012B002AB3
:104FEC00FBD1181A013870472DE9F843DFF8B88067
:104FFC000646D8F800001F460D46914600F056F8BC
:10500C00254B1C6834B9254C1C60254B13B11B680F
:10501C00C4F8883063681F2B07DDD8F8000000F057
:10502C0047F84FF0FF30BDE8F8834EB3D4F8880052
:10503C0088B91C4B23B9D8F8000000F038F8F0E719
:10504C004FF48470FFF780FA0028F4D00023C0E9F5
:10505C004033C4F88800636840F8239001229A40DA
:10506C0000EB8301D0F800311343C0F80031022E5D
:10507C00C1F8807002BFD0F804311343C0F804317A
:10508C006368D8F800005A1C0233626044F823505D
:10509C0000F00EF80020C6E7E8E703205CE70320E9
:1050AC000000000055450B00A4E603207047704734
:1050BC00704700001D400B0059400B0081400B0055
:1050CC0085400B000000000054686520646973740F
:1050DC00616E636520746F206F62737461636C65BD
:1050EC007320696E2066726F6E742069733A2000AB
:1050FC0020696E63680020636D00000000000000F2
:10510C00000000000B460B0001460B00F7450B009E
:10511C00ED450B00E1450B00D5450B00E5470B00B9
:10512C00ED470B00C9450B00C1450B00B7450B0003
:10513C00AD450B001D480B000000000000000000F6
:10514C0029460B0073460B004B460B002B460B00FD
:10515C0053460B005B460B0063460B006B460B0083
:10516C000000000000000000B5460B00A5460B0037
:10517C00A7460B00617070000000000000000000EA
:10518C00A5470B00AF470B00B9470B00C3470B00FB
:10519C00CD470B00D9470B00E5470B00ED470B0043
:1051AC00F5470B0001480B0009480B0013480B0096
:1051BC001D480B0025592D256D2D25645425483A85
:1051CC00254D3A2553257A0061736374696D65002A
:1051DC000000000000000000214A0B008D4A0B006B
:1051EC00654A0B0009490B00354A0B00514A0B006C
:1051FC00434A0B005F4A0B00234A0B00274A0B0063
:10520C000000000000000000CB4A0B00334B0B00E9
:10521C00094B0B0009490B00FB4A0B00CD4A0B0054
:10522C00DD4A0B002D4B0B00ED4A0B00C54A0B0061
:10523C0000000000000000002B4C0B00214C0B0068
:10524C00174C0B00CD4B0B000B4C0B00FF4B0B000A
:10525C00E5470B00ED470B00F34B0B00EB4B0B0042
:10526C00E14B0B00D74B0B001D480B000052454582
:10527C004E54206D616C6C6F632073756363656550
:10528C00646564002F746D702F6A656E6B696E7344
:10529C002D4743432D31302D706970656C696E65F7
:1052AC002D34385F32303230313132345F31363078
:1052BC00363138303633392F7372632F6E65776C15
:1052CC0069622F6E65776C69622F6C6962632F73EC
:1052DC0074646C69622F72616E642E63000000004E
:1052EC004D410B009D450B0015460B0095470B00DF
:1052FC00F5480B00C9490B00E9490B000D4A0B009E
:04530C00354C0B0011
:045310000000000099
:10531400D4510B0044E6032000000000000000000C
:105324000000000000000000000000000000000079
:105334000000000000000000000000000000000069
:105344000000000000000000000000000000000059
:105354000000000000000000000000000000000049
:105364000000000000000000000000000000000039
:0C5374000000000000000000ECE7032037
:10538000FFFFFFFF00000102030405060708090AEA
:105390000B0C0D0E0F101112131415161718191AE5
:0853A0001B1C1D1E1F2028002C
:0453A80078563412ED
:04000003B000401CED
:00000001FF
