:02000002B0004C
:1040000000400B00A8550B00000006000C00050244
:084010000401810C0000000016
:0440180018520B002F
:10401C0009480A49884208B505D0094A824202D0AB
:10402C00121A01F041F80748074A0021121A01F050
:10403C0049F8014808BD00BF14E6032004550B00E5
:10404C0090E6032090E60320EDE7032070B5074EC1
:10405C00074C00F069FCA41BA4080025AC4200D15D
:10406C0070BD56F8043B98470135F7E7D0540B0068
:10407C00F4540B0000F022B808B500F045F8BDE888
:10408C00084000F009BC00F0B7BA00F0BDBA0078E7
:10409C00B0FA80F0400970470123037070470EB4EA
:1040AC0003B503AB002153F8042B019300F083FB01
:1040BC0002B05DF804EB03B07047000008B500F0E7
:1040CC003BFD4FF4165100F02BFD0B4B00211888D3
:1040DC0000F010FF094B0021188800F00BFF084B73
:1040EC000021188800F006FF064B00211888BDE857
:1040FC00084000F0FFBE00BF20E6032018E60320B6
:10410C0014E603201CE60320F8B5314D00F018F935
:10411C002B68C01A42F21073984213D92D4800F044
:10412C0093F8044600F008FD2B492246FFF7B7FF31
:10413C00312C04DC00F000FD2849FFF7B0FF00F043
:10414C00FFF82860264B274F1888274C274E284D00
:10415C0000F00DFF274B3860188800F0F5FE264B59
:10416C002060188800F003FF306000F0E9F82B683D
:10417C00C01AB0F57A7F1DD900F0DEFC3A681F49F1
:10418C00FFF78DFF00F0D8FC22681D49FFF787FF71
:10419C0000F0D2FC32681B49FFF781FF00F0D0F829
:1041AC0023682860012B05D100F0C6FC2268164953
:1041BC00FFF775FF154B164C188800F0C5FE2060F4
:1041CC0028B900F0B9FC22681249FFF768FFF8BD66
:1041DC00ACE60320B4E603202C520B0034520B0047
:1041EC0020E60320B0E60320A0E6032090E603209F
:1041FC00A8E6032018E6032014E6032047520B0020
:10420C0053520B005E520B006A520B001CE603204B
:10421C00A4E60320B7520B0008B5084B0022C3E9F3
:10422C000022A2F580329A60022000F061F9BDE80C
:10423C00084003480F2100F005B800BF94E60320A6
:10424C00B4E603200160704710B5044601210088D4
:10425C0000F050FE2088002100F05DFE022000F0EE
:10426C0067F82088012100F056FE052000F060F868
:10427C002088002100F04FFE2088002100F03AFE3B
:10428C002088012100F08AFE3A2390FBF3F010BD48
:10429C0008B5024B1B689B68019308BD68020300BC
:1042AC0008B5024B1B68DB68019308BD680203006C
:1042BC0008B5024B1B685B68019308BD2C02030018
:1042CC0008B5024B1B689B68019308BD2C020300C8
:1042DC0008B5024B1B68DB68019308BD2C02030078
:1042EC0008B5024B1B681B69019308BD2C02030027
:1042FC0008B5024B1B685B69019308BD2C020300D7
:10430C0008B5024B1B681B6B019308BD2C02030004
:10431C0008B5024B1B68DB6C019308BD2C02030033
:10432C0008B5024B1B685B68019308BD18020300BB
:10433C0008B5024B1B68DB68019308BD180203002B
:10434C0008B5024B1B685B69019308BD180203009A
:10435C0008B5024B1B685B6C019308BD4802030057
:10436C0008B5024B1B685B69019308BD640203002E
:10437C0008B5024B1B68DB68019308BD3C020300C7
:10438C0008B5024B1B681B69019308BD3C02030076
:10439C0008B5024B1B685B69019308BD3C02030026
:1043AC0008B5024B1B689B69019308BD3C020300D6
:1043BC0008B5024B1B68DB69019308BD3C02030086
:1043CC0008B5024B1B681B6A019308BD3C02030035
:1043DC0008B5024B1B689B6A019308BD3C020300A5
:1043EC0008B5024B1B681B6C019308BD3C02030013
:1043FC0008B5024B1B681B6A019308BD2802030019
:10440C0008B5024B1B685B6A019308BD28020300C8
:10441C0008B5024B1B689B6A019308BD2802030078
:10442C0008B5024B1B68DB6A019308BD2802030028
:10443C0008B5024B1B681B6B019308BD28020300D7
:10444C0008B5024B1B685B6B019308BD2802030087
:10445C0008B5024B1B681B6C019308BD28020300B6
:10446C0008B5024B1B68DB69019308BD30020300E1
:10447C0008B5024B1B681B6A019308BD3002030090
:10448C0008B5024B1B681B68019308BD4C02030066
:10449C0008B5024B1B685B68019308BD4C02030016
:1044AC0008B5024B1B681B69019308BD4C02030045
:1044BC0008B5024B1B685B69019308BD4C020300F5
:1044CC0008B5024B1B689B69019308BD4C020300A5
:1044DC0008B5024B1B68DB69019308BD4C02030055
:1044EC0008B5024B1B681B6A019308BD4C02030004
:1044FC0008B5024B1B685B68019308BD20020300E2
:10450C0008B5034B1B68D3F88830019308BD000035
:10451C002002030008B5034B1B68D3F894300193B9
:10452C0008BD00002002030008B5024B1B685B6845
:10453C00019308BD4002030008B5024B1B689B6841
:10454C00019308BD4002030008B5024B1B68DB68F1
:10455C00019308BD4002030008B5024B1B681B69A0
:10456C00019308BD4002030008B5024B1B685B6950
:10457C00019308BD4002030008B5024B1B689B6900
:10458C00019308BD4002030008B5024B1B68DB69B0
:10459C00019308BD4002030008B5024B1B681B6A5F
:1045AC00019308BD4002030008B5024B1B681B6B4E
:1045BC00019308BD4002030008B5024B1B685B6BFE
:1045CC00019308BD4002030008B5024B1B681B6C2D
:1045DC00019308BD4002030008B5024B1B685B6CDD
:1045EC00019308BD4002030008B5024B1B68DB6B4E
:1045FC00019308BD4402030008B5024B1B681B68FD
:10460C00019308BD1C02030008B5024B1B685B68D4
:10461C00019308BD1C02030008B5024B1B685B6AC2
:10462C00019308BD1C02030008B5024B1B681B6CF0
:10463C00019308BD1C02030008B5024B1B685B6CA0
:10464C00019308BD1C020300002240681146FFF7CD
:10465C00A3BF002240681146FFF7AEBF406800229E
:10466C00FFF7A2BF4068002281F00101FFF78CBF69
:10467C00002340681A461946FFF77EBF00234068A6
:10468C001A461946FFF770BF002240681146FFF723
:10469C0063BF002240681146FFF74EBF40680022FE
:1046AC000221FFF751BF002340681A46FFF73CBFB9
:1046BC00024B03225A60024A1A607047B8E6032084
:1046CC00D0520B0010B5044608462170FFF7C8FE07
:1046DC0000236360204610BD054B02221A60054B77
:1046EC00054A9A600020C3E90000FFF701BF00BF34
:1046FC00CCE60320C0E603200000FFFF02480023A5
:10470C000360FFF725BE00BFD0E60320F8B50646D0
:10471C000D468F180024BD420CD0336815F8011BD0
:10472C009B6830469847031E01DB1C44F3E7002CC2
:10473C0008BF1C462046F8BD13B50446084659B1BF
:10474C00019100F0F5FC23680199DB6802462046D4
:10475C0002B0BDE81040184702B010BD03689B685A
:10476C00184738B50D210546FFF7F8FF0A21044616
:10477C002846FFF7F3FF204438BD30B58BB000233B
:10478C00012A8DF8243098BF0A2209AC0D46B1FBE2
:10479C00F2F101FB125303F0FF03092B94BF3033EA
:1047AC003733DBB2AA4204F8013DEFD92146FFF7BB
:1047BC00C3FF0BB030BD2DE9F04186B000AF05460C
:1047CC000E46381D142114463B60FFF725FF1328B5
:1047DC000ED8391D2846FFF7AFFF04461EB12846F8
:1047EC00FFF7BFFF044420461837BD46BDE8F081F3
:1047FC0000F1080323F00703E846ADEB030D224656
:10480C00411C3B686846FFF707FF69462846FFF7DF
:10481C0093FF0446C546E1E7002340681A46194653
:10482C00FFF7A2BE014B024A1A607047D4E6032080
:10483C0004530B00024B1A68024B1A60704700BFFE
:10484C0024E60320D8E60320014B00229A6070472F
:10485C00DCE60320014B1860704700BF28E60320FC
:10486C0008B50B4B43B100F067F903681B69984717
:10487C00002801DDAFF30080064B43B100F0ACFB28
:10488C0003681B699847002801DDAFF3008008BD61
:10489C00000000000000000008B5FFF7E1FFFFF783
:1048AC004FFD014B186008BD40E703200548064A40
:1048BC00064908B5121A00F0F7FB054B054A1A60B9
:1048CC0008BD00BF00F4032004F4032000550B00C6
:1048DC0000F403201E1C279A07B5002300931A46E8
:1048EC006FF07701FFF716FE03B05DF804FB0000D4
:1048FC0007B543880A2B08D0502B0BD1094B1B68EA
:10490C004BB103B05DF804EB1847FFF7E5FF03B0BC
:10491C005DF804FB002300931A466FF07701FFF754
:10492C00F9FDF4E7F0E6032010B512480021FFF77B
:10493C0083FE114B1A68114B9A42114B0CBF01228A
:10494C0000221A7001D0FFF7B1FFFFF7E9FC044613
:10495C0000F0C0FB0B4B13B12046AFF300800021DD
:10496C000848FFF741FEBDE8104007480021FFF75B
:10497C00C7BD00BF61480B0000F403201E1C279A22
:10498C00ECE6032000000000FD480B00704710B55A
:10499C0018210446FFF779FB204610BDF0B5037DC6
:1049AC00062B8DB00E4600F104074FF0000412D018
:1049BC0000F1080515F8011D0A223046FFF7DDFE4F
:1049CC00AF42044419D0002CF4D02E213046FFF70E
:1049DC00C5FE0444EEE72F236A4639460A208DF8BB
:1049EC000040FFF7BDFC684600F0A2FB33680246AE
:1049FC00DB68694630469847044620460DB0F0BD4A
:104A0C0010B5054B0446112240F8043B002100F080
:104A1C0059FB204610BD00BF2C530B000346074A20
:104A2C0010B543F8042B01F1100251F8044B43F874
:104A3C00044B9142F9D10A781A7010BD2C530B001B
:104A4C0010B59DF8084044EA032343EA024242EAC7
:104A5C00016104234160037510BD000007B5064BCE
:104A6C000360CB7800938B784A780978FFF7E8FFDE
:104A7C0003B05DF804FB00BF2C530B00417470476E
:104A8C007047704708B50021007CFFF719FD40EA1C
:104A9C00E07008BD08B50121007CFFF711FD40EA6C
:104AAC00E07008BD08B5007CFFF702FD20EAE0705D
:104ABC0008BD08B5007CFFF7F3FC20EAE07008BDE8
:104ACC0013B50446007C0191FFF7F2FC0028019914
:104ADC0001DC607C20B1207CFFF7FAFC20EAE0705E
:104AEC0002B010BD007CFFF7FBBC10B514210446CE
:104AFC00FFF7CBFA204610BD10B54FF47A7304467D
:104B0C0008460021C4E90113044B236001232074DF
:104B1C0063741146FFF7B4FC204610BD40530B00E4
:104B2C00007C0022FFF7B4BC10B51422044600210F
:104B3C0000F0C8FA204610BD10B50F4C88B003A881
:104B4C00FFF7F2FF2178BFF35B8F11F001010FD15A
:104B5C0020460191FFF79BFA019948B103AA074837
:104B6C00FFF7CAFF2046FFF797FA054800F096FAC0
:104B7C00024808B010BD00BFF4E60320F8E603209D
:104B8C008D4A0B0070474174704708B5007CFFF7E5
:104B9C001FFC20EAE07008BD08B5007CFFF7F0FBB5
:104BAC0020EAE07008BD08B5007CFFF7F9FB40EA8D
:104BBC00E07008BD08B5007CFFF7EAFB40EAE07046
:104BCC0008BD007CFFF7F4BB37B5457C04462DB11E
:104BDC00207C03B0BDE83040FFF7CABB007C0191DC
:104BEC00FFF7F6FB00280199F2DC284603B030BD34
:104BFC0010B514210446FFF748FA204610BD0000FA
:104C0C0010B54FF47A730446084611460022C4E9E5
:104C1C000123044B2360012320746374FFF7E0FB32
:104C2C00204610BD70530B007047F8B5064615466C
:104C3C000C468F18BC4206D0336814F8011B9B68D5
:104C4C0030469847F6E72846F8BD007C0022FFF76F
:104C5C00CFBB007C0021FFF7D3BB007C0021FFF70A
:104C6C00D7BB007C0021FFF7DBBB007C0021FFF7EA
:104C7C00DFBB10B514210446FFF707FA204610BD20
:104C8C0010B54FF47A73044608460021C4E90113A9
:104C9C00034B236020741146FFF7DAFB204610BD4E
:104CAC00A0530B00002240681146FFF755BC0022B0
:104CBC0040681146FFF770BC002240681146FFF7B0
:104CCC007BBC40680022FFF76FBC4068002281F07B
:104CDC000101FFF759BC002340681A461946FFF73B
:104CEC004BBC002240681146FFF726BC40680022EE
:104CFC000221FFF729BC002340681A46FFF714BCB9
:104D0C00024B04225A60024A1A6070470CE70320D7
:104D1C00C8530B00002340681A46FFF705BC4068D7
:104D2C0000220221FFF710BC002240681146FFF759
:104D3C0003BC002240681146FFF70EBC00234068FC
:104D4C001A461946FFF710BC002340681A4619464C
:104D5C00FFF712BC40680021FFF736BC4068002109
:104D6C00FFF73ABC4068002281F00101FFF70CBC50
:104D7C0040680022FFF718BC002240681146FFF77C
:104D8C001BBC002240681146FFF706BC2DE9F0431E
:104D9C0095B014460D460746FFF732FE00211C2243
:104DAC000DA8009100F08EF940230C9320466B4621
:104DBC000CAA0021FFF774FA044600284BD10246D6
:104DCC0001216868FFF7C8FB02218046224668680B
:104DDC00FFF7C2FB009E81462146002E3BD00029E6
:104DEC0039D17368022B03D00A2B11D0F669F4E782
:104DFC00B8F1000FFAD0716906A8043107ADFFF7BE
:104E0C002DFE0FCD3C1D0FC42B6823704146EDE7E2
:104E1C00B9F1000FEAD07469102201A800F052F920
:104E2C0006238DF8143001AD04F10803183418680A
:104E3C0059682A4603C20833A3421546F7D101A983
:104E4C0006A807ADFFF7EAFD0FCD3C1D0FC42B687C
:104E5C0023704946CAE70098FFF71AFA384615B08E
:104E6C00BDE8F083024B034A1A6000225A60704777
:104E7C0014E7032004540B00232813B502D9002097
:104E8C0002B010BDA0F10B03022B1AD8174C2178DD
:104E9C00BFF35B8F11F001010BD120460191FFF79D
:104EAC00F6F8019928B11248FFF70CFC2046FFF7E1
:104EBC00F3F80F4B1878FFF7DBFA0028DFD101204D
:104ECC00DEE7012809D800F0C3F80021007CFFF7C9
:104EDC00B7FA80F00100C0B2D2E709380128EED849
:104EEC0000F07AF8007CFFF76BFAF2E71CE703207E
:104EFC0020E70320232838B504460D460AD8FF299D
:104F0C0008D0FFF7B9FF28B129462046BDE8384044
:104F1C00FFF7D6B938BD38B504460D46FFF7D8F9BA
:104F2C00FF2810D0062804D84D2323FA00F0C3071D
:104F3C0009D42046FFF7A0FF28B129462046BDE83A
:104F4C003840FFF7CDB938BD10B50446FFF7C0F9AE
:104F5C00031FDBB2012B08D92046FFF78DFF20B1D0
:104F6C002046BDE81040FFF7C3B9002010BD0D2846
:104F7C0010B504469CBF0E34A4B22046FFF77CFF4C
:104F8C0050B103212046FFF793F9032804D12046A2
:104F9C00BDE81040FFF7B4B9002010BDFFF7B8B959
:104FAC007047000038B5044614252A46002100F04D
:104FBC0089F825804025074925812846258200F05F
:104FCC006BF804496060284600F066F8E060204603
:104FDC0038BD00BF38540B0030B50E4D2978BFF3E7
:104FEC005B8F11F0010487B011D12846FFF74FF801
:104FFC0068B101A8FFF7D6FF01AA21460648FFF7C2
:10500C00FFFD2846FFF748F8044800F047F802482F
:10501C0007B030BD28E703202CE70320AD4F0B0071
:10502C007047000038B520251423044603608560C2
:10503C0005610649284600F02FF8044960602846AF
:10504C0000F02AF8E060204638BD00BF38540B0051
:10505C0030B50E4D2978BFF35B8F11F0010487B08A
:10506C0011D12846FFF713F868B101A8FFF7DAFF52
:10507C0001AA21460648FFF703FE2846FFF70CF865
:10508C00044800F00BF8024807B030BD44E7032099
:10509C0048E703202D500B00FEF7F5BF0023014617
:1050AC001A46184600F04CB80A44914200F1FF33FE
:1050BC0000D1704710B511F8014B03F8014F914224
:1050CC00F9D110BD02440346934200D1704703F856
:1050DC00011BF9E738B5104B1D68AB6B0446B3B92F
:1050EC001820FFF789FA0246A86320B90B4B0C482D
:1050FC004221FFF799FA0B490B4BC0E900130B4BFC
:10510C0083600B23838100210120C2E90401AB6B76
:10511C0000221C615A6138BD28E6032039540B006B
:10512C0050540B000E33CDAB34126DE6ECDE0500A3
:10513C00034613F8012B002AFBD1181A01387047CB
:10514C002DE9F843DFF8B8800646D8F800001F4672
:10515C000D46914600F056F8254B1C6834B9254C89
:10516C001C60254B13B11B68C4F8883063681F2B77
:10517C0007DDD8F8000000F047F84FF0FF30BDE82D
:10518C00F8834EB3D4F8880088B91C4B23B9D8F8EF
:10519C00000000F038F8F0E74FF48470FFF72CFAB9
:1051AC000028F4D00023C0E94033C4F888006368B9
:1051BC0040F8239001229A4000EB8301D0F8003193
:1051CC001343C0F80031022EC1F8807002BFD0F832
:1051DC0004311343C0F804316368D8F800005A1C3A
:1051EC000233626044F8235000F00EF80020C6E74A
:1051FC00E8E703205CE703200000000005460B00F5
:10520C008CE6032070477047704700001D400B0070
:10521C0059400B0081400B0085400B000000000042
:10522C005249433A25690A005468652074726173C7
:10523C00682069732066756C6C0A006D6F74696FF9
:10524C006E3A2025690A00627574746F6E3A25698E
:10525C000A00415153656E736F7225690A00456DE2
:10526C00657267616E637920627574746F6E206805
:10527C006173206265656E20707265737365642C52
:10528C0020706C656173652073656E64206120729B
:10529C006573706F6E736520756E697420746F2002
:1052AC0073746174696F6E20310A00466C616D65B0
:1052BC002044657465637465642E0A000000000068
:1052CC0000000000B3460B00A9460B009F460B00E4
:1052DC0095460B0089460B007D460B00614D0B007B
:1052EC00694D0B0071460B0069460B005F460B00C5
:1052FC0055460B00994D0B006170700025592D25FA
:10530C006D2D25645425483A254D3A2553257A00B0
:10531C0061736374696D650000000000000000009B
:10532C00A9490B0099490B009B490B000000000098
:10533C00000000008F4A0B00F74A0B00CD4A0B000F
:10534C0019470B00BF4A0B00914A0B00A14A0B00F6
:10535C00F14A0B00B14A0B00894A0B000000000017
:10536C0000000000914B0B00FD4B0B00D54B0B00CC
:10537C0019470B00A54B0B00C14B0B00B34B0B009B
:10538C00CF4B0B00934B0B00974B0B000000000016
:10539C0000000000354C0B007F4C0B00574C0B00F1
:1053AC00374C0B005F4C0B00674C0B006F4C0B0029
:1053BC00774C0B000000000000000000034D0B00B8
:1053CC00F94C0B00EF4C0B00B14C0B0025480B00BB
:1053DC00E34C0B00614D0B00694D0B00D74C0B00DF
:1053EC00CF4C0B00C54C0B00BB4C0B00994D0B006C
:1053FC000000000000000000214D0B002B4D0B00A5
:10540C00354D0B003F4D0B00494D0B00554D0B001E
:10541C00614D0B00694D0B00714D0B007D4D0B0068
:10542C00854D0B008F4D0B00994D0B0000524545DF
:10543C004E54206D616C6C6F63207375636365658E
:10544C00646564002F6D6E742F776F726B7370616F
:10545C0063652F776F726B73706163652F4743437E
:10546C002D31302D706970656C696E652F6A656EB3
:10547C006B696E732D4743432D31302D7069706508
:10548C006C696E652D34385F3230323031313234E4
:10549C005F313630363138303634312F7372632FFA
:1054AC006E65776C69622F6E65776C69622F6C69BB
:1054BC0062632F7374646C69622F72616E642E6305
:1054CC000000000025420B00BD460B00E5460B001A
:1054DC0009470B0031480B0041480B0055480B00A5
:1054EC000D4D0B00714E0B00000000000000000081
:0454FC0000000000AC
:0455000000000000A7
:1055040010000000120000000E0000001300000054
:105514001C530B002CE603200000000000000000D8
:105524000000000000000000000000000000000077
:105534000000000000000000000000000000000067
:105544000000000000000000000000000000000057
:105554000000000000000000000000000000000047
:105564000000000000000000000000000000000037
:0C5574000000000000000000ECE7032035
:10558000FFFFFFFF00000102030405060708090AE8
:105590000B0C0D0E0F101112131415161718191AE3
:0855A0001B1C1D1E1F2028002A
:0455A80078563412EB
:04000003B000401CED
:00000001FF
