:02000002B0004C
:1040000000400B0054550B00000006000C00050298
:084010000401810C0000000016
:04401800E4510B0064
:10401C0009480A49884208B505D0094A824202D0AB
:10402C00121A01F027F80748074A0021121A01F06A
:10403C002FF8014808BD00BF1CE60320B4540B0048
:10404C0094E6032094E60320EDE7032070B5074EB9
:10405C00074C00F04FFCA41BA4080025AC4200D177
:10406C0070BD56F8043B98470135F7E78C540B00AC
:10407C00B0540B0000F022B808B500F03DF8BDE8D4
:10408C00084000F0EFBB00F09DBA00F0A3BA007836
:10409C00B0FA80F0400970470123037070470EB4EA
:1040AC0003B503AB002153F8042B019300F069FB1B
:1040BC0002B05DF804EB03B07047000008B500F0E7
:1040CC0021FD4FF4165100F011FD084B002118880A
:1040DC0000F0F6FE064B0021188800F0F1FE054BAF
:1040EC0000211888BDE8084000F0EABE24E6032051
:1040FC0020E603201CE60320F8B52B4D00F006F952
:10410C002B68C01A42F21073984213D9274800F05A
:10411C0081F8044600F0F6FC25492246FFF7BFFF64
:10412C00312C04DC00F0EEFC2249FFF7B8FF00F064
:10413C00EDF82860204B214F1888214C214E224D40
:10414C0000F0FBFE214B3860188800F0E3FE204B9A
:10415C002060188800F0F1FE306000F0D7F82B6872
:10416C00C01AB0F57A7F1DD900F0CCFC3A68194919
:10417C00FFF795FF00F0C6FC22681749FFF78FFF89
:10418C0000F0C0FC32681549FFF789FF00F0BEF85B
:10419C0023682860012B05D100F0B4FC226810497B
:1041AC00FFF77DFFF8BD00BFACE60320B4E60320AB
:1041BC00F8510B0000520B0024E60320B0E603205C
:1041CC00A4E6032094E60320A8E6032020E60320BF
:1041DC001CE6032013520B001F520B002A520B003B
:1041EC0036520B0008B5084B0022C3E90022A2F599
:1041FC0080329A60022000F061F9BDE80840034863
:10420C000F2100F005B800BF98E60320B4E60320A8
:10421C000160704710B504460121008800F050FE83
:10422C002088002100F05DFE022000F067F8208855
:10423C00012100F056FE052000F060F820880021D6
:10424C0000F04FFE2088002100F03AFE208801216A
:10425C0000F08AFE3A2390FBF3F010BD08B5024B38
:10426C001B689B68019308BD6802030008B5024BEC
:10427C001B68DB68019308BD6802030008B5024B9C
:10428C001B685B68019308BD2C02030008B5024B48
:10429C001B689B68019308BD2C02030008B5024BF8
:1042AC001B68DB68019308BD2C02030008B5024BA8
:1042BC001B681B69019308BD2C02030008B5024B57
:1042CC001B685B69019308BD2C02030008B5024B07
:1042DC001B681B6B019308BD2C02030008B5024B35
:1042EC001B68DB6C019308BD2C02030008B5024B64
:1042FC001B685B68019308BD1802030008B5024BEC
:10430C001B68DB68019308BD1802030008B5024B5B
:10431C001B685B69019308BD1802030008B5024BCA
:10432C001B685B6C019308BD4802030008B5024B87
:10433C001B685B69019308BD6402030008B5024B5E
:10434C001B68DB68019308BD3C02030008B5024BF7
:10435C001B681B69019308BD3C02030008B5024BA6
:10436C001B685B69019308BD3C02030008B5024B56
:10437C001B689B69019308BD3C02030008B5024B06
:10438C001B68DB69019308BD3C02030008B5024BB6
:10439C001B681B6A019308BD3C02030008B5024B65
:1043AC001B689B6A019308BD3C02030008B5024BD5
:1043BC001B681B6C019308BD3C02030008B5024B43
:1043CC001B681B6A019308BD2802030008B5024B49
:1043DC001B685B6A019308BD2802030008B5024BF9
:1043EC001B689B6A019308BD2802030008B5024BA9
:1043FC001B68DB6A019308BD2802030008B5024B59
:10440C001B681B6B019308BD2802030008B5024B07
:10441C001B685B6B019308BD2802030008B5024BB7
:10442C001B681B6C019308BD2802030008B5024BE6
:10443C001B68DB69019308BD3002030008B5024B11
:10444C001B681B6A019308BD3002030008B5024BC0
:10445C001B681B68019308BD4C02030008B5024B96
:10446C001B685B68019308BD4C02030008B5024B46
:10447C001B681B69019308BD4C02030008B5024B75
:10448C001B685B69019308BD4C02030008B5024B25
:10449C001B689B69019308BD4C02030008B5024BD5
:1044AC001B68DB69019308BD4C02030008B5024B85
:1044BC001B681B6A019308BD4C02030008B5024B34
:1044CC001B685B68019308BD2002030008B5034B11
:1044DC001B68D3F88830019308BD0000200203004C
:1044EC0008B5034B1B68D3F89430019308BD00004A
:1044FC002002030008B5024B1B685B68019308BDE2
:10450C004002030008B5024B1B689B68019308BD71
:10451C004002030008B5024B1B68DB68019308BD21
:10452C004002030008B5024B1B681B69019308BDD0
:10453C004002030008B5024B1B685B69019308BD80
:10454C004002030008B5024B1B689B69019308BD30
:10455C004002030008B5024B1B68DB69019308BDE0
:10456C004002030008B5024B1B681B6A019308BD8F
:10457C004002030008B5024B1B681B6B019308BD7E
:10458C004002030008B5024B1B685B6B019308BD2E
:10459C004002030008B5024B1B681B6C019308BD5D
:1045AC004002030008B5024B1B685B6C019308BD0D
:1045BC004002030008B5024B1B68DB6B019308BD7E
:1045CC004402030008B5024B1B681B68019308BD2D
:1045DC001C02030008B5024B1B685B68019308BD05
:1045EC001C02030008B5024B1B685B6A019308BDF3
:1045FC001C02030008B5024B1B681B6C019308BD21
:10460C001C02030008B5024B1B685B6C019308BDD0
:10461C001C020300002240681146FFF7A3BF0022D2
:10462C0040681146FFF7AEBF40680022FFF7A2BFFB
:10463C004068002281F00101FFF78CBF0023406825
:10464C001A461946FFF77EBF002340681A461946E2
:10465C00FFF770BF002240681146FFF763BF0022CE
:10466C0040681146FFF74EBF406800220221FFF759
:10467C0051BF002340681A46FFF73CBF024B032290
:10468C005A60024A1A607047B8E603208C520B003D
:10469C0010B5044608462170FFF7C8FE002363607E
:1046AC00204610BD054B02221A60054B054A9A6044
:1046BC000020C3E90000FFF701BF00BFCCE60320D8
:1046CC00C0E603200000FFFF024800230360FFF751
:1046DC0025BE00BFD0E60320F8B506460D468F1860
:1046EC000024BD420CD0336815F8011B9B68304682
:1046FC009847031E01DB1C44F3E7002C08BF1C4643
:10470C002046F8BD13B50446084659B1019100F096
:10471C00F5FC23680199DB680246204602B0BDE82F
:10472C001040184702B010BD03689B68184738B595
:10473C000D210546FFF7F8FF0A2104462846FFF72E
:10474C00F3FF204438BD30B58BB00023012A8DF81F
:10475C00243098BF0A2209AC0D46B1FBF2F101FBE3
:10476C00125303F0FF03092B94BF30333733DBB202
:10477C00AA4204F8013DEFD92146FFF7C3FF0BB065
:10478C0030BD2DE9F04186B000AF05460E46381D10
:10479C00142114463B60FFF725FF13280ED8391D52
:1047AC002846FFF7AFFF04461EB12846FFF7BFFFB0
:1047BC00044420461837BD46BDE8F08100F10803DB
:1047CC0023F00703E846ADEB030D2246411C3B6882
:1047DC006846FFF707FF69462846FFF793FF044634
:1047EC00C546E1E7002340681A461946FFF7A2BE0A
:1047FC00014B024A1A607047D4E60320C0520B00EA
:10480C00024B1A68024B1A60704700BF28E603205F
:10481C00D8E60320014B00229A607047DCE60320A7
:10482C00014B1860704700BF2CE6032008B50B4BFA
:10483C0043B100F067F903681B699847002801DD54
:10484C00AFF30080064B43B100F0ACFB03681B696F
:10485C009847002801DDAFF3008008BD0000000080
:10486C000000000008B5FFF7E1FFFFF74FFD014B1B
:10487C00186008BD40E703200548064A064908B5FC
:10488C00121A00F0F7FB054B054A1A6008BD00BF71
:10489C0000F4032004F40320B0540B0000F40320B4
:1048AC001E1C279A07B5002300931A466FF0770158
:1048BC00FFF716FE03B05DF804FB000007B5438854
:1048CC000A2B08D0502B0BD1094B1B684BB103B0F2
:1048DC005DF804EB1847FFF7E5FF03B05DF804FB48
:1048EC00002300931A466FF07701FFF7F9FDF4E708
:1048FC00F0E6032010B512480021FFF783FE114BA0
:10490C001A68114B9A42114B0CBF012200221A70EB
:10491C0001D0FFF7B1FFFFF7E9FC044600F0C0FB44
:10492C000B4B13B12046AFF3008000210848FFF772
:10493C0041FEBDE8104007480021FFF7C7BD00BF8E
:10494C002D480B0000F403201E1C279AECE60320D4
:10495C0000000000C9480B00704710B51821044630
:10496C00FFF793FB204610BDF0B5037D062B8DB0F1
:10497C000E4600F104074FF0000412D000F10805B8
:10498C0015F8011D0A223046FFF7DDFEAF42044444
:10499C0019D0002CF4D02E213046FFF7C5FE04446C
:1049AC00EEE72F236A4639460A208DF80040FFF7C0
:1049BC00BDFC684600F0A2FB33680246DB68694622
:1049CC0030469847044620460DB0F0BD10B5054B57
:1049DC000446112240F8043B002100F059FB20460C
:1049EC0010BD00BFE8520B000346074A10B543F850
:1049FC00042B01F1100251F8044B43F8044B914283
:104A0C00F9D10A781A7010BDE8520B0010B59DF858
:104A1C00084044EA032343EA024242EA01610423C8
:104A2C004160037510BD000007B5064B0360CB78E1
:104A3C0000938B784A780978FFF7E8FF03B05DF8AC
:104A4C0004FB00BFE8520B0041747047704770477D
:104A5C0008B50021007CFFF719FD40EAE07008BDA5
:104A6C0008B50121007CFFF711FD40EAE07008BD9C
:104A7C0008B5007CFFF702FD20EAE07008BD08B520
:104A8C00007CFFF7F3FC20EAE07008BD13B5044688
:104A9C00007C0191FFF7F2FC0028019901DC607C9D
:104AAC0020B1207CFFF7FAFC20EAE07002B010BDC8
:104ABC00007CFFF7FBBC10B514210446FFF7E5FAA8
:104ACC00204610BD10B54FF47A73044608460021F9
:104ADC00C4E90113044B2360012320746374114651
:104AEC00FFF7B4FC204610BDFC520B00007C0022EA
:104AFC00FFF7B4BC10B514220446002100F0C8FA2C
:104B0C00204610BD10B50F4C88B003A8FFF7F2FF7C
:104B1C002178BFF35B8F11F001010FD12046019179
:104B2C00FFF7B5FA019948B103AA0748FFF7CAFF86
:104B3C002046FFF7B1FA054800F096FA024808B093
:104B4C0010BD00BFF4E60320F8E60320594A0B0021
:104B5C0070474174704708B5007CFFF71FFC20EAD2
:104B6C00E07008BD08B5007CFFF7F0FB20EAE070B0
:104B7C0008BD08B5007CFFF7F9FB40EAE07008BD02
:104B8C0008B5007CFFF7EAFB40EAE07008BD007C4A
:104B9C00FFF7F4BB37B5457C04462DB1207C03B040
:104BAC00BDE83040FFF7CABB007C0191FFF7F6FB74
:104BBC0000280199F2DC284603B030BD10B5142151
:104BCC000446FFF762FA204610BD000010B54FF402
:104BDC007A730446084611460022C4E90123044BAB
:104BEC002360012320746374FFF7E0FB204610BDA3
:104BFC002C530B007047F8B5064615460C468F181B
:104C0C00BC4206D0336814F8011B9B6830469847A9
:104C1C00F6E72846F8BD007C0022FFF7CFBB007CEE
:104C2C000021FFF7D3BB007C0021FFF7D7BB007C32
:104C3C000021FFF7DBBB007C0021FFF7DFBB10B5C9
:104C4C0014210446FFF721FA204610BD10B54FF48D
:104C5C007A73044608460021C4E90113034B236010
:104C6C0020741146FFF7DAFB204610BD5C530B0095
:104C7C00002240681146FFF755BC002240681146DF
:104C8C00FFF770BC002240681146FFF77BBC406800
:104C9C000022FFF76FBC4068002281F00101FFF792
:104CAC0059BC002340681A461946FFF74BBC00223A
:104CBC0040681146FFF726BC406800220221FFF72E
:104CCC0029BC002340681A46FFF714BC024B04228F
:104CDC005A60024A1A6070470CE7032084530B0099
:104CEC00002340681A46FFF705BC406800220221E9
:104CFC00FFF710BC002240681146FFF703BC0022EE
:104D0C0040681146FFF70EBC002340681A4619464E
:104D1C00FFF710BC002340681A461946FFF712BC77
:104D2C0040680021FFF736BC40680021FFF73ABC11
:104D3C004068002281F00101FFF70CBC40680022A2
:104D4C00FFF718BC002240681146FFF71BBC00227D
:104D5C0040681146FFF706BC2DE9F04395B01446A8
:104D6C000D460746FFF732FE00211C220DA80091CC
:104D7C0000F08EF940230C9320466B460CAA0021C0
:104D8C00FFF774FA044600284BD1024601216868EB
:104D9C00FFF7C8FB0221804622466868FFF7C2FB7A
:104DAC00009E81462146002E3BD0002939D17368E4
:104DBC00022B03D00A2B11D0F669F4E7B8F1000FDF
:104DCC00FAD0716906A8043107ADFFF72DFE0FCD9F
:104DDC003C1D0FC42B6823704146EDE7B9F1000F61
:104DEC00EAD07469102201A800F052F906238DF85C
:104DFC00143001AD04F108031834186859682A46B8
:104E0C0003C20833A3421546F7D101A906A807AD82
:104E1C00FFF7EAFD0FCD3C1D0FC42B6823704946EC
:104E2C00CAE70098FFF71AFA384615B0BDE8F083C8
:104E3C00024B034A1A6000225A60704714E70320A1
:104E4C00C0530B00232813B502D9002002B010BDAB
:104E5C00A0F10B03022B1AD8174C2178BFF35B8FF0
:104E6C0011F001010BD120460191FFF710F90199C6
:104E7C0028B11248FFF70CFC2046FFF70DF90F4B39
:104E8C001878FFF7DBFA0028DFD10120DEE70128D4
:104E9C0009D800F0C3F80021007CFFF7B7FA80F0C6
:104EAC000100C0B2D2E709380128EED800F07AF838
:104EBC00007CFFF76BFAF2E71CE7032020E70320E6
:104ECC00232838B504460D460AD8FF2908D0FFF729
:104EDC00B9FF28B129462046BDE83840FFF7D6B9BE
:104EEC0038BD38B504460D46FFF7D8F9FF2810D069
:104EFC00062804D84D2323FA00F0C30709D4204612
:104F0C00FFF7A0FF28B129462046BDE83840FFF73F
:104F1C00CDB938BD10B50446FFF7C0F9031FDBB29D
:104F2C00012B08D92046FFF78DFF20B12046BDE8A4
:104F3C001040FFF7C3B9002010BD0D2810B5044672
:104F4C009CBF0E34A4B22046FFF77CFF50B1032166
:104F5C002046FFF793F9032804D12046BDE8104002
:104F6C00FFF7B4B9002010BDFFF7B8B970470000C7
:104F7C0038B5044614252A46002100F089F825800E
:104F8C004025074925812846258200F06BF8044905
:104F9C006060284600F066F8E060204638BD00BF2F
:104FAC00F4530B0030B50E4D2978BFF35B8F11F025
:104FBC00010487B011D12846FFF769F868B101A840
:104FCC00FFF7D6FF01AA21460648FFF7FFFD28464A
:104FDC00FFF762F8044800F047F8024807B030BD0C
:104FEC0028E703202CE70320794F0B0070470000C3
:104FFC0038B52025142304460360856005610649F5
:10500C00284600F02FF804496060284600F02AF882
:10501C00E060204638BD00BFF4530B0030B50E4D98
:10502C002978BFF35B8F11F0010487B011D12846AA
:10503C00FFF72DF868B101A8FFF7DAFF01AA2146A6
:10504C000648FFF703FE2846FFF726F8044800F051
:10505C000BF8024807B030BD44E7032048E70320B3
:10506C00F94F0B00FFF70FB8002301461A461846FC
:10507C0000F04CB80A44914200F1FF3300D1704764
:10508C0010B511F8014B03F8014F9142F9D110BD45
:10509C0002440346934200D1704703F8011BF9E721
:1050AC0038B5104B1D68AB6B0446B3B91820FFF72D
:1050BC0089FA0246A86320B90B4B0C484221FFF732
:1050CC0099FA0B490B4BC0E900130B4B83600B2374
:1050DC00838100210120C2E90401AB6B00221C6119
:1050EC005A6138BD2CE60320F5530B000C540B0011
:1050FC000E33CDAB34126DE6ECDE0500034613F82F
:10510C00012B002AFBD1181A013870472DE9F843FE
:10511C00DFF8B8800646D8F800001F460D469146C9
:10512C0000F056F8254B1C6834B9254C1C60254BF7
:10513C0013B11B68C4F8883063681F2B07DDD8F8DF
:10514C00000000F047F84FF0FF30BDE8F8834EB395
:10515C00D4F8880088B91C4B23B9D8F8000000F0AB
:10516C0038F8F0E74FF48470FFF72CFA0028F4D0ED
:10517C000023C0E94033C4F88800636840F82390EA
:10518C0001229A4000EB8301D0F800311343C0F8A0
:10519C000031022EC1F8807002BFD0F804311343E5
:1051AC00C0F804316368D8F800005A1C02336260FE
:1051BC0044F8235000F00EF80020C6E7E8E703207F
:1051CC005CE7032000000000D1450B0090E60320B3
:1051DC0070477047704700001D400B0059400B0092
:1051EC0081400B0085400B00000000005249433AFF
:1051FC0025690A00546865207472617368206973AC
:10520C002066756C6C0A006D6F74696F6E3A2025A0
:10521C00690A00627574746F6E3A25690A0041510F
:10522C0053656E736F7225690A00456D657267610F
:10523C006E637920627574746F6E2068617320627E
:10524C0065656E20707265737365642C20706C6577
:10525C006173652073656E64206120726573706F75
:10526C006E736520756E697420746F20737461742D
:10527C00696F6E20310A0000000000000000000081
:10528C007F460B0075460B006B460B0061460B000E
:10529C0055460B0049460B002D4D0B00354D0B00B0
:1052AC003D460B0035460B002B460B0021460B00F0
:1052BC00654D0B006170700025592D256D2D2564F1
:1052CC005425483A254D3A2553257A006173637469
:1052DC00696D6500000000000000000075490B00BE
:1052EC0065490B0067490B0000000000000000003E
:1052FC005B4A0B00C34A0B00994A0B00E5460B00B6
:10530C008B4A0B005D4A0B006D4A0B00BD4A0B002B
:10531C007D4A0B00554A0B00000000000000000005
:10532C005D4B0B00C94B0B00A14B0B00E5460B0072
:10533C00714B0B008D4B0B007F4B0B009B4B0B00F1
:10534C005F4B0B00634B0B000000000000000000E3
:10535C00014C0B004B4C0B00234C0B00034C0B0073
:10536C002B4C0B00334C0B003B4C0B00434C0B00F9
:10537C000000000000000000CF4C0B00C54C0B00DF
:10538C00BB4C0B007D4C0B00F1470B00AF4C0B00E2
:10539C002D4D0B00354D0B00A34C0B009B4C0B0003
:1053AC00914C0B00874C0B00654D0B00000000006E
:1053BC0000000000ED4C0B00F74C0B00014D0B00F6
:1053CC000B4D0B00154D0B00214D0B002D4D0B0003
:1053DC00354D0B003D4D0B00494D0B00514D0B0055
:1053EC005B4D0B00654D0B00005245454E54206D36
:1053FC00616C6C6F632073756363656564656400D1
:10540C002F6D6E742F776F726B73706163652F776E
:10541C006F726B73706163652F4743432D31302D71
:10542C00706970656C696E652F6A656E6B696E73F9
:10543C002D4743432D31302D706970656C696E6555
:10544C002D34385F32303230313132345F313630D6
:10545C00363138303634312F7372632F6E65776C7A
:10546C0069622F6E65776C69622F6C6962632F734A
:10547C0074646C69622F72616E642E6300000000AC
:10548C00F1410B0089460B00B1460B00D5460B00D1
:10549C00FD470B000D480B0021480B00D94C0B00AD
:0454AC003D4E0B0066
:0454B00000000000F8
:1054B400100000001200000013000000D8520B007E
:1054C40030E603200000000000000000000000009F
:1054D40000000000000000000000000000000000C8
:1054E40000000000000000000000000000000000B8
:1054F40000000000000000000000000000000000A8
:105504000000000000000000000000000000000097
:105514000000000000000000000000000000000087
:0855240000000000ECE7032089
:10552C00FFFFFFFF00000102030405060708090A3C
:10553C000B0C0D0E0F101112131415161718191A37
:08554C001B1C1D1E1F2028007E
:04555400785634123F
:04000003B000401CED
:00000001FF
