:02000002B0004C
:1040000000400B00E8520B00000006000C00050207
:084010000401810C0000000016
:04401800FC4F0B004E
:10401C0009480A49884208B505D0094A824202D0AB
:10402C00121A00F033FF0748074A0021121A00F059
:10403C003BFF014808BD00BF34E6032054520B007F
:10404C00A0E60320A0E60320EDE7032070B5074EA1
:10405C00074C00F0FFFDA41BA4080025AC4200D1C6
:10406C0070BD56F8043B98470135F7E720520B001A
:10407C0044520B0000F021B808B500F023F8BDE85D
:10408C00084000F09FBD00F0DBB900F0E1B900780A
:10409C00B0FA80F0400970470123037070470EB4EA
:1040AC0003B503AB002153F8042B019300F0FBFB89
:1040BC0002B05DF804EB03B070470021112000F052
:1040CC0039BE000038B500F047F8104C104B1860A2
:1040DC002368C01AB0F57A7F17DD112000F03BFE83
:1040EC000C4D40F2DB539842286004DC00F0E4FCF9
:1040FC000949FFF7D4FF00F0DFFC2A6807490623C3
:10410C00FFF7CDFF00F028F8206038BDB4E603209F
:10411C00ACE60320B0E6032010500B0020500B003F
:10412C00044B0022C3E90022A2F580329A600220DF
:10413C0000F002B9A0E6032008B5024B1B685B6CCB
:10414C00019308BD4802030008B5024B1B685B686D
:10415C00019308BD1802030008B5024B1B685B698C
:10416C00019308BD1802030008B5024B1B685B687D
:10417C00019308BD2C02030008B5024B1B689B6819
:10418C00019308BD2C02030008B5024B1B681B6B86
:10419C00019308BD2C02030008B5024B1B681B6A77
:1041AC00019308BD2802030008B5024B1B685B6A2B
:1041BC00019308BD2802030008B5024B1B689B6ADB
:1041CC00019308BD2802030008B5024B1B68DB6A8B
:1041DC00019308BD2802030008B5024B1B681B6B3A
:1041EC00019308BD2802030008B5024B1B685B6BEA
:1041FC00019308BD2802030008B5024B1B681B6C19
:10420C00019308BD2802030008B5024B1B685B69CB
:10421C00019308BD6402030008B5024B1B689B6840
:10422C00019308BD6802030008B5024B1B68DB68EC
:10423C00019308BD6802030008B5024B1B68DB69DB
:10424C00019308BD3002030008B5024B1B681B6AC2
:10425C00019308BD3002030008B5024B1B68DB68F4
:10426C00019308BD3C02030008B5024B1B681B6997
:10427C00019308BD3C02030008B5024B1B685B6947
:10428C00019308BD3C02030008B5024B1B689B69F7
:10429C00019308BD3C02030008B5024B1B68DB69A7
:1042AC00019308BD3C02030008B5024B1B681B6A56
:1042BC00019308BD3C02030008B5024B1B689B6AC6
:1042CC00019308BD3C02030008B5024B1B681B6C34
:1042DC00019308BD3C02030008B5024B1B681B6828
:1042EC00019308BD4C02030008B5024B1B681B6907
:1042FC00019308BD4C02030008B5024B1B685B69B7
:10430C00019308BD4C02030008B5024B1B689B6966
:10431C00019308BD4C02030008B5024B1B68DB6916
:10432C00019308BD4C02030008B5024B1B681B6AC5
:10433C00019308BD4C02030008B5024B1B685B6877
:10434C00019308BD2002030008B5034B1B68D3F88A
:10435C008830019308BD00002002030008B5034B10
:10436C001B68D3F89430019308BD000020020300B1
:10437C0008B5024B1B68DB6B019308BD44020300BC
:10438C0008B5024B1B685B68019308BD4002030033
:10439C0008B5024B1B689B68019308BD40020300E3
:1043AC0008B5024B1B68DB68019308BD4002030093
:1043BC0008B5024B1B681B69019308BD4002030042
:1043CC0008B5024B1B685B69019308BD40020300F2
:1043DC0008B5024B1B689B69019308BD40020300A2
:1043EC0008B5024B1B68DB69019308BD4002030052
:1043FC0008B5024B1B681B6A019308BD4002030001
:10440C0008B5024B1B681B6B019308BD40020300EF
:10441C0008B5024B1B685B6B019308BD400203009F
:10442C0008B5024B1B681B6C019308BD40020300CE
:10443C0008B5024B1B685B6C019308BD400203007E
:10444C0008B5024B1B681B68019308BD1C020300D6
:10445C0008B5024B1B685B68019308BD1C02030086
:10446C0008B5024B1B685B6A019308BD1C02030074
:10447C0008B5024B1B681B6C019308BD1C020300A2
:10448C0008B5024B1B685B6C019308BD1C02030052
:10449C00024800230360FFF74FBE00BFB8E60320BD
:1044AC00002240681146FFF7A3BF00224068114666
:1044BC00FFF7AEBF40680022FFF7A2BF40680022A2
:1044CC0081F00101FFF78CBF002340681A461946A2
:1044DC00FFF77EBF002340681A461946FFF770BFEE
:1044EC00002240681146FFF763BF00224068114666
:1044FC00FFF74EBF406800220221FFF751BF002397
:10450C0040681A46FFF73CBF024B03225A60024A2E
:10451C001A607047BCE6032044500B007047F8B596
:10452C00064615460C468F18BC4206D0336814F864
:10453C00011B9B6830469847F6E72846F8BD007C7F
:10454C000022FFF729BE007C0021FFF72DBE007C66
:10455C000021FFF731BE007C0021FFF735BE007C47
:10456C000021FFF739BE10B514210446FFF78DFD6D
:10457C00204610BD10B54FF47A730446084600214E
:10458C00C4E90113034B236020741146FFF734FE7A
:10459C00204610BD80500B00704710B51821044602
:1045AC00FFF773FD204610BDF0B5037D062B8DB0D3
:1045BC000E4600F104074FF0000412D000F108057C
:1045CC0015F8011D0A22304600F04FF9AF420444A1
:1045DC0019D0002CF4D02E21304600F037F90444C9
:1045EC00EEE72F236A4639460A208DF80040FFF784
:1045FC000BFE684600F08EFC33680246DB686946A9
:10460C0030469847044620460DB0F0BD10B5054B1A
:10461C000446112240F8043B002100F045FC2046E2
:10462C0010BD00BFA8500B000346074A10B543F855
:10463C00042B01F1100251F8044B43F8044B914246
:10464C00F9D10A781A7010BDA8500B0010B59DF85E
:10465C00084044EA032343EA024242EA016104238C
:10466C004160037510BD000007B5064B0360CB78A5
:10467C0000938B784A780978FFF7E8FF03B05DF870
:10468C0004FB00BFA8500B00014B024A1A60704794
:10469C00C4E60320B4500B00002340681A46FFF711
:1046AC006FBE406800220221FFF77ABE00224068EC
:1046BC001146FFF76DBE002240681146FFF778BE29
:1046CC00002340681A461946FFF77ABE002340685B
:1046DC001A461946FFF77CBE40680021FFF7A0BEC2
:1046EC0040680021FFF7A4BE4068002281F0010160
:1046FC00FFF776BE40680022FFF782BE00224068BA
:10470C001146FFF785BE002240681146FFF770BEC8
:10471C002DE9F04395B014460D460746FFF776FF9A
:10472C0000211C220DA8009100F0BEFB40230C932D
:10473C0020466B460CAA0021FFF776FD04460028A4
:10474C004BD1024601216868FFF732FE02218046F8
:10475C0022466868FFF72CFE009E81462146002EFB
:10476C003BD0002939D17368022B03D00A2B11D00E
:10477C00F669F4E7B8F1000FFAD0716906A80431B4
:10478C0007ADFFF771FF0FCD3C1D0FC42B682370D5
:10479C004146EDE7B9F1000FEAD07469102201A887
:1047AC0000F082FB06238DF8143001AD04F10803F0
:1047BC001834186859682A4603C20833A3421546B0
:1047CC00F7D101A906A807ADFFF72EFF0FCD3C1DB1
:1047DC000FC42B6823704946CAE70098FFF71CFDED
:1047EC00384615B0BDE8F083024B034A1A6000222C
:1047FC005A607047C8E60320C0500B00F8B5064657
:10480C000D468F180024BD420CD0336815F8011BDF
:10481C009B6830469847031E01DB1C44F3E7002CD1
:10482C0008BF1C462046F8BD13B50446084659B1CE
:10483C00019100F06FFB23680199DB68024620466A
:10484C0002B0BDE81040184702B010BD03689B6869
:10485C00184738B50D210546FFF7F8FF0A21044625
:10486C002846FFF7F3FF204438BD30B58BB000234A
:10487C00012A8DF8243098BF0A2209AC0D46B1FBF1
:10488C00F2F101FB125303F0FF03092B94BF3033F9
:10489C003733DBB2AA4204F8013DEFD92146FFF7CA
:1048AC00C3FF0BB030BD2DE9F04186B000AF05461B
:1048BC000E46381D142114463B60FFF7D1FD13281A
:1048CC000ED8391D2846FFF7AFFF04461EB1284607
:1048DC00FFF7BFFF044420461837BD46BDE8F08102
:1048EC0000F1080323F00703E846ADEB030D224665
:1048FC00411C3B686846FFF7B3FD69462846FFF745
:10490C0093FF0446C546E1E7014B00229A607047CD
:10491C00D0E6032010B5044608462170FFF78CFC46
:10492C0000236360204610BD054B02221A60054B24
:10493C00054A9A600020C3E90000FFF7FDBC00BFE8
:10494C00ECE60320E0E603200000FFFF024B1A68B0
:10495C00024B1A60704700BF34E60320F0E60320D8
:10496C0070474174704708B5007CFFF7A5FC20EA3E
:10497C00E07008BD08B5007CFFF776FC20EAE0701B
:10498C0008BD08B5007CFFF77FFC40EAE07008BD6D
:10499C0008B5007CFFF770FC40EAE07008BD007CB5
:1049AC00FFF77ABC37B5457C04462DB1207C03B0AB
:1049BC00BDE83040FFF750BC007C0191FFF77CFC58
:1049CC0000280199F2DC284603B030BD10B5142143
:1049DC000446FFF75AFB204610BD000010B54FF4FB
:1049EC007A730446084611460022C4E90123044B9D
:1049FC002360012320746374FFF766FC204610BD0E
:104A0C0018510B00417470477047704708B500216E
:104A1C00007CFFF779FC40EAE07008BD08B5012185
:104A2C00007CFFF771FC40EAE07008BD08B5007C23
:104A3C00FFF762FC20EAE07008BD08B5007CFFF7C8
:104A4C0053FC20EAE07008BD13B50446007C0191CC
:104A5C00FFF752FC0028019901DC607C20B1207C1E
:104A6C00FFF75AFC20EAE07002B010BD007CFFF7A3
:104A7C005BBC10B514210446FFF707FB204610BDA4
:104A8C0010B54FF47A73044608460021C4E90113AB
:104A9C00044B23600123207463741146FFF71CFC44
:104AAC00204610BD48510B0010B5142204460021BD
:104ABC0000F0FAF9204610BD10B50F4C88B003A8D1
:104ACC00FFF7F2FF2178BFF35B8F11F001010FD1DB
:104ADC0020460191FFF7DBFA019948B103AA074878
:104AEC00FFF7CEFF2046FFF7D7FA054800F0C8F9CC
:104AFC00024808B010BD00BFF4E60320F8E603201E
:104B0C00154A0B00002240681146FFF751BC0022E9
:104B1C0040681146FFF76CBC002240681146FFF755
:104B2C0077BC40680022FFF76BBC4068002281F024
:104B3C000101FFF755BC002340681A461946FFF7E0
:104B4C0047BC002340681A461946FFF739BC0022BF
:104B5C0040681146FFF71CBC406800220221FFF799
:104B6C001FBC002340681A46FFF70ABC024B042204
:104B7C005A60024A1A6070470CE7032078510B0008
:104B8C00014B1860704700BF38E6032008B50B4B8B
:104B9C0043B1FFF791FF03681B699847002801DDBB
:104BAC00AFF30080064B43B100F044F903681B6976
:104BBC009847002801DDAFF3008008BD000000001D
:104BCC000000000008B5FFF7E1FFFFF7C5FA014B45
:104BDC00186008BD28E703200548064A064908B5B1
:104BEC00121A00F053F9054B054A1A6008BD00BFB4
:104BFC0000F4032004F4032050520B0000F40320B3
:104C0C001E1C279A07B5002300931A466FF07701F4
:104C1C00FFF7A4FB03B05DF804FB000007B5438865
:104C2C000A2B08D0502B0BD1094B1B684BB103B08E
:104C3C005DF804EB1847FFF7E5FF03B05DF804FBE4
:104C4C00002300931A466FF07701FFF787FBF4E718
:104C5C0018E7032010B512480021FFF711FC114B87
:104C6C001A68114B9A42114B0CBF012200221A7088
:104C7C0001D0FFF7B1FFFFF767FA044600F01CF90B
:104C8C000B4B13B12046AFF3008000210848FFF70F
:104C9C006FFBBDE8104007480021FFF755BB00BF74
:104CAC008D4B0B0000F403201E1C279A14E70320E5
:104CBC0000000000294C0B00232813B502D900205A
:104CCC0002B010BDA0F10B03022B1AD8174C21789F
:104CDC00BFF35B8F11F001010BD120460191FFF75F
:104CEC00D6F9019928B11248FFF714FE2046FFF7B8
:104CFC00D3F90F4B1878FFF7A7FA0028DFD1012062
:104D0C00DEE7012809D800F055F80021007CFFF7F8
:104D1C006BFA80F00100C0B2D2E709380128EED856
:104D2C0000F088F8007CFFF7BFFAF2E71CE70320DD
:104D3C0020E70320232838B504460D460AD8FF295E
:104D4C0008D0FFF7B9FF28B129462046BDE8384006
:104D5C00FFF712BA38BD0D2810B504469CBF0E34AF
:104D6C00A4B22046FFF7A8FF50B103212046FFF75D
:104D7C00FBF9032804D12046BDE81040FFF704BA24
:104D8C00002010BD7047000038B5202514230446C0
:104D9C000360856005610649284600F06FF80449F8
:104DAC006060284600F06AF8E060204638BD00BF1D
:104DBC00AC510B0030B50E4D2978BFF35B8F11F061
:104DCC00010487B011D12846FFF761F968B101A839
:104DDC00FFF7DAFF01AA21460648FFF7CBFB28466E
:104DEC00FFF75AF9044800F04BF8024807B030BD01
:104DFC002CE7032030E70320914D0B007047000097
:104E0C0038B5044614252A46002100F04DF82580BB
:104E1C004025074925812846258200F02FF80449B2
:104E2C006060284600F02AF8E060204638BD00BFDC
:104E3C00AC510B0030B50E4D2978BFF35B8F11F0E0
:104E4C00010487B011D12846FFF721F968B101A8F8
:104E5C00FFF7D6FF01AA21460648FFF7BFFD2846FB
:104E6C00FFF71AF9044800F00BF8024807B030BD00
:104E7C0044E7032048E70320094E0B00FFF703B972
:104E8C00002301461A46184600F04CB80A449142D9
:104E9C0000F1FF3300D1704710B511F8014B03F846
:104EAC00014F9142F9D110BD02440346934200D107
:104EBC00704703F8011BF9E738B5104B1D68AB6B55
:104ECC000446B3B91820FFF7BBFA0246A86320B911
:104EDC000B4B0C484221FFF7CBFA0B490B4BC0E9AB
:104EEC0000130B4B83600B23838100210120C2E94B
:104EFC000401AB6B00221C615A6138BD38E60320FB
:104F0C00AD510B00C4510B000E33CDAB34126DE61A
:104F1C00ECDE0500034613F8012B002AFBD1181A0E
:104F2C00013870472DE9F843DFF8B8800646D8F809
:104F3C0000001F460D46914600F056F8254B1C68A4
:104F4C0034B9254C1C60254B13B11B68C4F8883050
:104F5C0063681F2B07DDD8F8000000F047F84FF00E
:104F6C00FF30BDE8F8834EB3D4F8880088B91C4BE9
:104F7C0023B9D8F8000000F038F8F0E74FF484704B
:104F8C00FFF75EFA0028F4D00023C0E94033C4F8E0
:104F9C008800636840F8239001229A4000EB83015B
:104FAC00D0F800311343C0F80031022EC1F88070E4
:104FBC0002BFD0F804311343C0F804316368D8F849
:104FCC0000005A1C0233626044F8235000F00EF8C3
:104FDC000020C6E7E8E703205CE7032000000000A0
:104FEC004D440B009CE6032070477047704700004F
:104FFC001D400B0059400B0081400B0085400B00FD
:10500C0000000000466C616D652044657465637436
:10501C0065642100666C616D652073656E736F72DB
:10502C003A2569204449474954414C3A25690A00BC
:10503C0000000000000000000B450B0001450B00B8
:10504C00F7440B00ED440B00E1440B00D5440B007E
:10505C00E5460B00ED460B00C9440B00C1440B00A8
:10506C00B7440B00AD440B001D470B0000000000C3
:10507C000000000029450B0073450B004B450B004D
:10508C002B450B0053450B005B450B0063450B0098
:10509C006B450B000000000000000000B5450B0044
:1050AC00A5450B00A7450B006170700000000000C7
:1050BC0000000000A5460B00AF460B00B9460B00E4
:1050CC00C3460B00CD460B00D9460B00E5460B0042
:1050DC00ED460B00F5460B0001470B0009470B0092
:1050EC0013470B001D470B0025592D256D2D2564ED
:1050FC005425483A254D3A2553257A00617363743B
:10510C00696D650000000000000000006D490B0097
:10511C00D9490B00B1490B0009480B0081490B0020
:10512C009D490B008F490B00AB490B006F490B00DD
:10513C0073490B000000000000000000174A0B0030
:10514C007F4A0B00554A0B0009480B00474A0B00DD
:10515C00194A0B00294A0B00794A0B00394A0B00FB
:10516C00114A0B0000000000000000006F4B0B0008
:10517C00654B0B005B4B0B00114B0B004F4B0B00AB
:10518C00434B0B00E5460B00ED460B00374B0B0079
:10519C002F4B0B00254B0B001B4B0B001D470B0023
:1051AC00005245454E54206D616C6C6F63207375D5
:1051BC0063636565646564002F746D702F6A656E3A
:1051CC006B696E732D4743432D31302D70697065BB
:1051DC006C696E652D34385F323032303131323497
:1051EC005F313630363138303633392F7372632FA6
:1051FC006E65776C69622F6E65776C69622F6C696E
:10520C0062632F7374646C69622F72616E642E63B7
:10521C00000000002D410B009D440B0015450B00B8
:10522C0095460B00F5470B0015490B0035490B0053
:10523C0059490B00794B0B000000000000000000E6
:04524C00000000005E
:04525000000000005A
:1052540008510B003CE603200000000000000000A1
:10526400000000000000000000000000000000003A
:10527400000000000000000000000000000000002A
:10528400000000000000000000000000000000001A
:10529400000000000000000000000000000000000A
:1052A40000000000000000000000000000000000FA
:0C52B4000000000000000000ECE70320F8
:1052C000FFFFFFFF00000102030405060708090AAB
:1052D0000B0C0D0E0F101112131415161718191AA6
:0852E0001B1C1D1E1F202800ED
:0452E80078563412AE
:04000003B000401CED
:00000001FF
