:02000002B0004C
:1040000000400B00B8520B00000006000C00050237
:084010000401810C0000000016
:04401800E84F0B0062
:10401C0009480A49884208B505D0094A824202D0AB
:10402C00121A00F029FF0748074A0021121A00F063
:10403C0031FF014808BD00BF3CE6032024520B00B1
:10404C00A8E60320A8E60320EDE7032070B5074E91
:10405C00074C00F0F5FDA41BA4080025AC4200D1D0
:10406C0070BD56F8043B98470135F7E7FC510B003F
:10407C0020520B0000F021B808B500F023F8BDE881
:10408C00084000F095BD00F0CDB900F0D3B9007830
:10409C00B0FA80F0400970470123037070470EB4EA
:1040AC0003B503AB002153F8042B019300F0F1FB93
:1040BC0002B05DF804EB03B070470021112000F052
:1040CC002FBE000010B5112000F03BFE074C206005
:1040DC0000F0E8FC226806490623FFF7E0FFBDE884
:1040EC0010404FF47A7000F0C5B900BFB4E603205D
:1040FC00FC4F0B00044B0022C3E90022A2F58032D6
:10410C009A60022000F002B9A8E6032008B5024B21
:10411C001B685B6C019308BD4802030008B5024B99
:10412C001B685B68019308BD1802030008B5024BBD
:10413C001B685B69019308BD1802030008B5024BAC
:10414C001B685B68019308BD2C02030008B5024B89
:10415C001B689B68019308BD2C02030008B5024B39
:10416C001B681B6B019308BD2C02030008B5024BA6
:10417C001B681B6A019308BD2802030008B5024B9B
:10418C001B685B6A019308BD2802030008B5024B4B
:10419C001B689B6A019308BD2802030008B5024BFB
:1041AC001B68DB6A019308BD2802030008B5024BAB
:1041BC001B681B6B019308BD2802030008B5024B5A
:1041CC001B685B6B019308BD2802030008B5024B0A
:1041DC001B681B6C019308BD2802030008B5024B39
:1041EC001B685B69019308BD6402030008B5024BB0
:1041FC001B689B68019308BD6802030008B5024B5D
:10420C001B68DB68019308BD6802030008B5024B0C
:10421C001B68DB69019308BD3002030008B5024B33
:10422C001B681B6A019308BD3002030008B5024BE2
:10423C001B68DB68019308BD3C02030008B5024B08
:10424C001B681B69019308BD3C02030008B5024BB7
:10425C001B685B69019308BD3C02030008B5024B67
:10426C001B689B69019308BD3C02030008B5024B17
:10427C001B68DB69019308BD3C02030008B5024BC7
:10428C001B681B6A019308BD3C02030008B5024B76
:10429C001B689B6A019308BD3C02030008B5024BE6
:1042AC001B681B6C019308BD3C02030008B5024B54
:1042BC001B681B68019308BD4C02030008B5024B38
:1042CC001B681B69019308BD4C02030008B5024B27
:1042DC001B685B69019308BD4C02030008B5024BD7
:1042EC001B689B69019308BD4C02030008B5024B87
:1042FC001B68DB69019308BD4C02030008B5024B37
:10430C001B681B6A019308BD4C02030008B5024BE5
:10431C001B685B68019308BD2002030008B5024BC3
:10432C001B685B69019308BD2002030008B5034BB1
:10433C001B68D3F88830019308BD000020020300ED
:10434C0008B5034B1B68D3F89430019308BD0000EB
:10435C002002030008B5024B1B68DB6B019308BD00
:10436C004402030008B5024B1B685B68019308BD4F
:10437C004002030008B5024B1B689B68019308BD03
:10438C004002030008B5024B1B68DB68019308BDB3
:10439C004002030008B5024B1B681B69019308BD62
:1043AC004002030008B5024B1B685B69019308BD12
:1043BC004002030008B5024B1B689B69019308BDC2
:1043CC004002030008B5024B1B68DB69019308BD72
:1043DC004002030008B5024B1B681B6A019308BD21
:1043EC004002030008B5024B1B681B6B019308BD10
:1043FC004002030008B5024B1B685B6B019308BDC0
:10440C004002030008B5024B1B681B6C019308BDEE
:10441C004002030008B5024B1B685B6C019308BD9E
:10442C004002030008B5024B1B681B68019308BDD2
:10443C001C02030008B5024B1B685B68019308BDA6
:10444C001C02030008B5024B1B685B6A019308BD94
:10445C001C02030008B5024B1B681B6C019308BDC2
:10446C001C02030008B5024B1B685B6C019308BD72
:10447C001C0203000021FFF751BF0000024800237B
:10448C000360FFF743BE00BFB8E60320002240687C
:10449C001146FFF79FBF002240681146FFF7AABFE5
:1044AC0040680022FFF79EBF4068002281F00101A6
:1044BC00FFF788BF002340681A461946FFF77ABFFA
:1044CC00002340681A461946FFF76CBF002240686B
:1044DC001146FFF75FBF002240681146FFF74ABF45
:1044EC00406800220221FFF74DBF002340681A46A6
:1044FC00FFF738BF024B03225A60024A1A6070471A
:10450C00BCE6032020500B007047F8B50646154654
:10451C000C468F18BC4206D0336814F8011B9B68FC
:10452C0030469847F6E72846F8BD007C0022FFF796
:10453C001DBE007C0021FFF721BE007C0021FFF78F
:10454C0025BE007C0021FFF729BE007C0021FFF76F
:10455C002DBE10B514210446FFF797FD204610BD63
:10456C0010B54FF47A73044608460021C4E90113D0
:10457C00034B236020741146FFF728FE204610BD24
:10458C005C500B00704710B518210446FFF77DFDF9
:10459C00204610BDF0B5037D062B8DB00E4600F104
:1045AC0004074FF0000412D000F1080515F8011DA6
:1045BC000A22304600F04FF9AF42044419D0002CC7
:1045CC00F4D02E21304600F037F90444EEE72F23C7
:1045DC006A4639460A208DF80040FFF7FFFD684611
:1045EC0000F08EFC33680246DB686946304698471B
:1045FC00044620460DB0F0BD10B5054B0446112203
:10460C0040F8043B002100F045FC204610BD00BFE3
:10461C0084500B000346074A10B543F8042B01F1F4
:10462C00100251F8044B43F8044B9142F9D10A782B
:10463C001A7010BD84500B0010B59DF8084044EA68
:10464C00032343EA024242EA0161042341600375F9
:10465C0010BD000007B5064B0360CB7800938B7838
:10466C004A780978FFF7E8FF03B05DF804FB00BF58
:10467C0084500B00014B024A1A607047C4E60320B9
:10468C0090500B00002340681A46FFF76BBE406841
:10469C0000220221FFF776BE002240681146FFF788
:1046AC0069BE002240681146FFF774BE00234068C3
:1046BC001A461946FFF776BE002340681A4619467B
:1046CC00FFF778BE40680021FFF79CBE40680021D0
:1046DC00FFF7A0BE4068002281F00101FFF772BE17
:1046EC0040680022FFF77EBE002240681146FFF7AB
:1046FC0081BE002240681146FFF76CBE2DE9F043E5
:10470C0095B014460D460746FFF776FF00211C2294
:10471C000DA8009100F0BEFB40230C9320466B4685
:10472C000CAA0021FFF76AFD044600284BD1024673
:10473C0001216868FFF72EFE022180462246686838
:10474C00FFF728FE009E81462146002E3BD0002913
:10475C0039D17368022B03D00A2B11D0F669F4E718
:10476C00B8F1000FFAD0716906A8043107ADFFF754
:10477C0071FF0FCD3C1D0FC42B6823704146EDE734
:10478C00B9F1000FEAD07469102201A800F082FB85
:10479C0006238DF8143001AD04F1080318341868A1
:1047AC0059682A4603C20833A3421546F7D101A91A
:1047BC0006A807ADFFF72EFF0FCD3C1D0FC42B68CD
:1047CC0023704946CAE70098FFF710FD384615B02C
:1047DC00BDE8F083024B034A1A6000225A6070470E
:1047EC00C8E603209C500B00F8B506460D468F1802
:1047FC000024BD420CD0336815F8011B9B68304671
:10480C009847031E01DB1C44F3E7002C08BF1C4631
:10481C002046F8BD13B50446084659B1019100F085
:10482C006FFB23680199DB680246204602B0BDE8A5
:10483C001040184702B010BD03689B68184738B584
:10484C000D210546FFF7F8FF0A2104462846FFF71D
:10485C00F3FF204438BD30B58BB00023012A8DF80E
:10486C00243098BF0A2209AC0D46B1FBF2F101FBD2
:10487C00125303F0FF03092B94BF30333733DBB2F1
:10488C00AA4204F8013DEFD92146FFF7C3FF0BB054
:10489C0030BD2DE9F04186B000AF05460E46381DFF
:1048AC00142114463B60FFF7CDFD13280ED8391D9B
:1048BC002846FFF7AFFF04461EB12846FFF7BFFF9F
:1048CC00044420461837BD46BDE8F08100F10803CA
:1048DC0023F00703E846ADEB030D2246411C3B6871
:1048EC006846FFF7AFFD69462846FFF793FF04467D
:1048FC00C546E1E7014B00229A607047D0E60320E1
:10490C0010B5044608462170FFF780FC0023636055
:10491C00204610BD054B02221A60054B054A9A60D1
:10492C000020C3E90000FFF7F1BC00BFECE6032058
:10493C00E0E603200000FFFF024B1A68024B1A60EE
:10494C00704700BF3CE60320F0E60320704741743B
:10495C00704708B5007CFFF799FC20EAE07008BDB1
:10496C0008B5007CFFF76AFC20EAE07008BD08B5CA
:10497C00007CFFF773FC40EAE07008BD08B5007CD2
:10498C00FFF764FC40EAE07008BD007CFFF76EBCEA
:10499C0037B5457C04462DB1207C03B0BDE83040D2
:1049AC00FFF744BC007C0191FFF770FC00280199D3
:1049BC00F2DC284603B030BD10B514210446FFF7D5
:1049CC0064FB204610BD000010B54FF47A7304460A
:1049DC00084611460022C4E90123044B236001233D
:1049EC0020746374FFF75AFC204610BDF4500B0082
:1049FC00417470477047704708B50021007CFFF781
:104A0C006DFC40EAE07008BD08B50121007CFFF7A1
:104A1C0065FC40EAE07008BD08B5007CFFF756FC69
:104A2C0020EAE07008BD08B5007CFFF747FC20EADF
:104A3C00E07008BD13B50446007C0191FFF746FCFD
:104A4C000028019901DC607C20B1207CFFF74EFC32
:104A5C0020EAE07002B010BD007CFFF74FBC10B52F
:104A6C0014210446FFF711FB204610BD10B54FF47E
:104A7C007A73044608460021C4E90113044B2360F1
:104A8C000123207463741146FFF710FC204610BDFF
:104A9C0024510B0010B514220446002100F0FAF941
:104AAC00204610BD10B50F4C88B003A8FFF7F2FFDD
:104ABC002178BFF35B8F11F001010FD120460191DA
:104ACC00FFF7E5FA019948B103AA0748FFF7CEFFB3
:104ADC002046FFF7E1FA054800F0C8F9024808B093
:104AEC0010BD00BFF4E60320F8E60320014A0B00DA
:104AFC00002240681146FFF74DBC00224068114669
:104B0C00FFF768BC002240681146FFF773BC406891
:104B1C000022FFF767BC4068002281F00101FFF71B
:104B2C0051BC002340681A461946FFF743BC0023CA
:104B3C0040681A461946FFF735BC002240681146FA
:104B4C00FFF718BC406800220221FFF71BBC0023B2
:104B5C0040681A46FFF706BC024B04225A60024A10
:104B6C001A6070470CE7032054510B00014B18607E
:104B7C00704700BF40E6032008B50B4B43B1FFF76D
:104B8C0091FF03681B699847002801DDAFF3008093
:104B9C00064B43B100F044F903681B6998470028A1
:104BAC0001DDAFF3008008BD000000000000000034
:104BBC0008B5FFF7E1FFFFF7B9FA014B186008BD24
:104BCC0028E703200548064A064908B5121A00F0E2
:104BDC0053F9054B054A1A6008BD00BF00F40320C9
:104BEC0004F4032020520B0000F403201E1C279A0F
:104BFC0007B5002300931A466FF07701FFF7A0FB6F
:104C0C0003B05DF804FB000007B543880A2B08D0FD
:104C1C00502B0BD1094B1B684BB103B05DF804EB67
:104C2C001847FFF7E5FF03B05DF804FB0023009382
:104C3C001A466FF07701FFF783FBF4E718E70320C0
:104C4C0010B512480021FFF70DFC114B1A68114BDF
:104C5C009A42114B0CBF012200221A7001D0FFF7AF
:104C6C00B1FFFFF75BFA044600F01CF90B4B13B1D4
:104C7C002046AFF3008000210848FFF76BFBBDE82E
:104C8C00104007480021FFF751BB00BF794B0B00C8
:104C9C0000F403201E1C279A14E7032000000000D8
:104CAC00154C0B00232813B502D9002002B010BDFF
:104CBC00A0F10B03022B1AD8174C2178BFF35B8F92
:104CCC0011F001010BD120460191FFF7E0F9019998
:104CDC0028B11248FFF714FE2046FFF7DDF90F4B01
:104CEC001878FFF79BFA0028DFD10120DEE70128B6
:104CFC0009D800F055F80021007CFFF75FFA80F02E
:104D0C000100C0B2D2E709380128EED800F088F8CB
:104D1C00007CFFF7B3FAF2E71CE7032020E703203F
:104D2C00232838B504460D460AD8FF2908D0FFF7CA
:104D3C00B9FF28B129462046BDE83840FFF706BA2E
:104D4C0038BD0D2810B504469CBF0E34A4B22046C5
:104D5C00FFF7A8FF50B103212046FFF7EFF9032816
:104D6C0004D12046BDE81040FFF7F8B9002010BD73
:104D7C007047000038B52025142304460360856075
:104D8C0005610649284600F06FF804496060284622
:104D9C0000F06AF8E060204638BD00BF88510B0077
:104DAC0030B50E4D2978BFF35B8F11F0010487B03D
:104DBC0011D12846FFF76BF968B101A8FFF7DAFFAC
:104DCC0001AA21460648FFF7CBFB2846FFF764F9FA
:104DDC00044800F04BF8024807B030BD2CE7032024
:104DEC0030E703207D4D0B007047000038B50446BA
:104DFC0014252A46002100F04DF82580402507494E
:104E0C0025812846258200F02FF804496060284649
:104E1C0000F02AF8E060204638BD00BF88510B0036
:104E2C0030B50E4D2978BFF35B8F11F0010487B0BC
:104E3C0011D12846FFF72BF968B101A8FFF7D6FF6F
:104E4C0001AA21460648FFF7BFFD2846FFF724F9C3
:104E5C00044800F00BF8024807B030BD44E70320CB
:104E6C0048E70320F54D0B00FFF70DB90023014671
:104E7C001A46184600F04CB80A44914200F1FF3330
:104E8C0000D1704710B511F8014B03F8014F914256
:104E9C00F9D110BD02440346934200D1704703F888
:104EAC00011BF9E738B5104B1D68AB6B0446B3B961
:104EBC001820FFF7B7FA0246A86320B90B4B0C4831
:104ECC004221FFF7C7FA0B490B4BC0E900130B4B00
:104EDC0083600B23838100210120C2E90401AB6BA9
:104EEC0000221C615A6138BD40E6032089510B0039
:104EFC00A0510B000E33CDAB34126DE6ECDE050089
:104F0C00034613F8012B002AFBD1181A01387047FD
:104F1C002DE9F843DFF8B8800646D8F800001F46A4
:104F2C000D46914600F056F8254B1C6834B9254CBB
:104F3C001C60254B13B11B68C4F8883063681F2BA9
:104F4C0007DDD8F8000000F047F84FF0FF30BDE85F
:104F5C00F8834EB3D4F8880088B91C4B23B9D8F821
:104F6C00000000F038F8F0E74FF48470FFF75AFABD
:104F7C000028F4D00023C0E94033C4F888006368EB
:104F8C0040F8239001229A4000EB8301D0F80031C5
:104F9C001343C0F80031022EC1F8807002BFD0F864
:104FAC0004311343C0F804316368D8F800005A1C6C
:104FBC000233626044F8235000F00EF80020C6E77C
:104FCC00E8E703205CE703200000000031440B00FD
:104FDC00A4E6032070477047704700001D400B008B
:104FEC0059400B0081400B0085400B000000000075
:104FFC00666C616D652073656E736F723A256920FE
:10500C004449474954414C3A25690A0000000000C4
:10501C0000000000F7440B00ED440B00E3440B00D0
:10502C00D9440B00CD440B00C1440B00D1460B00FE
:10503C00D9460B00B5440B00AD440B00A3440B0048
:10504C0099440B0009470B00000000000000000011
:10505C0015450B005F450B0037450B0017450B0042
:10506C003F450B0047450B004F450B0057450B00C8
:10507C000000000000000000A1450B0091450B0052
:10508C0093450B00617070000000000000000000F0
:10509C0091460B009B460B00A5460B00AF460B0040
:1050AC00B9460B00C5460B00D1460B00D9460B0088
:1050BC00E1460B00ED460B00F5460B00FF460B00DE
:1050CC0009470B0025592D256D2D25645425483A8B
:1050DC00254D3A2553257A0061736374696D65001B
:1050EC00000000000000000059490B00C5490B00EE
:1050FC009D490B00F5470B006D490B0089490B00CE
:10510C007B490B0097490B005B490B005F490B0077
:10511C000000000000000000034A0B006B4A0B006B
:10512C00414A0B00F5470B00334A0B00054A0B00B4
:10513C00154A0B00654A0B00254A0B00FD490B0074
:10514C0000000000000000005B4B0B00514B0B00FB
:10515C00474B0B00FD4A0B003B4B0B002F4B0B003E
:10516C00D1460B00D9460B00234B0B001B4B0B00FD
:10517C00114B0B00074B0B0009470B000052454528
:10518C004E54206D616C6C6F632073756363656541
:10519C00646564002F746D702F6A656E6B696E7335
:1051AC002D4743432D31302D706970656C696E65E8
:1051BC002D34385F32303230313132345F31363069
:1051CC00363138303633392F7372632F6E65776C06
:1051DC0069622F6E65776C69622F6C6962632F73DD
:1051EC0074646C69622F72616E642E63000000003F
:1051FC0001410B0089440B0001450B0081460B005B
:10520C00E1470B0001490B0021490B0045490B00FC
:04521C00654B0B00D3
:04522000000000008A
:10522400E4500B0044E603200000000000000000EE
:10523400000000000000000000000000000000006A
:10524400000000000000000000000000000000005A
:10525400000000000000000000000000000000004A
:10526400000000000000000000000000000000003A
:10527400000000000000000000000000000000002A
:0C5284000000000000000000ECE7032028
:10529000FFFFFFFF00000102030405060708090ADB
:1052A0000B0C0D0E0F101112131415161718191AD6
:0852B0001B1C1D1E1F2028001D
:0452B80078563412DE
:04000003B000401CED
:00000001FF
