:02000002B0004C
:1040000000400B0088530B00000006000C00050266
:084010000401810C0000000016
:04401800A8500B00A1
:10401C0009480A49884208B505D0094A824202D0AB
:10402C00121A00F089FF0748074A0021121A00F003
:10403C0091FF014808BD00BF30E60320F4520B008D
:10404C009CE603209CE60320EDE7032070B5074EA9
:10405C00074C00F02FFEA41BA4080025AC4200D195
:10406C0070BD56F8043B98470135F7E7C0520B007A
:10407C00E4520B0000F021B808B500F029F8BDE8B7
:10408C00084000F0CFBD00F0FFB900F005BA007891
:10409C00B0FA80F0400970470123037070470EB4EA
:1040AC0003B503AB002153F8042B019300F02BFC58
:1040BC0002B05DF804EB03B0704708B500210F2087
:1040CC0000F068FEBDE8084001210E2000F062BE41
:1040DC0073B50F2000F06FFE124E134C30600023AE
:1040EC000093C322FF23782100F0F6F9206000F042
:1040FC003FF80E4D0E4B18602B68C01AB0F5FA6FD6
:10410C0009DD00F009FD236832680A49FFF7C7FF93
:10411C0000F02EF8286021680E2002B0BDE8704037
:10412C0000F060BEACE60320B4E60320B0E603204A
:10413C00A8E60320BC500B00044B0022C3E900226C
:10414C00A2F580329A60022000F01AB99CE6032096
:10415C0008B5024B1B685B6C019308BD4802030059
:10416C0008B5024B1B685B68019308BD180203007D
:10417C0008B5024B1B685B69019308BD180203006C
:10418C0008B5024B1B685B68019308BD2C02030049
:10419C0008B5024B1B689B68019308BD2C020300F9
:1041AC0008B5024B1B68DB68019308BD2C020300A9
:1041BC0008B5024B1B689B6A019308BD2C020300D7
:1041CC0008B5024B1B681B6B019308BD2C02030046
:1041DC0008B5024B1B689B6F019308BD2C020300B2
:1041EC0008B5024B1B681B6A019308BD280203002B
:1041FC0008B5024B1B685B6A019308BD28020300DB
:10420C0008B5024B1B689B6A019308BD280203008A
:10421C0008B5024B1B68DB6A019308BD280203003A
:10422C0008B5024B1B681B6B019308BD28020300E9
:10423C0008B5024B1B685B6B019308BD2802030099
:10424C0008B5024B1B681B6C019308BD28020300C8
:10425C0008B5024B1B685B69019308BD640203003F
:10426C0008B5024B1B689B68019308BD68020300EC
:10427C0008B5024B1B68DB68019308BD680203009C
:10428C0008B5024B1B68DB69019308BD30020300C3
:10429C0008B5024B1B681B6A019308BD3002030072
:1042AC0008B5024B1B68DB68019308BD3C02030098
:1042BC0008B5024B1B681B69019308BD3C02030047
:1042CC0008B5024B1B685B69019308BD3C020300F7
:1042DC0008B5024B1B689B69019308BD3C020300A7
:1042EC0008B5024B1B68DB69019308BD3C02030057
:1042FC0008B5024B1B681B6A019308BD3C02030006
:10430C0008B5024B1B689B6A019308BD3C02030075
:10431C0008B5024B1B681B6C019308BD3C020300E3
:10432C0008B5024B1B681B68019308BD4C020300C7
:10433C0008B5024B1B681B69019308BD4C020300B6
:10434C0008B5024B1B685B69019308BD4C02030066
:10435C0008B5024B1B689B69019308BD4C02030016
:10436C0008B5024B1B68DB69019308BD4C020300C6
:10437C0008B5024B1B681B6A019308BD4C02030075
:10438C0008B5024B1B685B68019308BD2002030053
:10439C0008B5034B1B68D3F88830019308BD0000A7
:1043AC002002030008B5034B1B68D3F8943001932B
:1043BC0008BD00002002030008B5024B1B68DB6B34
:1043CC00019308BD4402030008B5024B1B685B68EF
:1043DC00019308BD4002030008B5024B1B689B68A3
:1043EC00019308BD4002030008B5024B1B68DB6853
:1043FC00019308BD4002030008B5024B1B681B6902
:10440C00019308BD4002030008B5024B1B685B69B1
:10441C00019308BD4002030008B5024B1B689B6961
:10442C00019308BD4002030008B5024B1B68DB6911
:10443C00019308BD4002030008B5024B1B681B6AC0
:10444C00019308BD4002030008B5024B1B681B6BAF
:10445C00019308BD4002030008B5024B1B685B6B5F
:10446C00019308BD4002030008B5024B1B681B6C8E
:10447C00019308BD4002030008B5024B1B685B6C3E
:10448C00019308BD4002030008B5024B1B681B6872
:10449C00019308BD1C02030008B5024B1B685B6846
:1044AC00019308BD1C02030008B5024B1B685B6A34
:1044BC00019308BD1C02030008B5024B1B681B6C62
:1044CC00019308BD1C02030008B5024B1B685B6C12
:1044DC00019308BD1C0203008A4210B507D0441A90
:1044EC000298C01A4443501A94FBF0F0184410BDC3
:1044FC00024800230360FFF72BBE00BFB8E6032081
:10450C00002240681146FFF797BF00224068114611
:10451C00FFF7A2BF40680022FFF796BF4068002259
:10452C0081F00101FFF780BF002340681A4619464D
:10453C00FFF772BF002340681A461946FFF764BFA5
:10454C00002240681146FFF757BF00224068114611
:10455C00FFF742BF406800220221FFF745BF00234E
:10456C0040681A46FFF730BF024B03225A60024ADA
:10457C001A607047BCE60320E4500B007047F8B596
:10458C00064615460C468F18BC4206D0336814F804
:10459C00011B9B6830469847F6E72846F8BD007C1F
:1045AC000022FFF71DBE007C0021FFF721BE007C1E
:1045BC000021FFF725BE007C0021FFF729BE007CFF
:1045CC000021FFF72DBE10B514210446FFF75DFD49
:1045DC00204610BD10B54FF47A73044608460021EE
:1045EC00C4E90113034B236020741146FFF728FE26
:1045FC00204610BD20510B00704710B51821044601
:10460C00FFF743FD204610BDF0B5037D062B8DB0A2
:10461C000E4600F104074FF0000412D000F108051B
:10462C0015F8011D0A22304600F04FF9AF42044440
:10463C0019D0002CF4D02E21304600F037F9044468
:10464C00EEE72F236A4639460A208DF80040FFF723
:10465C00FFFD684600F0B4FC33680246DB6869462F
:10466C0030469847044620460DB0F0BD10B5054BBA
:10467C000446112240F8043B002100F06BFC20465C
:10468C0010BD00BF48510B000346074A10B543F854
:10469C00042B01F1100251F8044B43F8044B9142E6
:1046AC00F9D10A781A7010BD48510B0010B59DF85D
:1046BC00084044EA032343EA024242EA016104232C
:1046CC004160037510BD000007B5064B0360CB7845
:1046DC0000938B784A780978FFF7E8FF03B05DF810
:1046EC0004FB00BF48510B00014B024A1A60704793
:1046FC00C4E6032054510B00002340681A46FFF710
:10470C0063BE406800220221FFF76EBE00224068A3
:10471C001146FFF761BE002240681146FFF76CBEE0
:10472C00002340681A461946FFF76EBE0023406806
:10473C001A461946FFF770BE40680021FFF794BE79
:10474C0040680021FFF798BE4068002281F001010B
:10475C00FFF76ABE40680022FFF776BE0022406871
:10476C001146FFF779BE002240681146FFF764BE80
:10477C002DE9F04395B014460D460746FFF776FF3A
:10478C0000211C220DA8009100F0E4FB40230C93A7
:10479C0020466B460CAA0021FFF76AFD0446002850
:1047AC004BD1024601216868FFF726FE02218046A4
:1047BC0022466868FFF720FE009E81462146002EA7
:1047CC003BD0002939D17368022B03D00A2B11D0AE
:1047DC00F669F4E7B8F1000FFAD0716906A8043154
:1047EC0007ADFFF771FF0FCD3C1D0FC42B68237075
:1047FC004146EDE7B9F1000FEAD07469102201A827
:10480C0000F0A8FB06238DF8143001AD04F1080369
:10481C001834186859682A4603C20833A34215464F
:10482C00F7D101A906A807ADFFF72EFF0FCD3C1D50
:10483C000FC42B6823704946CAE70098FFF710FD98
:10484C00384615B0BDE8F083024B034A1A600022CB
:10485C005A607047C8E6032060510B00F8B5064655
:10486C000D468F180024BD420CD0336815F8011B7F
:10487C009B6830469847031E01DB1C44F3E7002C71
:10488C0008BF1C462046F8BD13B50446084659B16E
:10489C00019100F095FB23680199DB6802462046E4
:1048AC0002B0BDE81040184702B010BD03689B6809
:1048BC00184738B50D210546FFF7F8FF0A210446C5
:1048CC002846FFF7F3FF204438BD30B58BB00023EA
:1048DC00012A8DF8243098BF0A2209AC0D46B1FB91
:1048EC00F2F101FB125303F0FF03092B94BF303399
:1048FC003733DBB2AA4204F8013DEFD92146FFF76A
:10490C00C3FF0BB030BD2DE9F04186B000AF0546BA
:10491C000E46381D142114463B60FFF7C5FD1328C5
:10492C000ED8391D2846FFF7AFFF04461EB12846A6
:10493C00FFF7BFFF044420461837BD46BDE8F081A1
:10494C0000F1080323F00703E846ADEB030D224604
:10495C00411C3B686846FFF7A7FD69462846FFF7F0
:10496C0093FF0446C546E1E7014B00229A6070476D
:10497C00D0E6032010B5044608462170FFF780FCF2
:10498C0000236360204610BD054B02221A60054BC4
:10499C00054A9A600020C3E90000FFF7F1BC00BF94
:1049AC00ECE60320E0E603200000FFFF024B1A6850
:1049BC00024B1A60704700BF30E60320F0E603207C
:1049CC0070474174704708B5007CFFF799FC20EAEA
:1049DC00E07008BD08B5007CFFF76AFC20EAE070C7
:1049EC0008BD08B5007CFFF773FC40EAE07008BD19
:1049FC0008B5007CFFF764FC40EAE07008BD007C61
:104A0C00FFF76EBC37B5457C04462DB1207C03B056
:104A1C00BDE83040FFF744BC007C0191FFF770FC0F
:104A2C0000280199F2DC284603B030BD10B51421E2
:104A3C000446FFF72AFB204610BD000010B54FF4CA
:104A4C007A730446084611460022C4E90123044B3C
:104A5C002360012320746374FFF75AFC204610BDB9
:104A6C00B8510B00417470477047704708B500216E
:104A7C00007CFFF76DFC40EAE07008BD08B5012131
:104A8C00007CFFF765FC40EAE07008BD08B5007CCF
:104A9C00FFF756FC20EAE07008BD08B5007CFFF774
:104AAC0047FC20EAE07008BD13B50446007C019178
:104ABC00FFF746FC0028019901DC607C20B1207CCA
:104ACC00FFF74EFC20EAE07002B010BD007CFFF74F
:104ADC004FBC10B514210446FFF7D7FA204610BD81
:104AEC0010B54FF47A73044608460021C4E901134B
:104AFC00044B23600123207463741146FFF710FCF0
:104B0C00204610BDE8510B0010B5142204460021BC
:104B1C0000F020FA204610BD10B50F4C88B003A849
:104B2C00FFF7F2FF2178BFF35B8F11F001010FD17A
:104B3C0020460191FFF7ABFA019948B103AA074847
:104B4C00FFF7CEFF2046FFF7A7FA054800F0EEF975
:104B5C00024808B010BD00BFF4E60320F8E60320BD
:104B6C00754A0B00002240681146FFF745BC002235
:104B7C0040681146FFF760BC002240681146FFF701
:104B8C006BBC40680022FFF75FBC4068002281F0DC
:104B9C000101FFF749BC002340681A461946FFF78C
:104BAC003BBC002340681A461946FFF72DBC002277
:104BBC0040681146FFF710BC406800220221FFF745
:104BCC0013BC002340681A46FFF7FEBB024B0422BD
:104BDC005A60024A1A6070470CE7032018520B0007
:104BEC00014B1860704700BF34E6032008B50B4B2F
:104BFC0043B1FFF791FF03681B699847002801DD5B
:104C0C00AFF30080064B43B100F06AF903681B69EF
:104C1C009847002801DDAFF3008008BD00000000BC
:104C2C000000000008B5FFF7E1FFFFF7A1FA014B08
:104C3C00186008BD28E703200548064A064908B550
:104C4C00121A00F079F9054B054A1A6008BD00BF2D
:104C5C0000F4032004F40320F0520B0000F40320B2
:104C6C001E1C279A07B5002300931A466FF0770194
:104C7C00FFF798FB03B05DF804FB000007B5438811
:104C8C000A2B08D0502B0BD1094B1B684BB103B02E
:104C9C005DF804EB1847FFF7E5FF03B05DF804FB84
:104CAC00002300931A466FF07701FFF77BFBF4E7C4
:104CBC0018E7032010B512480021FFF705FC114B33
:104CCC001A68114B9A42114B0CBF012200221A7028
:104CDC0001D0FFF7B1FFFFF743FA044600F042F9A9
:104CEC000B4B13B12046AFF3008000210848FFF7AF
:104CFC0063FBBDE8104007480021FFF749BB00BF2C
:104D0C00ED4B0B0000F403201E1C279A14E7032024
:104D1C0000000000894C0B00232813B502D9002099
:104D2C0002B010BDA0F10B03022B1AD8174C21783E
:104D3C00BFF35B8F11F001010BD120460191FFF7FE
:104D4C00A6F9019928B11248FFF714FE2046FFF787
:104D5C00A3F90F4B1878FFF79BFA0028DFD101203D
:104D6C00DEE7012809D800F07BF80021007CFFF772
:104D7C005FFA80F00100C0B2D2E709380128EED802
:104D8C0000F0AEF8007CFFF7B3FAF2E71CE7032063
:104D9C0020E70320232838B504460D460AD8FF29FE
:104DAC0008D0FFF7B9FF28B129462046BDE83840A6
:104DBC00FFF7EEB938BD0D2810B504469CBF0E3474
:104DCC00A4B22046FFF7A8FF50B103212046FFF7FD
:104DDC00D7F9032804D12046BDE81040FFF7F0B9FD
:104DEC00002010BD38B504460D46FFF795FFF0B115
:104DFC0004212046FFF7C4F9042805D1A9B22046A6
:104E0C00BDE83840FFF7D4B902212046FFF7B8F9C6
:104E1C0002280CD12046FFF7C3F9012801D0042841
:104E2C0005D129462046BDE83840FFF7D1B938BD39
:104E3C007047000038B520251423044603608560B4
:104E4C0005610649284600F06FF804496060284661
:104E5C0000F06AF8E060204638BD00BF4C520B00F1
:104E6C0030B50E4D2978BFF35B8F11F0010487B07C
:104E7C0011D12846FFF70BF968B101A8FFF7DAFF4B
:104E8C0001AA21460648FFF7A5FB2846FFF704F9BF
:104E9C00044800F04BF8024807B030BD2CE7032063
:104EAC0030E703203D4E0B007047000038B5044638
:104EBC0014252A46002100F04DF82580402507498D
:104ECC0025812846258200F02FF804496060284689
:104EDC0000F02AF8E060204638BD00BF4C520B00B1
:104EEC0030B50E4D2978BFF35B8F11F0010487B0FC
:104EFC0011D12846FFF7CBF868B101A8FFF7D6FF10
:104F0C0001AA21460648FFF799FD2846FFF7C4F889
:104F1C00044800F00BF8024807B030BD44E703200A
:104F2C0048E70320B54E0B00FFF7ADB80023014650
:104F3C001A46184600F04CB80A44914200F1FF336F
:104F4C0000D1704710B511F8014B03F8014F914295
:104F5C00F9D110BD02440346934200D1704703F8C7
:104F6C00011BF9E738B5104B1D68AB6B0446B3B9A0
:104F7C001820FFF789FA0246A86320B90B4B0C489E
:104F8C004221FFF799FA0B490B4BC0E900130B4B6D
:104F9C0083600B23838100210120C2E90401AB6BE8
:104FAC0000221C615A6138BD34E603204D520B00BF
:104FBC0064520B000E33CDAB34126DE6ECDE050003
:104FCC00034613F8012B002AFBD1181A013870473D
:104FDC002DE9F843DFF8B8800646D8F800001F46E4
:104FEC000D46914600F056F8254B1C6834B9254CFB
:104FFC001C60254B13B11B68C4F8883063681F2BE9
:10500C0007DDD8F8000000F047F84FF0FF30BDE89E
:10501C00F8834EB3D4F8880088B91C4B23B9D8F860
:10502C00000000F038F8F0E74FF48470FFF72CFA2A
:10503C000028F4D00023C0E94033C4F8880063682A
:10504C0040F8239001229A4000EB8301D0F8003104
:10505C001343C0F80031022EC1F8807002BFD0F8A3
:10506C0004311343C0F804316368D8F800005A1CAB
:10507C000233626044F8235000F00EF80020C6E7BB
:10508C00E8E703205CE703200000000095440B00D8
:10509C0098E6032070477047704700001D400B00D6
:1050AC0059400B0081400B0085400B0000000000B4
:1050BC0064696F64652053746174653A2569206373
:1050CC006F6E76657273696F6E3A25690A0000001F
:1050DC0000000000000000006B450B0061450B0058
:1050EC0057450B004D450B0041450B0035450B005A
:1050FC0045470B004D470B0029450B0021450B0084
:10510C0017450B000D450B007D470B000000000000
:10511C000000000089450B00D3450B00AB450B008C
:10512C008B450B00B3450B00BB450B00C3450B0077
:10513C00CB450B00000000000000000015460B00E2
:10514C0005460B0007460B00617070000000000064
:10515C000000000005470B000F470B0019470B0020
:10516C0023470B002D470B0039470B0045470B001D
:10517C004D470B0055470B0061470B0069470B006F
:10518C0073470B007D470B0025592D256D2D25648C
:10519C005425483A254D3A2553257A00617363749A
:1051AC00696D65000000000000000000CD490B0097
:1051BC00394A0B00114A0B0069480B00E1490B00FE
:1051CC00FD490B00EF490B000B4A0B00CF490B00BC
:1051DC00D3490B000000000000000000774A0B00D0
:1051EC00DF4A0B00B54A0B0069480B00A74A0B00BD
:1051FC00794A0B00894A0B00D94A0B00994A0B00DB
:10520C00714A0B000000000000000000CF4B0B00A7
:10521C00C54B0B00BB4B0B00714B0B00AF4B0B008A
:10522C00A34B0B0045470B004D470B00974B0B0056
:10523C008F4B0B00854B0B007B4B0B007D470B0002
:10524C00005245454E54206D616C6C6F6320737534
:10525C0063636565646564002F746D702F6A656E99
:10526C006B696E732D4743432D31302D706970651A
:10527C006C696E652D34385F3230323031313234F6
:10528C005F313630363138303633392F7372632F05
:10529C006E65776C69622F6E65776C69622F6C69CD
:1052AC0062632F7374646C69622F72616E642E6317
:1052BC000000000045410B00FD440B0075450B0040
:1052CC00F5460B0055480B0075490B0095490B0032
:1052DC00B9490B00D94B0B00000000000000000086
:0452EC0000000000BE
:0452F00000000000BA
:1052F400A8510B0038E60320000000000000000065
:105304000000000000000000000000000000000099
:105314000000000000000000000000000000000089
:105324000000000000000000000000000000000079
:105334000000000000000000000000000000000069
:105344000000000000000000000000000000000059
:0C5354000000000000000000ECE7032057
:10536000FFFFFFFF00000102030405060708090A0A
:105370000B0C0D0E0F101112131415161718191A05
:085380001B1C1D1E1F2028004C
:04538800785634120D
:04000003B000401CED
:00000001FF
