:02000002B0004C
:1040000000400B00EC990B00000006000C000502BC
:084010000401810C0000000016
:04401800248D0B00E8
:1040200009480A49884208B505D0094A824202D0A7
:10403000121A02F09EFE0748074A0021121A02F0E7
:10404000C0FE014808BD00BF54E30320E4970B0005
:1040500034E5032034E50320EDE7032070B5074E77
:10406000074C01F045FFA41BA4080025AC4200D179
:1040700070BD56F8043B98470135F7E7BC970B0035
:10408000E0970B0000F02EB808B500F0A7F8BDE8E7
:10409000084001F0E5BE00F0A5BF00F0A3BF00F0AE
:1040A000A9BF000008B5034A00210C2000F0FEFE65
:1040B000FEE700BFCD4B0B000078B0FA80F040095E
:1040C00070470123037070470EB403B503AB0021A2
:1040D00053F8042B019301F0FCF902B05DF804EBF6
:1040E00003B0704738B501F0F1FD4FF4165101F0FF
:1040F000E1FD0021112001F06BFF0021102001F0F3
:1041000067FF0021052001F063FF00210F2001F06F
:104110005FFF0F4C0F4D01210E2001F059FF0023CE
:1041200060681A46194600F0FDFE002260681146DC
:1041300000F000FF28B101F0C9FD2946FFF7C4FFD8
:10414000F3E7BDE838400449044800F075BA00BF01
:104150000CE7032044900B006CE6032098E5032055
:104160002DE9F041184800F07AFC58BB01F0AEFD93
:104170001649154EDFF86080154F01F06FF91248AF
:1041800000F0F5FB0446C0B101F0A0FD2146054654
:10419000304600F02FFA414602462846FFF794FFCA
:1041A00001F094FD3946FFF78FFF304600F030FAFA
:1041B00041F2883000F05AFFE1E701F087FD054940
:1041C000FFF782FFBDE8F08198E50320388D0B00F2
:1041D000538D0B007C8D0B004F8D0B0073B5FFF7DB
:1041E000BFFF00F0FBFC634C634B18602368C01AF0
:1041F00041F27073984211DD604800F0B6FC50B196
:104200005F4D6048296800F00EFC01F05FFD2A68F0
:104210005D49FFF759FF00F0E1FC2060574E5B4D10
:104220006421304600F023FA88B1A842F8D1681D15
:1042300002F088FD51EC100B02F018FD544C206088
:1042400001F044FD22685349FFF73EFFE8E700F024
:10425000C5FC514E514B18603368C01AB0F57A7FD7
:104260001DDD01F033FD4E4901F00BF94D4800F022
:1042700005F9044601F02AFD002C054678DA2D21C7
:1042800001F0F0F861420A22284601F004F901F039
:104290001DFD454901F0F5F800F0A0FC306000F08C
:1042A0009DFC424C424B18602368C01AB0F57A7FDF
:1042B00017DD112001F0B6FE3E4D40F2DB5398426F
:1042C000286004DC01F002FD3B49FFF7FDFE01F030
:1042D000FDFC2A6839490623FFF7F6FE00F07EFC54
:1042E000206000F07BFC364C364B18602368C01A07
:1042F000B0F5FA6F13DD102001F094FE324D334E0D
:104300002860052001F08EFE306001F0DFFC33688C
:104310002A682F49FFF7D8FE00F060FC20600F20CC
:1043200001F080FE2B4E2C4C306000230093C32202
:10433000FF23782100F08EFE206000F04FFC274D17
:10434000274B18602B68C01AB0F5FA6F09DD01F031
:10435000BDFC236832682349FFF7B6FE00F03EFC3F
:10436000286021680E2002B0BDE8704001F071BEE7
:10437000214688E77CE5032060E5032098E50320DB
:1043800054E30320A4E603208D8D0B006CE603208C
:1043900034E50320A08D0B0080E5032064E50320B5
:1043A000CE8D0B00B4E60320F68D0B0084E50320D0
:1043B00068E5032078E50320FA8D0B000A8E0B00D8
:1043C00088E503206CE5032090E5032094E50320B5
:1043D000268E0B0074E50320B0E603208CE5032055
:1043E00070E503204C8E0B0037B5174D1748184C5D
:1043F000112100F041F8284601F09AFB154B00937B
:104400001549164B40F25B72204600F06FF8144BD2
:1044100023602146134A1448C4F8D050002300F00A
:10442000FDFA124A12480023214600F00BFB114B03
:104430000022C3E900220220A2F580329A6003B074
:10444000BDE8304000F042BD44E50320B4E603205F
:1044500098E50320828E0B00728E0B006A8E0B0093
:1044600000910B00A38E0B00A4E60320B98E0B0075
:104470006CE6032038E503200160704710B5044660
:104480000121008801F0A4FD2088002101F0B1FD88
:10449000022000F09BFB2088012101F0AAFD0520ED
:1044A00000F094FB2088002101F0A3FD208800216A
:1044B00001F08EFD2088012101F0F1FD3A2390FBEF
:1044C000F3F010BD13B504460846019102F0C2FC9A
:1044D000C0F3072323706070A31C84B201992246A5
:1044E000184602F0F5FC204402B010BD30B5028140
:1044F0000A4A0B4DC0E90323039B43610023C0E933
:104500000051C0E92F33C0E93133C0E90633C0F8A8
:10451000CC300384A0F8B83030BD00BFCD8D0B0087
:10452000B4900B002DE9F74F164602681BB297694D
:104530000193012205460C46B847C7B2012F019BE3
:1045400003D0002003B0BDE8F08F04F1010804F1AE
:10455000050A4FF000092A680193D2F818B04146C5
:1045600001222846D847C0B20128EAD118F8012B09
:1045700002F07F01C24501FB07994FEAC717E0D05F
:1045800012F0800F019BE6D1A8EB0404A7B2341B04
:104590002A68013C4C45D2F818A03DBF06F1FF3215
:1045A000D21B92B21FFA89F241462846D047C0B2C8
:1045B000384480B2C6E700002DE9F041DFF83080D2
:1045C00005460C4616461F463B469622214628467F
:1045D000FFF7A8FF48B12378B6EB131F05D001F011
:1045E00075FB414600F04DFFEEE7BDE8F08100BFEE
:1045F000CE8E0B000231C9B209299ABF024B53F883
:1046000021000248704700BFD0900B00DF8E0B00E6
:1046100010B5E02380F822300146002380F82330D3
:1046200051F8223B04465B690222984723682046E2
:104630001B69BDE81040184700F1BC0230B51346B5
:1046400000F1D00453F8045B8D4209D0A342F9D1A4
:10465000002352F8044B2CB900EB8300C0F8BC10C7
:10466000012003E00133052BF3D1002030BD2DE9FB
:10467000F04F00F122098BB285B0962249460546DB
:10468000FFF750FF0646F0B195F82570009705F149
:10469000BC0A4FF0000805F1260B5AF8044B6CB128
:1046A00021680191084602F0D5FBB84206D1019974
:1046B0003A46584602F0D6FB002848D008F10108D7
:1046C000B8F1050FE9D100203EE0EA1992F8260082
:1046D00092F827A04AEA002A14220021601D02F065
:1046E00070FB009BC3F57F44FC34264405EB88082F
:1046F000A6EB0B06B6B2152ED8F8BC0007F10401E4
:1047000028BF1326594432464944053002F03FFB86
:10471000D8F8BC305E8395F8223003F00603022BF4
:1047200010D18DF80D304FEA1A238DF80E302B681A
:104730008DF80FA040228DF80C205B69042203A99C
:1047400028469847D8F8BC0005B0BDE8F08F95F82A
:1047500022B00BF0060BBBF1020FB6D082468346A7
:10476000BAE7000038B505460846102300F8023BBA
:104770000C462949FFF7A6FE042303700223437069
:10478000AB698BB11B787BB10623437095F8203061
:10479000012B39D10E23437095F82130012B02BF34
:1047A000437843F0200343702B691B781BB1437897
:1047B00063F07F0343706B691B781BB1437843F050
:1047C00040034370012383702C23C370E9680B7886
:1047D000F3B10430FFF776FEA96931B10B7823B14C
:1047E000FFF770FEE969FFF76DFE29690B780BB1E1
:1047F000FFF768FE69690B780BB1FFF763FE001BDA
:10480000C0B2831E637038BD022BC5D11E23C2E720
:10481000037143710630DFE7ED8E0B002DE9F7439E
:10482000054610460E469846019202F013FB9DF88D
:104830002C90BDF82870019984B2B9F1000F35D1E0
:1048400002344FEA49033046A4B243F030033C44FB
:1048500000F8013BA4B2224604F07F037F2A88BF00
:1048600043F080037F2A00F8013B4FEAD414F2D8CA
:10487000FFF728FE0346B9F1000F0CD0B5F8B820B9
:10488000120A0270B5F8B8204270B5F8B8200132AB
:104890000233A5F8B8203A464146184602F077FAA6
:1048A0003844801B80B203B0BDE8F0830434C8E70D
:1048B00073B59DF8186000F122050446CDE9003675
:1048C00013460A462946FFF7A9FF236802465B699B
:1048D00029462046984710B9002002B070BD002E2E
:1048E000FBD04FF4FA73962229462046FFF71AFEB2
:1048F0000428F1D194F822301B09042BECD1A38CAD
:10490000B4F8B8005BBA01339BB2C31A584258419D
:10491000E3E730B585B0044610461D460391029288
:1049200002F098FADDE9022183B200952046FFF7F4
:10493000BFFF05B030BD38B51D4682230B70B0F8FF
:10494000B8301B0A8B70B0F8B830CB70B0F8B83004
:104950000C460133A0F8B8301146201DFFF7B2FD18
:1049600000F8015B001BC0B2831E637038BD2DE9E7
:10497000F0410368DB680446984700284BD004F1F7
:10498000220529462046FFF7EDFE236882B25B69C7
:1049900029462046984700283DD041F27073962260
:1049A00029462046FFF7BEFDC0B2042833D1638CF0
:1049B000B3F5087F2FD194F8250010B140B2BDE8BF
:1049C000F08104F1BC0704F1D00857F8043BF3B1BF
:1049D000032657F8042C2946137912682046FFF75E
:1049E000AAFF236882B25B6929462046984790B1A6
:1049F0004FF4FA73092229462046FFF7DDFD30B94E
:104A0000013E16F0FF06E4D16FF00100D7E7B8458C
:104A1000DBD10020D3E74FF0FF30D0E710B5C0E97D
:104A20000012037210BD1FB504460A22084601A9F0
:104A300001F0B0F9D4E90001237A01AAFFF769FF78
:104A400004B010BD10B503710023C0E90833C0E9FC
:104A50000A33416302604383C361036310BD08B539
:104A6000D0F8D00003681B6B9847003818BF0120AE
:104A700008BDF8B506460F461446C4B1D6F8D000B6
:104A800003681B6B984708B90020F8BDD6F8D00022
:104A9000FA2C03682546A8BFFA25DB682A46394662
:104AA000984783B2E41A9D42A4B2E6D0ECE7012015
:104AB000EBE770472DE9F8430646884691461F46C6
:104AC0001D460024D6F8D00003681B6B9847D0B170
:104AD000002D18DBD6F8D00003681B69984760B139
:104AE000D6F8D00003685B69984708F804000134E1
:104AF000A4B24C4507D03D46ECE70A3D0A202DB252
:104B000000F0B4FADEE72046BDE8F88370B504464D
:104B100000F1220596220021284602F052F9616830
:104B2000284602F08FF9D4F8D0002289036829467C
:104B30005E6A0023B047003818BF012070BD10B571
:104B4000D4210446FFF7ABFA204610BD10B5044649
:104B5000D0F8D00003681B6B984720B1D4F8D00080
:104B60000368DB6A9847012010BD70B503689B6835
:104B700004469847C8B92046FFF7F9FE042570B1EE
:104B8000013D15F0FF050AD02046FFF741FD41F237
:104B9000883000F06BFA2046FFF7E9FEEFE7236864
:104BA00020469B68BDE87040184770BD08B5024BB1
:104BB0001B685B6C019308BD4802030008B5024BFB
:104BC0001B685B68019308BD1802030008B5024B1F
:104BD0001B68DB68019308BD1802030008B5024B8F
:104BE0001B685B69019308BD1802030008B5024BFE
:104BF0001B685B68019308BD2C02030008B5024BDB
:104C00001B689B68019308BD2C02030008B5024B8A
:104C10001B68DB68019308BD2C02030008B5024B3A
:104C20001B681B69019308BD2C02030008B5024BE9
:104C30001B689B6A019308BD2C02030008B5024B58
:104C40001B681B6B019308BD2C02030008B5024BC7
:104C50001B68DB6C019308BD2C02030008B5024BF6
:104C60001B689B6F019308BD2C02030008B5024B23
:104C70001B681B6A019308BD2802030008B5024B9C
:104C80001B685B6A019308BD2802030008B5024B4C
:104C90001B689B6A019308BD2802030008B5024BFC
:104CA0001B68DB6A019308BD2802030008B5024BAC
:104CB0001B681B6B019308BD2802030008B5024B5B
:104CC0001B685B6B019308BD2802030008B5024B0B
:104CD0001B681B6C019308BD2802030008B5024B3A
:104CE0001B685B69019308BD6C02030008B5024BA9
:104CF0001B685B69019308BD6402030008B5024BA1
:104D00001B681B6A019308BD6402030008B5024BCF
:104D10001B689B6A019308BD6402030008B5024B3F
:104D20001B689B68019308BD6802030008B5024B2D
:104D30001B68DB68019308BD6802030008B5024BDD
:104D40001B689B69019308BD3802030008B5024B3C
:104D50001B68DB69019308BD3802030008B5024BEC
:104D60001B681B6A019308BD3802030008B5024B9B
:104D70001B689B6A019308BD3802030008B5024B0B
:104D80001B681B6B019308BD3802030008B5024B7A
:104D90001B689B6B019308BD3802030008B5024BEA
:104DA0001B68DB69019308BD3002030008B5024BA4
:104DB0001B681B6A019308BD3002030008B5024B53
:104DC0001B68DB68019308BD3C02030008B5024B79
:104DD0001B681B69019308BD3C02030008B5024B28
:104DE0001B685B69019308BD3C02030008B5024BD8
:104DF0001B689B69019308BD3C02030008B5024B88
:104E00001B68DB69019308BD3C02030008B5024B37
:104E10001B681B6A019308BD3C02030008B5024BE6
:104E20001B689B6A019308BD3C02030008B5024B56
:104E30001B681B6C019308BD3C02030008B5024BC4
:104E40001B681B68019308BD4C02030008B5024BA8
:104E50001B685B68019308BD4C02030008B5024B58
:104E60001B681B69019308BD4C02030008B5024B87
:104E70001B685B69019308BD4C02030008B5024B37
:104E80001B689B69019308BD4C02030008B5024BE7
:104E90001B68DB69019308BD4C02030008B5024B97
:104EA0001B681B6A019308BD4C02030008B5024B46
:104EB0001B685B6B019308BD6002030008B5024BE1
:104EC0001B681B6D019308BD6002030008B5024B0F
:104ED0001B685B68019308BD2002030008B5024B04
:104EE0001B685B69019308BD2002030008B5034BF2
:104EF0001B68D3F88830019308BD0000200203002E
:104F000008B5034B1B68D3F89430019308BD00002B
:104F10002002030008B5024B1B68DB6B019308BD40
:104F20004402030008B5024B1B685B68019308BD8F
:104F30004002030008B5024B1B689B68019308BD43
:104F40004002030008B5024B1B68DB68019308BDF3
:104F50004002030008B5024B1B681B69019308BDA2
:104F60004002030008B5024B1B685B69019308BD52
:104F70004002030008B5024B1B689B69019308BD02
:104F80004002030008B5024B1B68DB69019308BDB2
:104F90004002030008B5024B1B681B6A019308BD61
:104FA0004002030008B5024B1B681B6B019308BD50
:104FB0004002030008B5024B1B685B6B019308BD00
:104FC0004002030008B5024B1B681B6C019308BD2F
:104FD0004002030008B5024B1B685B6C019308BDDF
:104FE0004002030008B5024B1B681B68019308BD13
:104FF0001C02030008B5024B1B685B68019308BDE7
:105000001C02030008B5024B1B685B6A019308BDD4
:105010001C02030008B5024B1B681B6B019308BD03
:105020001C02030008B5024B1B68DB6B019308BD33
:105030001C02030008B5024B1B681B6C019308BDE2
:105040001C02030008B5024B1B685B6C019308BD92
:105050001C0203008A4210B507D0441A0298C01AF5
:105060004443501A94FBF0F0184410BD0021FFF7A0
:1050700035BF0000024800230360FFF797BD00BF63
:10508000B8E60320002240681146FFF783BF0022E4
:1050900040681146FFF78EBF40680022FFF782BFCD
:1050A0004068002281F00101FFF76CBF00234068D7
:1050B0001A461946FFF75EBF002340681A46194694
:1050C000FFF750BF002240681146FFF743BF0022A0
:1050D00040681146FFF72EBF406800220221FFF70B
:1050E00031BF002340681A46FFF71CBF024B032262
:1050F0005A60024A1A607047BCE603202C910B00EC
:105100007047F8B5064615460C468F18BC4206D0C7
:10511000336814F8011B9B6830469847F6E7284629
:10512000F8BD007C0022FFF7A1BD007C0021FFF745
:10513000A5BD007C0021FFF7A9BD007C0021FFF781
:10514000ADBD007C0021FFF7B1BD10B514210446B0
:10515000FEF7A5FF204610BD10B54FF47A73044644
:1051600008460021C4E90113034B23602074114653
:10517000FFF7ACFD204610BD68910B00704710B5DD
:1051800018210446FEF78BFF204610BDF0B5037DC5
:10519000062B8DB00E4600F104074FF0000412D02C
:1051A00000F1080515F8011D0A22304600F073F9D8
:1051B000AF42044419D0002CF4D02E21304600F028
:1051C00051F90444EEE72F236A4639460A208DF848
:1051D0000040FFF78BFD684601F03CFE3368024655
:1051E000DB68694630469847044620460DB0F0BD5E
:1051F00010B5054B0446112240F8043B002101F094
:10520000E0FD204610BD00BF90910B000346074A09
:1052100010B543F8042B01F1100251F8044B43F888
:10522000044B9142F9D10A781A7010BD90910B008D
:10523000037D042B04D14068003818BF012070475B
:10524000062B07D143683BB983682BB9C3681BB9E8
:105250000069F1E7002070470120704710B59DF804
:10526000084044EA032343EA024242EA016104237C
:105270004160037510BD000007B5064B0360CB7895
:1052800000938B784A780978FFF7E8FF03B05DF860
:1052900004FB00BF90910B00014B024A1A6070475B
:1052A000C4E603209C910B00002340681A46FFF7D8
:1052B00039BE406800220221FFF744BE0022406848
:1052C0001146FFF737BE002240681146FFF742BE85
:1052D000002340681A461946FFF744BE0023406881
:1052E0001A461946FFF746BE40680021FFF76ABE1E
:1052F00040680021FFF76EBE4068002281F0010186
:10530000FFF740BE40680022FFF74CBE0022406815
:105310001146FFF74FBE002240681146FFF73ABE24
:105320002DE9F04395B014460D460746FFF760FFA0
:1053300000211C220DA8009101F043FD40230C9395
:1053400020466B460CAA0021FFF7F0FC044600281B
:105350004BD1024601216868FFF7FCFD022180461F
:1053600022466868FFF7F6FD009E81462146002E22
:105370003BD0002939D17368022B03D00A2B11D0FE
:10538000F669F4E7B8F1000FFAD0716906A80431A4
:1053900007ADFFF771FF0FCD3C1D0FC42B682370C5
:1053A0004146EDE7B9F1000FEAD07469102201A877
:1053B00001F007FD06238DF8143001AD04F1080358
:1053C0001834186859682A4603C20833A3421546A0
:1053D000F7D101A906A807ADFFF718FF0FCD3C1DB7
:1053E0000FC42B6823704946CAE70098FFF796FC64
:1053F000384615B0BDE8F083024B034A1A6000221C
:105400005A607047C8E60320A8910B00F8B506461D
:105410000D468F180024BD420CD0336815F8011BCF
:105420009B6830469847031E01DB1C44F3E7002CC1
:1054300008BF1C462046F8BD13B50446084659B1BE
:10544000019101F007FD23680199DB6802462046BF
:1054500002B0BDE81040184702B010BD08B5FFF714
:10546000EBFF08BD03689B68184738B50D2105465A
:10547000FFF7F8FF0A2104462846FFF7F3FF204410
:1054800038BD38B50546FFF7D7FF04462846FFF775
:10549000ECFF204438BD30B58BB00023012A8DF8D5
:1054A000243098BF0A2209AC0D46B1FBF2F101FB92
:1054B000125303F0FF03092B94BF30333733DBB2B1
:1054C000AA4204F8013DEFD92146FFF7B5FF0BB022
:1054D00030BD2DE9F04186B000AF05460E46381DBF
:1054E000142114463B60FFF78DFD13280ED8391D9B
:1054F0002846FFF7A1FF04461EB12846FFF7B5FF77
:10550000044420461837BD46BDE8F08100F1080389
:1055100023F00703E846ADEB030D2246411C3B6830
:105520006846FFF76FFD69462846FFF785FF04468A
:10553000C546E1E7014B00229A607047D0E60320A0
:1055400010B5044608462170FFF728FC002363606D
:10555000204610BD054B02221A60054B054A9A6091
:105560000020C3E90000FFF7B1BC00BFECE6032058
:10557000E0E603200000FFFF13B503688DF8071075
:10558000DC6B01224FF0FF330DF10701A04702B0A1
:1055900010BD10B40368DC6B4FF0FF33A4465DF818
:1055A000044B604713B5134602688DF80710D46B9F
:1055B0000DF107010122A04702B010BD10B54369EB
:1055C000B3F88620B3F884309A42044608D0636961
:1055D000B3F88420511CA3F884101344187910BD2B
:1055E00003681B6998470028F1D14FF0FF30F6E7B8
:1055F000704743691868C043C00F70477047000088
:10560000064B994210B500F10C0405D0084600F095
:10561000C5FD002808BF0024204610BD1C910B00CA
:1056200010B5AC210446FEF73AFD204610BDAC2172
:10563000FEF735BD2DE9F0414FF0000886B01C465D
:10564000C0F8048005460E4617464146102202A8BF
:1056500001F0B7FB631C09D04FF47A73B4FBF3F28B
:1056600003FB1244CDE902285C43049468691023CB
:105670000093006802AB41F2050240F6FF71FFF7AC
:105680005DFB002807DAFFF7CDFC03686B600020A4
:1056900006B0BDE8F0816869002300683A463146EB
:1056A000FFF76CFB031EEEDB1846F1E738B58469A3
:1056B0000A4B036005467CB16368013B63605BB9DC
:1056C000236820469B689847A368013BA3601BB9E9
:1056D00023682046DB689847284638BD18920B009F
:1056E00010B50446FFF7E2FF20461C21FEF7D7FC69
:1056F000204610BD30B587B0044601AD6846FFF7BF
:10570000BBFD0FCD04340FC42B68237007B030BD30
:1057100070B54D69054B04468C3544F8043B06468C
:105720000FCD0FC42B682370304670BD90910B00D5
:105730002DE9F0439846036893B00D460024DB6AD8
:1057400006461746984728466B462246214600944F
:10575000FFF7ECFA0546002863D1009B002B4BD0E5
:105760005B69002B48D006A8FFF742FD009B5C69EF
:105770006378022B04D1211D06A8FFF7BBFF26E0AA
:105780000A2B24D11122294601A801F01AFBA36893
:10579000002B38D004F108030DF1040C18341868FC
:1057A0005968624603C20833A3429446F7D10623E0
:1057B00001A90CA88DF81430FFF728FD0DF1340C69
:1057C000BCE80F0007AC0FC4DCF80030237006A85B
:1057D000FFF72EFD80B1336807ADD3F82090124B50
:1057E0000C930FCD0DAC0FC42B6823703A46434683
:1057F0000CA93046C84705460098FFF78FFA28469F
:1058000013B0BDE8F083E368002BC3D14FF6FF70FF
:10581000D4F81090FFF772FA8145BBD104F114015E
:10582000AAE72546E8E700BF90910B0038B5436929
:105830001A68002A054610DAB3F88620B3F88430D7
:105840009A420AD103681B699847044628B92B6815
:105850002846DB6A9847204638BD0120FCE710B592
:105860004369B3F88620B3F884309A42044605D0E1
:105870006369B3F884201344187910BD03681B6969
:1058800098470028F4D14FF0FF30F6E7F8B54369A8
:105890001746B3F88620B3F884309A4205460E4680
:1058A00016D06969B1F88430B1F88640E41ABC4278
:1058B00028BF3C46043322461944304601F059FAC9
:1058C0006A69B2F884302344A2F884302046F8BDD7
:1058D00003681B6998470028E3D14FF0FF34F5E7D0
:1058E00042690023A2F884304269A2F886307047EA
:1058F0002DE9F0411F4603680C46DB6A8AB0054675
:1059000016469847237DD5F81480042B0CBF02203F
:105910000A2006220121FFF739FAC8F800006B6956
:105920001B68002B08DA2B682846DB6A002498479E
:1059300020460AB0BDE8F0812846FFF7D1FFB7B195
:10594000002303A9F8B20393ADF81030FFF7C6F9AE
:105950000028E8D1686906230093006803AB41F290
:105960000B0240F6FF71FFF7E9F90028DBD11C229A
:10597000002103A801F025FA237D042B1DD14FF44B
:1059800007733046ADF80C30FFF7C0F9ADF80E00E4
:105990006068FFF7B3F904906B691C22186803A9CB
:1059A000FFF7DCF90028BED104340FCC6D698C35CB
:1059B0000FC523682B700124BAE740F61C2330463C
:1059C000ADF80C30FFF7A2F905AEADF80E00231DBF
:1059D00004F1140718685968324603C20833BB4201
:1059E0001646F7D1D8E7000030B54269B2F88630E4
:1059F0008BB004462BB1B2F884209A4201D1FFF754
:105A00006FFF61690868002818DBB1F886507F2DA8
:105A100014D804310823C5F180022944FFF7A6F900
:105A2000002813DD6369B3F886200AB9A3F884203F
:105A30006369B3F886201044A3F886006369B3F85D
:105A40008600B3F88430C01A0BB030BDFFF7EAFA15
:105A500003680B2BF2D0FFF7E5FA03680B2BEDD0B0
:105A600020230025CDE90235FFF7DCFA0368019316
:105A7000084B0949009302AA2B463220FFF71EFA71
:105A800063691868FFF762F963694FF0FF321A60C3
:105A9000D4E700BFE3910B00DC910B0010B5436924
:105AA00004461868002801DBFFF750F963694FF0DE
:105AB000FF321A606069112200218C3001F081F9F7
:105AC0002046BDE81040FFF70BBF10B50023044689
:105AD0000160C0F884308830FFF78AFB204610BD93
:105AE00073B500234FF47A72C0E901320E4A0361A4
:105AF000026043610446AC200191FEF7CCFA051E1A
:105B000005F10C0608D00123C5E90133074B0199C3
:105B10002B603046FFF7D9FF2046C4E90565FFF743
:105B2000DFFE02B070BD00BF18920B00FC910B00AD
:105B300010B54FF0FF310446FFF7D2FF204610BDED
:105B400010B504460068002801DBFFF7FFF8204687
:105B500010BD0C30FFF7F4BF024B1A68024B1A60FD
:105B6000704700BF58E30320F0E6032070474174FC
:105B7000704708B5007CFFF751F920EAE07008BDD6
:105B800008B5007CFFF722F920EAE07008BD08B5EF
:105B9000007CFFF72BF940EAE07008BD08B5007CF7
:105BA000FFF71CF940EAE07008BD007CFFF726B95A
:105BB00037B5457C04462DB1207C03B0BDE83040AC
:105BC000FFF7FCB8007C0191FFF728F90028019944
:105BD000F2DC284603B030BD10B514210446FEF7B0
:105BE0005EFA204610BD000010B54FF47A730446EB
:105BF000084611460022C4E90123044B2360012317
:105C000020746374FFF712F9204610BD80920B00D8
:105C1000417470477047704708B50021007CFFF75A
:105C20002DF940EAE07008BD08B50121007CFFF7BE
:105C300025F940EAE07008BD08B5007CFFF716F9C9
:105C400020EAE07008BD08B5007CFFF707F920EAFC
:105C5000E07008BD13B50446007C0191FFF706F91A
:105C60000028019901DC607C20B1207CFFF70EF94F
:105C700020EAE07002B010BD007CFFF70FB910B54C
:105C800014210446FEF70BFA204610BD10B54FF460
:105C90007A73044608460021C4E90113044B2360CB
:105CA0000123207463741146FFF7C8F8204610BD25
:105CB000B0920B00007C0022FFF7C8B810B5142288
:105CC0000446002101F07DF8204610BD10B50F4CB0
:105CD00088B003A8FFF7F2FF2178BFF35B8F11F0C4
:105CE00001010FD120460191FEF7E6F9019948B173
:105CF00003AA0748FFF7CAFF2046FEF7E2F9054866
:105D000001F01AF8024808B010BD00BFF4E6032005
:105D1000F8E60320155C0B00002240681146FFF7EF
:105D200019B9002240681146FFF734B900224068D3
:105D30001146FFF73FB940680022FFF733B94068CA
:105D4000002281F00101FFF71DB9002340681A46C7
:105D50001946FFF70FB9002340681A461946FFF7A6
:105D600001B9002240681146FFF7E4B840680022FC
:105D70000221FFF7E7B8002340681A46FFF7D2B8C0
:105D8000024B04225A60024A1A6070470CE7032053
:105D9000E0920B002DE9F041931E8CB0222B4FF0C6
:105DA00000030D4614468DF82C3027D900282ADA36
:105DB0002E462D2306F8013B40420A240DF12B0705
:105DC0004FF001082246014601A800F0BEFF029BE9
:105DD0000198092BCCBF3722302252FA83F307F8FF
:105DE000013908F101080028ECD14246791C3046FF
:105DF00000F0BFFF28460CB0BDE8F0810A2AD5D0DC
:105E000018B12E46DAE70A24FAE730238DF82B3052
:105E10002E460DF12A074FF00208E6E7014B186005
:105E2000704700BF5CE3032008B50B4B43B1FFF79D
:105E30004DFF03681B699847002801DDAFF3008020
:105E4000064B43B100F084F903681B6998470028AA
:105E500001DDAFF3008008BD00000000000000007D
:105E600008B5FFF7E1FFFEF7B9FE014B186008BD6A
:105E700028E703200548064A064908B5121A00F02B
:105E800078FF054B054A1A6008BD00BF00F40320E7
:105E900004F40320E0970B0000F403201E1C279A53
:105EA00007B5002300931A466FF07701FFF728F833
:105EB00003B05DF804FB000007B543880A2B08D047
:105EC000502B0BD1094B1B684BB103B05DF804EBB1
:105ED0001847FFF7E5FF03B05DF804FB00230093CC
:105EE0001A466FF07701FFF70BF8F4E718E7032085
:105EF00010B512480021FFF7A5F8114B1A68114B95
:105F00009A42114B0CBF012200221A7001D0FFF7F8
:105F1000B1FFFEF753FE044600F05CFF0B4B13B1DC
:105F20002046AFF3008000210848FEF7F3FFBDE8EC
:105F3000104007480021FEF7D9BF00BF1D5E0B00CF
:105F400000F403201E1C279A14E703200000000021
:105F5000B95E0B00232813B502D9002002B010BD92
:105F6000A0F10B03022B1AD8174C2178BFF35B8FDB
:105F700011F001010BD120460191FEF79DF8019926
:105F800028B11248FFF7DCFA2046FEF79AF80F4BCB
:105F90001878FEF70BFF0028DFD10120DEE701288B
:105FA00009D800F095F80021007CFEF787FE80F00C
:105FB0000100C0B2D2E709380128EED800F0C8F8D5
:105FC000007CFEF723FFF2E71CE7032020E7032015
:105FD000232838B504460D460AD8FF2908D0FFF714
:105FE000B9FF28B129462046BDE83840FEF706BE75
:105FF00038BD38B504460D46FEF708FEFF2810D020
:10600000062804D84D2323FA00F0C30709D42046FC
:10601000FFF7A0FF28B129462046BDE83840FEF72B
:10602000FDBD38BD0D2810B504469CBF0E34A4B28A
:106030002046FFF78FFF50B103212046FEF7D6FD23
:10604000032804D12046BDE81040FEF7F7BD00202C
:1060500010BD38B504460D46FFF77CFFF0B10421B2
:106060002046FEF7C3FD042805D1A9B22046BDE8AD
:106070003840FEF7DBBD02212046FEF7B7FD0228BF
:106080000CD12046FEF7C2FD012801D0042805D11D
:1060900029462046BDE83840FEF7E0BD38BDFEF792
:1060A000D5BD704738B520251423044603608560AC
:1060B00005610649284600F06FF8044960602846EB
:1060C00000F06AF8E060204638BD00BF14930B0072
:1060D00030B50E4D2978BFF35B8F11F0010487B006
:1060E00011D12846FDF7E8FF68B101A8FFF7DAFFF4
:1060F00001AA21460648FFF72FF82846FDF7E1FFE1
:10610000044800F019FE024807B030BD2CE7032018
:1061100030E70320A3600B007047000038B5044649
:1061200014252A46002100F04CFE25804025074911
:1061300025812846258200F02FF804496060284612
:1061400000F02AF8E060204638BD00BF14930B0031
:1061500030B50E4D2978BFF35B8F11F0010487B085
:1061600011D12846FDF7A8FF68B101A8FFF7D6FFB7
:1061700001AA21460648FFF737FD2846FDF7A1FF93
:10618000044800F0D9FD024807B030BD44E70320C1
:1061900048E7032019610B00FDF77FBF014900F0BC
:1061A000F9B800BF30930B007FB500241023CDE970
:1061B0000234036815469E6912686B46CDE90044B7
:1061C000B0479DF8043003F00603062B03BF009B85
:1061D0002B600120204604B070BD0098904214BF8F
:1061E000012006207047000010B5034B03600446F1
:1061F00000F0CDF8204610BD70930B0010B504469A
:10620000FFF7F2FF20460821FDF749FF204610BDA9
:106210002DE9F0411F46DDE90834DDF81880984586
:106220000646154607D1079900F0B4F818B1657114
:106230000020BDE8F0813946304600F0ABF8002878
:10624000F6D00123C4F800802571A371F0E738B5BA
:1062500015461C4600F09EF820B10823E360062393
:106260002560237138BD73B505460C4601921E4664
:1062700000F090F850B9032E08D82368019A5B69A2
:106280002946204602B0BDE87040184702B070BDF4
:1062900010B5034B03600446FFF7A6FF204610BD70
:1062A000D0930B0010B50446FFF7F2FF20460C21F7
:1062B000FDF7F5FE204610BDF7B5089F974205464D
:1062C0000E4614460AD0A86802680897156A314637
:1062D0002246AC4603B0BDE8F04060471946019342
:1062E00000F058F8019B0028EDD0062003B0F0BD67
:1062F0002DE9F14F0D461946DDE90A4BDDE90CA603
:1063000081461746984600F045F890B1002D34605C
:10631000377109DB61198A450CBF06210121B17172
:10632000002001B0BDE8F08F0235F9D10123B3712F
:10633000F6E7544506D15946484600F02BF808B117
:106340007771EDE7D9F808000368CDE90CA6CDE92F
:106350000A4BDC693A4643462946A44601B0BDE8EB
:10636000F04F60472DE9F04107460C4615461E46A2
:10637000FFF76DFF48B9B86803689F692A4633463E
:106380002146BC46BDE8F0416047BDE8F08170475A
:1063900000207047814208B50ED0406803782A2B50
:1063A0000CD049680B782A2B08BF013100F040FD62
:1063B000B0FA80F0400908BD0120FCE70020FAE7B0
:1063C00081F0004102E000BF83F0004330B54FEAA6
:1063D00041044FEA430594EA050F08BF90EA020F13
:1063E0001FBF54EA000C55EA020C7FEA645C7FEAA6
:1063F000655C00F0E2804FEA5454D4EB5555B8BFC9
:106400006D420CDD2C4480EA020281EA030382EA39
:10641000000083EA010180EA020281EA0303362DCB
:1064200088BF30BD11F0004F4FEA01314FF4801C9E
:106430004CEA113102D0404261EB410113F0004FB0
:106440004FEA03334CEA133302D0524263EB430367
:1064500094EA050F00F0A780A4F10104D5F1200E05
:106460000DDB02FA0EFC22FA05F2801841F1000160
:1064700003FA0EF2801843FA05F359410EE0A5F134
:1064800020050EF1200E012A03FA0EFC28BF4CF065
:10649000020C43FA05F3C01851EBE37101F000451B
:1064A00007D54FF0000EDCF1000C7EEB00006EEB28
:1064B0000101B1F5801F1BD3B1F5001F0CD34908B2
:1064C0005FEA30004FEA3C0C04F101044FEA445209
:1064D00012F5800F80F09A80BCF1004F08BF5FEA90
:1064E000500C50F1000041EB045141EA050130BD70
:1064F0005FEA4C0C404141EB0101013C28BFB1F582
:10650000801FE9D291F0000F04BF01460020B1FACC
:1065100081F308BF2033A3F10B03B3F120020CDA9F
:106520000C3208DD02F1140CC2F10C0201FA0CF07D
:1065300021FA02F10CE002F11402D8BFC2F1200CE2
:1065400001FA02F120FA0CFCDCBF41EA0C01904098
:10655000E41AA2BF01EB0451294330BD6FEA0404E1
:106560001F3C1CDA0C340EDC04F11404C4F12002CC
:1065700020FA04F001FA02F340EA030021FA04F3DE
:1065800045EA030130BDC4F10C04C4F1200220FA35
:1065900002F001FA04F340EA0300294630BD21FA73
:1065A00004F0294630BD94F0000F83F4801306BF39
:1065B00081F480110134013D4EE77FEA645C18BF2D
:1065C0007FEA655C29D094EA050F08BF90EA020FC4
:1065D00005D054EA000C04BF1946104630BD91EABC
:1065E000030F1EBF0021002030BD5FEA545C05D1BF
:1065F0004000494128BF41F0004130BD14F58004FE
:106600003CBF01F5801130BD01F0004545F0FE4171
:1066100041F470014FF0000030BD7FEA645C1ABFA6
:10662000194610467FEA655C1CBF0B46024650EADD
:10663000013406BF52EA033591EA030F41F4002109
:1066400030BD00BF90F0000F04BF0021704730B58F
:106650004FF4806404F132044FF000054FF0000164
:1066600050E700BF90F0000F04BF0021704730B525
:106670004FF4806404F1320410F0004548BF4042FA
:106680004FF000013EE700BF42004FEAE2014FEA4F
:1066900031014FEA02701FBF12F07F4393F07F4F2A
:1066A00081F06051704732F07F4208BF704793F02D
:1066B0007F4F04BF41F40021704730B54FF4607440
:1066C00001F0004521F000411CE700BF50EA010243
:1066D00008BF704730B54FF000050AE050EA0102EC
:1066E00008BF704730B511F0004502D5404261EB5C
:1066F00041014FF4806404F132045FEA915C3FF49D
:10670000D8AE4FF003025FEADC0C18BF03325FEA39
:10671000DC0C18BF033202EBDC02C2F1200300FAEA
:1067200003FC20FA02F001FA03FE40EA0E0021FA0F
:1067300002F11444BDE600BF70B54FF0FF0C4CF4FD
:10674000E06C1CEA11541DBF1CEA135594EA0C0FAF
:1067500095EA0C0F00F0DEF82C4481EA030621EAEA
:106760004C5123EA4C5350EA013518BF52EA033525
:1067700041F4801143F4801338D0A0FB02CE4FF0D7
:106780000005E1FB02E506F00042E0FB03E54FF007
:106790000006E1FB03569CF0000F18BF4EF0010EFF
:1067A000A4F1FF04B6F5007F64F5407404D25FEAFB
:1067B0004E0E6D4146EB060642EAC62141EA5551AE
:1067C0004FEAC52040EA5E504FEACE2EB4F1FD0CF0
:1067D00088BFBCF5E06F1ED8BEF1004F08BF5FEA6E
:1067E000500E50F1000041EB045170BD06F0004620
:1067F00046EA010140EA020081EA0301B4EB5C04CD
:10680000C2BFD4EB0C0541EA045170BD41F48011C4
:106810004FF0000E013C00F3AB8014F1360FDEBFE9
:10682000002001F0004170BDC4F10004203C35DAC5
:106830000C341BDC04F11404C4F1200500FA05F348
:1068400020FA04F001FA05F240EA020001F00042E9
:1068500021F0004110EBD37021FA04F642EB06015F
:106860005EEA430E08BF20EAD37070BDC4F10C0489
:10687000C4F1200500FA04F320FA05F001FA04F24D
:1068800040EA020001F0004110EBD37041F1000139
:106890005EEA430E08BF20EAD37070BDC4F1200544
:1068A00000FA05F24EEA020E20FA04F301FA05F2AC
:1068B00043EA020321FA04F001F0004121FA04F254
:1068C00020EA020000EBD3705EEA430E08BF20EA24
:1068D000D37070BD94F0000F0FD101F0004640005E
:1068E00041EB010111F4801F08BF013CF7D041EAE0
:1068F000060195F0000F18BF704703F000465200E4
:1069000043EB030313F4801F08BF013DF7D043EAB4
:106910000603704794EA0C0F0CEA135518BF95EA6A
:106920000C0F0CD050EA410618BF52EA4306D1D1F1
:1069300081EA030101F000414FF0000070BD50EA10
:10694000410606BF1046194652EA430619D094EA9A
:106950000C0F02D150EA013613D195EA0C0F05D184
:1069600052EA03361CBF104619460AD181EA0301D8
:1069700001F0004141F0FE4141F470014FF0000090
:1069800070BD41F0FE4141F4780170BD70B54FF02B
:10699000FF0C4CF4E06C1CEA11541DBF1CEA1355AB
:1069A00094EA0C0F95EA0C0F00F0A7F8A4EB05048D
:1069B00081EA030E52EA03354FEA013100F0888084
:1069C0004FEA03334FF0805545EA131343EA12634D
:1069D0004FEA022245EA111545EA10654FEA002602
:1069E0000EF000419D4208BF964244F1FD0404F5BB
:1069F000407402D25B084FEA3202B61A65EB030517
:106A00005B084FEA32024FF480104FF4002CB6EBD3
:106A1000020E75EB030E22BFB61A754640EA0C0053
:106A20005B084FEA3202B6EB020E75EB030E22BF93
:106A3000B61A754640EA5C005B084FEA3202B6EBD4
:106A4000020E75EB030E22BFB61A754640EA9C0093
:106A50005B084FEA3202B6EB020E75EB030E22BF63
:106A6000B61A754640EADC0055EA060E18D04FEA21
:106A7000051545EA16754FEA06164FEAC30343EAC1
:106A800052734FEAC2025FEA1C1CC0D111F4801F8E
:106A90000BD141EA00014FF000004FF0004CB6E787
:106AA00011F4801F04BF01430020B4F1FD0C88BF26
:106AB000BCF5E06F3FF6AFAEB5EB030C04BFB6EB31
:106AC000020C5FEA500C50F1000041EB045170BD24
:106AD0000EF0004E4EEA113114EB5C04C2BFD4EB51
:106AE0000C0541EA045170BD41F480114FF0000ED5
:106AF000013C90E645EA060E8DE60CEA135594EA51
:106B00000C0F08BF95EA0C0F3FF43BAF94EA0C0F53
:106B10000AD150EA01347FF434AF95EA0C0F7FF4C8
:106B200025AF104619462CE795EA0C0F06D152EA1C
:106B300003353FF4FDAE1046194622E750EA410600
:106B400018BF52EA43067FF4C5AE50EA41047FF411
:106B50000DAF52EA43057FF4EBAE12E74FF0FF3C76
:106B600006E000BF4FF0010C02E000BF4FF0010C47
:106B70004DF804CD4FEA410C7FEA6C5C4FEA430CC0
:106B800018BF7FEA6C5C1BD001B050EA410C0CBF0F
:106B900052EA430C91EA030F02BF90EA020F002071
:106BA000704710F1000F91EA030F58BF994208BFD8
:106BB00090422CBFD8176FEAE37040F00100704795
:106BC0004FEA410C7FEA6C5C02D150EA013C07D1EC
:106BD0004FEA430C7FEA6C5CD6D152EA033CD3D037
:106BE0005DF8040B704700BF8446104662468C4631
:106BF0001946634600E000BF01B5FFF7B7FF002864
:106C000048BF10F1000F01BD4DF808EDFFF7F4FF8C
:106C10000CBF012000205DF808FB00BF4DF808ED17
:106C2000FFF7EAFF34BF012000205DF808FB00BF3A
:106C30004DF808EDFFF7E0FF94BF012000205DF85C
:106C400008FB00BF4DF808EDFFF7CEFF94BF012011
:106C500000205DF808FB00BF4DF808EDFFF7C4FF0A
:106C600034BF012000205DF808FB00BF4FEA41025D
:106C700012F5001215D211D56FF47873B3EB62528E
:106C800012D94FEAC12343F0004343EA505311F0B5
:106C9000004F23FA02F018BF404270474FF0000047
:106CA000704750EA013005D111F0004008BF6FF085
:106CB000004070474FF00000704700BF4A0011D2FB
:106CC00012F5001211D20DD56FF47873B3EB625246
:106CD0000ED44FEAC12343F0004343EA505323FA52
:106CE00002F070474FF00000704750EA013002D1C7
:106CF0004FF0FF3070474FF000007047D0B50C4B9D
:106D0000002206460F46FFF717FDFFF7D7FF0446A0
:106D1000FFF798FC074B0022FFF70EFD02460B46DB
:106D200030463946FFF750FBFFF7C8FF2146D0BD7C
:106D30000000F03D0000F041002301461A461846CD
:106D400000F008BF002100F0F9BE002910B591FB4A
:106D5000F2F402FB141306DB002B01DA01349B1A58
:106D6000C0E9004310BD002BC4BF04F1FF349B18E1
:106D7000F6E70A44914200F1FF3300D1704710B5A5
:106D800011F8014B03F8014F9142F9D110BD88422F
:106D900010B501EB020402D98442234607D8431EF2
:106DA000A14208D011F8012B03F8012FF8E70244A3
:106DB00001468A4200D110BD13F8014D02F8014D81
:106DC000F7E702440346934200D1704703F8011BE2
:106DD000F9E7000038B5104B1D68AB6B0446B3B93A
:106DE0001820FEF7FFF80246A86320B90B4B0C48A9
:106DF0004221FEF71FF90B490B4BC0E900130B4B67
:106E000083600B23838100210120C2E90401AB6B65
:106E100000221C615A6138BD5CE3032009940B0019
:106E200020940B000E33CDAB34126DE6ECDE050082
:106E300010F8012B11F8013B012A28BF9A42F7D024
:106E4000D01A7047034611F8012B03F8012B002AD2
:106E5000F9D17047034613F8012B002AFBD1181A09
:106E60000138704770B50F4E04460A448A4201D17A
:106E7000002013E014F8013B985D00F003000128A6
:106E800011F8010B355C05F0030508BF2033012D17
:106E900008BF20301B1A02D10028E7D170BD184668
:106EA000FCE700BFD9940B0010B57AB10346013955
:106EB000841813F8010B11F8012F904201D1A3425D
:106EC00001D1801A10BD0028F3D1FAE71046F9E786
:106ED00010B50139034632B111F8014F03F8014BE7
:106EE000013A002CF7D11A440021934200D110BD81
:106EF00003F8011BF9E770B504460D4645EC104B4D
:106F0000164601F081FD51EC100B7EB1C5F30A531A
:106F1000C3F16B03002B09DD1B0503F17F55002432
:106F200005F5401522462B46FFF706FC70BD000014
:106F30002DE9F04F2DED028B9DB01F4600231893D5
:106F4000A24B13921B680593044618468846FFF728
:106F500081FF4FF0000A05464FF0000BCDF85C8032
:106F6000179B1A782B2A4ED03BD80D2A34D8082AE2
:106F700034D8002A3ED000230A93179E3378302B52
:106F800040F0B080737803F0DF03582B68D10A9B80
:106F9000019318AB029700938D4A19AB17A92046AD
:106FA00000F0A2FE10F00707054605D0062F2CD1F1
:106FB0000136002317960A93139B002B40F090850F
:106FC0000A9BEBB152460BF1004343EC102B1DB072
:106FD000BDEC028BBDE8F08F202ACCD10133179392
:106FE000BEE72D2AC7D101220A925A1C17925B785C
:106FF000002BC2D1139BCDF85C80002B40F06E8536
:1070000052465B46E1E70022EEE7189A3AB1352195
:107010001AA801F004FE1899204601F0C3F9013FB7
:10702000042F06D8DFE807F00A0314170A00DDE989
:107030001AAB2807C0D54BF0004BBDE7DDE91AA31A
:10704000199A23F4801302F2334243EA025BF0E719
:10705000DFF880B1EDE76FF0004B4FF0FF3AE8E763
:10706000179B5A1C17925B78302BF9D0002BA3D0BA
:1070700001234FF000090493179B0893CDF81C904F
:107080004F460A2217980678A6F13003D9B209298B
:107090002AD905992A46FFF707FF98B30020324600
:1070A0003D4605900346652A01D0452A18D11DB9F1
:1070B000049A02439ED00025DDF85C8008F10102AD
:1070C000179298F801202B2A75D02D2A7BD04FF0EB
:1070D000000CA2F13001092940F28280CDF85C80D9
:1070E00000269DE00023C4E7082FD8BF079900F1D0
:1070F0000100DABF02FB0133079302FB09390137B4
:107100001790BFE7179B5A1917925A5D002F37D077
:1071100005903D46A2F13003092B12D90123C2E7A5
:10712000179B5A1C17925A780130302AF8D0A2F1D6
:107130003103082B00F2D984179B05900020089397
:107140000546303A00F1010314D005991944059120
:107150002B4600EB050E0A21734513D12B18082B83
:1071600005F1010505441CDC07990A2303FB0123F3
:1071700007930023179A511C179152781846C9E7B4
:107180003846D2E7082B04DC079E4E4307960133AE
:10719000E2E703F1010CBCF1100FD8BF01FB09F9C4
:1071A000F5E7102DDCBF0A2303FB0929E1E70023E3
:1071B000059301237CE74FF0000C08F102021792BF
:1071C00098F8022085E74FF0010CF6E74C960B008B
:1071D00088940B000000F07F179A511C1791527889
:1071E000302AF9D0A2F1310108293FF679AFA2F196
:1071F000300E179A0692179A511C17915278A2F1E5
:107200003006092E37D9069E891B082944F61F66C9
:1072100002DC7645A8BF7646BCF1000F00D076426E
:10722000002D4DD1049901437FF4C6AE002B7FF4AD
:10723000E1AE692A27D024DC492A24D04E2A7FF4E3
:10724000D9AE9F4917A800F0A7FF00283FF4D2AE9F
:10725000179B1B78282B2DD19A491AAA17A800F042
:10726000AFFF052826D11B9BDDF868A043F0FF4B3C
:107270004BF4E00BA0E60A2101FB0E2EAEF1300E1E
:10728000B9E76E2ADBE7904917A800F085FF0028D0
:107290003FF4B0AE179B8D49013B17A8179300F040
:1072A0007BFF10B9179B01331793DFF830B24FF013
:1072B000000A81E6864801F007FD5BEC10AB7BE637
:1072C000059B0798F31A002F08BF2F46102D069331
:1072D000A846A8BF4FF01008FFF7B4F9092D824661
:1072E0008B4613DD7B4B03EBC80353E91223FFF7F7
:1072F00023FA824648468B46FFF7A4F902460B461E
:1073000050465946FFF762F882468B460F2D38DC0F
:10731000069B002B3FF450AE24DD162B0BDC6D4991
:1073200001EBC301D1E9000152465B46FFF704FAC5
:1073300082468B4640E6069AC5F12503934220DB40
:10734000644CC5F10F0504EBC50152465B46D1E91B
:107350000001FFF7F1F9069B5D1B04EBC504D4E9BE
:107360000023E3E7069B16330BDB059B9E1B594B63
:1073700003EBC606D6E9002350465946FFF706FB45
:10738000D6E7069BA5EB08089844B8F1000F74DD1A
:1073900018F00F030AD04F4901EBC30152465B4678
:1073A000D1E90001FFF7C8F982468B4638F00F0893
:1073B0004FD0B8F59A7F22DD00252E46079505951A
:1073C0002223DFF818B123604FF0000A079B002B3F
:1073D0003FF4F2AD1899204600F0E4FF05992046ED
:1073E00000F0E0FF3146204600F0DCFF0799204620
:1073F00000F0D8FF2946204600F0D4FFDCE5364BEC
:10740000049300234FEA2818504659469946B8F18C
:10741000010F21DC0BB182468B462F4BABF1547B25
:1074200003EBC90952465B46D9E90001FFF784F92D
:107430002A4B0A460B402A498B428246BCD8A1F50A
:1074400080118B4286BFDFF89CB04FF0FF3A02F10B
:10745000547B0023049384E018F0010F05D0049BB3
:10746000D3E90023FFF768F90123049A083209F1F0
:1074700001094FEA68080492C9E7EAD0C8F1000898
:1074800018F00F020AD0134B03EBC20350465946C3
:10749000D3E90023FFF77AFA82468B465FEA281881
:1074A000D7D0B8F11F0F1FDD00252E460795059593
:1074B00022234FF0000A4FF0000B236086E700BF45
:1074C00082940B009C940B0079940B007C940B002D
:1074D000CD8D0B00E8960B00C0960B000000F07FEE
:1074E0000000A07CFFFFEF7F18F0100318BF6A2395
:1074F000DFF8AC93049350465946002318F0010F6F
:1075000004D0D9E90023FFF717F901235FEA6808DF
:1075100009F10809F2D10BB182468B46049BC3B135
:10752000CBF30A52C2F16B03002B594611DD1F2B1E
:1075300040F32481342BDEBFC2F14B024FF0FF3306
:1075400003FA02F24FF0000ACCBF4FF05C7B02EA74
:10755000010B0022002350465946FFF755FB002837
:10756000A2D1079B009308992B463A46204600F08B
:1075700081FF079000283FF41FAF059B9E1B069BD1
:10758000002BB4BF334600230C93069B002523EA4F
:10759000E37312932E46079B2046596800F0C2FE03
:1075A000059000283FF40CAF079B1A69023203F1E3
:1075B0000C0192000C30FFF7DCFB4BEC10AB1AAA6D
:1075C00019A9204601F09CFA4BEC18AB1890002842
:1075D0003FF4F6AE0121204600F0E6FF0646002803
:1075E0003FF4EEAE199B0499002BABBF0C9A129A94
:1075F000129FDDF83090ACBF03EB0209D71A1A9A3C
:10760000A3EB01089044A14B08F1FF389845C2F163
:10761000360280F2C780A3EB08031F2BA2EB030204
:107620004FF0010100F3B18001FA03F30D93002341
:10763000089309EB0208049BC14517441F444B46BD
:10764000A8BF4346BB42A8BF3B46002BC2BFA8EB26
:107650000308FF1AA9EB03090C9B002B17DD314629
:107660001A46204601F060F8064600283FF4A8AE0E
:107670000146189A204600F0ADFF0B9000283FF419
:107680009FAE1899204600F08DFE0B9B1893B8F121
:10769000000F00F38C80069B002B08DD129A0599E1
:1076A000204601F041F8059000283FF489AE002FF4
:1076B00008DD05993A46204601F090F8059000282B
:1076C0003FF47EAEB9F1000F08DD31464A46204650
:1076D00001F084F8064600283FF472AE059A189926
:1076E000204601F007F9054600283FF469AEC3685B
:1076F0000B930023C360314601F0E0F8002860DA04
:107700000B9B53EA0A0340F08280CBF31303002B58
:107710007DD12BF000431B0D1B05B3F1D66F76D93D
:107720006B6913B92B69012B71DD294601222046B3
:1077300001F054F83146054601F0C0F8002866DD36
:107740000499534A5B46002900F0818002EA0B014C
:10775000B1F1D66F7BDCB1F15C7F7FF7A9AE4D4B09
:10776000504659460022FEF7E7FF0B46034308BF89
:10777000222382468B4608BF23602BE64FF0FF3260
:1077800002FA03F303EA0A0AE3E6C8F17F4808F5C0
:107790007F0808F57B4808F1E20801FA08F308932E
:1077A0000D9146E70023089301230D9341E71899B3
:1077B0004246204601F012F8189000287FF46BAF83
:1077C000FEE55F466ED10B9ACBF3130342B3324A08
:1077D000934228D1049B5146EBB12D4B3B40B3F172
:1077E000D46F4FF0FF3219D81B0DC3F16B0302FAAF
:1077F00003F3994217D1294B9F4202D101313FF443
:10780000DFAD234B3B4003F5801B4FF0000A049B88
:10781000002BA4D1DEE54FF0FF33EAE71346E8E79B
:1078200053EA0A038CD0089BDBB13B42EFD00B9BA1
:10783000049A50465946C3B1FFF75DFB02460B461A
:1078400051EC180BFEF7C2FD82468B46DFE7134072
:10785000A3F580136FEA135B6FEA0B5B4FF0FF3AFF
:10786000D5E70D9B13EA0A0FE0E7FFF744FB02465A
:107870000B4651EC180BFEF7A7FD002200238246B1
:107880008B46FFF7C1F90028C1D011E602FCFFFFCB
:107890000000F07F00005039FFFF0F00FFFFEF7F77
:1078A000B0940B003146284601F086F959EC108B54
:1078B00010EE100A00224FF080434946FFF7B8F956
:1078C00000287AD00B9B002B4AD0954B0022CDE9A3
:1078D0000823DFF84C924FF00008924B3B400D9389
:1078E0000D9A914B9A4240F0B080DDE90801A7F172
:1078F000547B4BEC10ABCDE9080101F085F8DDE9D4
:10790000080153EC102BFEF717FF52465B46FEF7BB
:107910005DFD0B468349854A19409142824660D9F4
:1079200018EE903A02F15472934204D118EE103AD4
:1079300001333FF445ADDFF800B24FF0FF3A18993C
:10794000204600F02FFD0599204600F02BFD314622
:10795000204600F027FD2946204600F023FD1AE6C8
:10796000BAF1000F1BD1CBF31303F3B96C4B002218
:1079700040464946FFF752F9D0B9404649466C4B5C
:107980000022FEF7D9FE8046894609F10043CDF872
:1079900050801593DDE91423CDE908239DE7BAF162
:1079A000010F02D1002F3FF483AD624B00228EE71E
:1079B000DFF87C914FF00008E7E75D4B4046494611
:1079C0000022FEF7B9FE0B9B8046894633B901F1D0
:1079D00000430E900F93DDE90E23DDE7CDE90E891C
:1079E000F9E703F1547B049B002BA8D12BF0004353
:1079F0000D9A1B0D1B059A42A1D14046494601F044
:107A000079F9FEF76BFE02460B4640464946FEF703
:107A1000DBFC0B9ACBF3130343EA0A0313438046C0
:107A2000894655D036A3D3E90023FFF7F7F800289D
:107A30007FF4D0AC34A3D3E9002340464946FFF796
:107A40000BF900283FF47BAFC4E4049B33B30D9BD8
:107A5000B3F1D46F22D82EA3D3E900234046494680
:107A6000FFF7E6F8A0B149464046FFF727F901289D
:107A700038BF0120FEF7E6FD0B9B8046894623BBFD
:107A800001F1004310901193DDE91023CDE90823A3
:107A9000099B0D9A03F1D6639B1A0993DDE908014E
:107AA000B0EE480AF0EE680ACDE9080100F0ACFF3C
:107AB000DDE9080153EC102BFEF73EFE53EC182BCA
:107AC000FEF784FC82468B468DE7CDE91089DBE723
:107AD00011A3D3E90023FFF7A1F8B2E700230A932B
:107AE000139A179B1360FFF76BBA652A3FF45FABDD
:107AF000452A3FF45CAB0123FFF794BBAFF3008052
:107B00009535A094FFFFDF3F35E5AF350000E03F3E
:107B10000000C0FFFFFFDF419535A094FFFFCF3F7E
:107B20000000F03F0000F07F0000E07FFFFF9F7C3F
:107B30000000E03F0000F0BFFFFFEF7F0A46014674
:107B40000248034B0068FFF7F3B900BF5CE3032072
:107B5000C8E303202DE9F843DFF8B8800646D8F8DB
:107B600000001F460D46914600F0C6FB254B1C68E1
:107B700034B9254C1C60254B13B11B68C4F8883000
:107B800063681F2B07DDD8F8000000F0B7FB4FF04B
:107B9000FF30BDE8F8834EB3D4F8880088B91C4B99
:107BA00023B9D8F8000000F0A8FBF0E74FF4847088
:107BB000FDF718FA0028F4D00023C0E94033C4F8D8
:107BC0008800636840F8239001229A4000EB83010B
:107BD000D0F800311343C0F80031022EC1F8807094
:107BE00002BFD0F804311343C0F804316368D8F8F9
:107BF00000005A1C0233626044F8235000F07EFB00
:107C00000020C6E7E8E703205CE70320000000004F
:107C1000E54F0B00C0E303200369B3EB611F2DE9BF
:107C2000F0434FEA611200F1140445DD11F01F0129
:107C300004EB830604EB82050CD100F11007294602
:107C4000B14234D39B1A9B00EA1E964238BF0023F0
:107C5000234415E054F82270C1F12008CF4005F10B
:107C6000040EA1467645F44615D89A1A9200043AB5
:107C70000135AE4238BF0022A318A75007B1043324
:107C80001A1BA3424FEAA20208BF0023026108BFE9
:107C90004361BDE8F083DCF800C00CFA08FC4CEA54
:107CA000070749F8047B5EF8047BCF40DAE751F818
:107CB00004CB47F804CFC3E72346E1E7A0F1300344
:107CC000092B02D82038C0B27047A0F16103052B00
:107CD00001D84738F7E7A0F14103052B01D8273831
:107CE000F1E70020704700002DE9F04F2DED028BE9
:107CF00089B008EE100A0493B44B1B680193184630
:107D00008B469046FFF7A6F8019BDBF80020034462
:107D1000824613F8013C0593931CC2F1FF2202F541
:107D20007F02FE32D1181F4613F8010B0091302854
:107D3000F8D0FFF7C3FF044600283AD10199524614
:107D40003846FFF7B1F80546002868D117F80A0051
:107D500007EB0A06FFF7B2FF002862D03346187817
:107D600030281F4603F10103F9D0FFF7A7FF0123D5
:107D7000B0FA80F46409354600933A46164601325B
:107D80003078FFF79BFF0028F8D101995246304622
:107D9000FFF78AF880B94DB906EB0A052A46164660
:107DA00001323078FFF78AFF0028F8D1AD1BAD0013
:107DB00004E000242546E0E7002DF7D1337803F0F6
:107DC000DF03502B3BD173782B2B2CD02D2B2ED0B7
:107DD000711C4FF000090878FFF770FF431EDBB2FB
:107DE000182B2CD8A0F1100211F8010FFFF766FF35
:107DF000431EDBB2182B1DD9B9F1000F00D052423F
:107E00001544CBF80010E4B1009B002B14BF0027F1
:107E10000627384609B0BDEC028BBDE8F08F3E4620
:107E200025460124CAE74FF00009B11CD3E74FF003
:107E30000109FAE70A2303FB0202103AD4E73146AC
:107E4000DFE7F31B013B2146072B0BDC18EE100A82
:107E500000F068FA044640B95D4B0246DE215D48F9
:107E6000FDF7E8F801315B10EEE700F114094FF07F
:107E7000000BCAF10103CDF80890CDF800B00693CD
:107E8000B74240D30298009B40F8043BA0EB0900A6
:107E9000801046012061184600F036FB301AD8F8F1
:107EA0000060B04263DD871B3946204600F0DAFEF1
:107EB0008246A8B17B1E591103F01F0259F8211008
:107EC0004FF0010A0AFA02F20A4209D0534505DDD1
:107ED000B91E204600F0C6FE002845D14FF0020A28
:107EE00039462046FFF798FE3D44D8F80830AB42AB
:107EF0004CDA18EE100A214600F054FA149A0023C6
:107F00001360A32785E7731E059A039316F8013CB7
:107F1000934219D0BBF1200F07D1029B009A43F87E
:107F2000042B0293002300939B4616F8010CFFF7E5
:107F3000C5FE009B00F00F0000FA0BF00343009316
:107F40000BF1040B039B0DE0039B069A1344BB4209
:107F5000E0D31846019907935246FEF7A5FF079B09
:107F60000028D7D11E468BE74FF0030AB8E70ADA9C
:107F7000371A214618EE100A3A4600F02FFCED1B86
:107F8000044600F114094FF0000AAEE7D8F80400E7
:107F9000A84272DD451BAE4236DCD8F80C30022B0D
:107FA0002AD0032B2CD0012B1CD1AE421AD1012E8A
:107FB00012D1049AD8F80430136001232361C9F860
:107FC0000030149B62271C6023E700BF4C960B0017
:107FD000D9950B00EA950B00711E204600F042FE79
:107FE0000028E6D118EE100A214600F0DBF9149AB9
:107FF0000023136050270CE7159B002BF2D1D8E724
:10800000159B002BD5D1EDE76F1EBAF1000F31D1D2
:1080100027B13946204600F025FE82467B1101211A
:1080200059F8233007F01F0701FA07F71F422946C6
:10803000204618BF4AF0020A761BFFF7EDFDD8F87C
:1080400004500227BAF1000F48D0D8F80C30022BA8
:1080500015D0032B17D0012B09D11AF0020F06D02F
:10806000D9F800004AEA000A1AF0010F0ED147F0D1
:10807000100733E04FF0010AD0E70127E2E7159B34
:10808000C3F101031593159B002BF0D0D4F810B069
:1080900004F114034FEA8B0A03EB8B014FF0000C41
:1080A000184653F8042BB2F1FF3F1CD00132026096
:1080B000022F04F114033FD1D8F80020013AB24254
:1080C0000AD17111012253F8213006F01F0602FA7D
:1080D00006F61E4218BF174647F02007149B1C6087
:1080E000049B1D6095E6994243F804CCD8D8A36858
:1080F0009B4519DB616818EE100A013100F012F996
:10810000814618B91A4B02468421A8E62269023238
:1081100004F10C0192000C30FEF72BFE214618EE04
:10812000100A00F03FF94C4623695A1C04EB830304
:10813000226101225A61BBE722695A450BDD012108
:108140002046FFF769FDD8F808300135AB42FFF64D
:10815000D0AE0127C0E716F01F06FAD05344C6F18F
:10816000200653F8040C00F0CFF9B042E7DBF0E74B
:10817000D9950B00C2F10802920070B5C2F1200639
:108180004368046803FA06F52C43D340046040F8C2
:10819000043F8842F4D370BD30B50368013311F851
:1081A000014B14B90360012030BD13F8012BA2F17B
:1081B0004105192D98BF2032A242F0D00020F3E7EC
:1081C0002DE9F04F0B685E1102EB860613F01F03DA
:1081D00087B018BF04360025371F90460268019308
:1081E000824646F8045CB9463C460295AB46517857
:1081F000531C039341B3084605920491FFF75EFDBB
:1082000000284FD10499059A202918D8029B9B4534
:1082100013DD4C4506D2072D04DC2A46494620468C
:10822000FFF7A8FF444550D90023A4F1040944F8FE
:10823000043CCDF808B04C461D46039AD7E72929DF
:1082400056D10232CAF80020BBF1000F50D04C4585
:1082500006D2072D04DC2A4649462046FFF78AFF4E
:10826000444534D9A8F10402234653F8041B42F8CC
:10827000041F9F42F9D23B1B23F003030433013454
:10828000033EB44288BF04234344002243F8042B36
:108290009F42FBD23B681BB9474527D101233B6076
:1082A000052026E00135082D0BF1010B06DD4445C4
:1082B000C3D9002344F8043C0125043C226800F0A3
:1082C0000F0040EA02122260B7E70825B5E7019BDC
:1082D000002BDFD04FF0FF32C3F1200322FA03F36B
:1082E00056F8042C1A4046F8042CD3E7043FD1E793
:1082F000042007B0BDE8F08F70477047704782B028
:1083000001B901A942B14BB113780B601278101E6C
:1083100018BF012002B070471046FBE76FF0010064
:10832000F8E7000070B5466A04460D4676B910209D
:10833000FCF758FE0246606220B9184B18486621C7
:10834000FCF778FEC0E901660660C660666AF368FD
:1083500083B1636ADB6853F82500B8B9012101FADB
:1083600005F6721D9200204600F09DFC60B1C0E948
:1083700001560EE021220421204600F094FC636A9D
:10838000F060DB68002BE4D1002070BD026843F888
:1083900025200023C0E90333F7E700BF09940B0051
:1083A00060960B0070B5466A05460C4676B91020FB
:1083B000FCF718FE0246686220B9094B09488A2179
:1083C000FCF738FEC0E901660660C6603CB16B6A26
:1083D0006268DB6853F82210216043F8224070BDC8
:1083E00009940B0060960B002DE9F0410D690746DA
:1083F0000C461E4601F1140C0020DCF8003099B246
:1084000002FB01611E0C0B0C02FB063389B201302A
:1084100001EB034185424CF8041B4FEA1346ECDCA8
:108420000EB3A368AB4219DC616838460131FFF72F
:1084300079FF804628B902460C4B0D48B521FCF760
:10844000F9FD2269023204F10C0192000C30FEF7B2
:1084500090FC21463846FFF7A5FF444604EB850310
:1084600001355E6125612046BDE8F081D9950B009C
:1084700060960B002DE9F8430C4615461F4609226D
:108480000833064693FBF2F3002101229A4209DBEE
:108490003046FFF747FF40B90246194B1948CE2135
:1084A000FCF7C8FD52000131F0E7089B4361092D3C
:1084B0004FF00103036116DD04F10909C8462C449D
:1084C00018F8013B0146303B0A223046FFF78CFF8B
:1084D000A045F5D1A5F108044C442D1B6319BB42FE
:1084E00004DBBDE8F8830A340925F6E714F8013BFC
:1084F0000146303B0A223046FFF776FFEEE700BF29
:10850000D9950B0060960B00030C1B04D3B9000433
:10851000102310F07F4F04BF0002083310F0704F9B
:1085200004BF0001043310F0404F04BF8000023349
:10853000002805DB10F0804F03F1010308BF202362
:10854000184670470023E4E7036813F0070201466A
:108550000BD0DA0723D4980749BF5B089B0801209A
:108560000B605CBF0B600220704798B2A8B91B0C6F
:108570001020DAB20AB908301B0A1A0704BF1B0917
:1085800004309A0704BF9B080230DA0703D45B0863
:1085900000F1010005D00B6070471046E9E70020AC
:1085A000704720207047000010B50C460121FFF7EE
:1085B000B9FE024628B9054B05484FF4A071FCF7F7
:1085C00039FD01234461036110BD00BFD9950B0043
:1085D00060960B002DE9F04F91460A69D9F81030EA
:1085E0009A42B8BF0B460C46BCBF4C469946276919
:1085F000D9F810A0A368616807EB0A06B34285B0FA
:10860000B8BF0131FFF78EFE30B90246444B4548F2
:1086100040F25D11FCF70EFD00F1140505EB860834
:108620002B460022434521D304F1140303EB8707B3
:1086300009F1140303EB8A0202923A1B153A22F065
:108640000302043204F115018F4238BF0422019263
:10865000029A03939A420CD8002E03DD58F8043D89
:10866000002B5AD0066105B0BDE8F08F43F8042B0B
:10867000D8E7B3F800A0BAF1000F24D004F1140E2B
:10868000A9464FF0000C5EF8042BD9F800101FFA31
:1086900082FB89B20AFB0B114FEA124BD9F800207A
:1086A00061444FEA124C0AFB0BC202EB114289B241
:1086B00041EA0241774549F8041B4FEA124CE2D8DF
:1086C000019A45F802C0039AB2F802900433B9F156
:1086D000000F20D0296804F1140CAE464FF0000AB8
:1086E000BCF800B0BEF8022009FB0B22924489B20C
:1086F00041EA0A414EF8041B5CF8042BBEF8001056
:10870000120C09FB021101EB1A4167454FEA114AAD
:10871000E6D8019AA95004359AE7013E9CE700BFCC
:10872000D9950B0060960B002DE9F843154612F021
:10873000030206460F4607D0254C013A002354F8A1
:108740002220FFF751FE0746AD103DD0746A7CB978
:108750001020FCF747FC0246706228B91D4B1E48EA
:108760004FF4D771FCF766FCC0E901440460C460B3
:10877000D6F82480D8F808404CB940F27121304630
:10878000FFF712FF0023C8F80800044603604FF00B
:108790000009EB070AD5394622463046FFF71AFF93
:1087A000394680463046FFF7FDFD47466D100BD039
:1087B000206838B9224621463046FFF70BFF20607B
:1087C000C0F800900446E4E73846BDE8F88300BFEF
:1087D000B0970B0009940B0060960B002DE9F04751
:1087E0000C464968236903EB6218A3680746914663
:1087F0004FEA621A08F10106B3420BDB3846FFF775
:1088000091FD054648B902462A4B2B4840F2D91142
:10881000FCF710FC01315B00EEE7002300F11401CE
:1088200000F110021846534537DB20692AEAEA7A3C
:1088300004F1140319F01F0901EB8A0103EB800016
:108840002FD0C9F1200E8A464FF0000C1A6802FAA8
:1088500009F242EA0C024AF8042B53F8042B98421E
:1088600022FA0EFCF2D8031B153B23F0030304335A
:1088700004F11502904238BF042341F803C0BCF153
:10888000000F01D008F10206013E38462E61214654
:10889000FFF788FD2846BDE8F08742F8040F013352
:1088A000C1E7043953F8042B41F8042F9842F9D852
:1088B000EAE700BFD9950B0060960B0030B502695E
:1088C0000C69121B0ED100F11403143103EB840068
:1088D00001EB840150F8045D51F8044DA54203D02A
:1088E00005D30122104630BD8342F3D3FAE74FF09F
:1088F000FF32F7E72DE9F84F0C46064611462046B1
:108900009046FFF7DBFF051E10D129463046FFF7E2
:1089100009FD30B93A4B024640F232213948FCF7A2
:1089200089FB0123C0E90435BDE8F88FA4BF4346A5
:10893000A0463046D8F80410A6BF1C4600250125E5
:10894000FFF7F0FC20B92E4B02464FF41071E5E71B
:10895000D8F810702669C56004F1140908F11405EF
:1089600000F1140E05EB870C09EB860608F11002E6
:10897000F246002159F8043B52F804BF1FFA83F86D
:1089800011FA8BF11B0CA1EB0808C3EB1B4303EBA3
:1089900028431FFA88F819144E4548EA03434AF859
:1089A000043BE7D8331B153B23F003030433153492
:1089B000A64238BF04231D4473449E462E46664596
:1089C0000ED30CF10302521B22F00302033DAC450F
:1089D00038BF00221A4452F8043D7BB10761A3E777
:1089E00056F8048B11FA88F2141404EB184492B26E
:1089F00042EA04424EF8042B2114E0E7013FEAE783
:108A0000D9950B0060960B0082B08DED000B019B99
:108A100012491940A1F15071002905DD00220B46D1
:108A200043EC102B02B070474942B1F1A07F4FEAEE
:108A300021504FF000024FF0000304DA4FF4002100
:108A400041FA00F3ECE7A0F114011E29DABF4FF060
:108A5000004020FA01F101210A46E1E70000F07F21
:108A6000F8B5056900F1140707EB85052E1F55F8C9
:108A7000044C2046FFF748FDC0F120030A28DFF828
:108A80007CC00B6014DCC0F10B0E24FA0EF1B7426F
:108A900041EA0C0334BF55F8081C0021153004FAD4
:108AA00000F021FA0EF140EA010243EC102BF8BD70
:108AB000B7423ABF55F8081CA5F1080600210B384B
:108AC00017D0C0F1200C04FA00F5BE4221FA0CF4D4
:108AD00045EA04058CBF56F8044C002445F07F534A
:108AE00001FA00F024FA0CF443F4401340EA0402C3
:108AF000DBE744EA0C030A46D7E700BF0000F03F7B
:108B00002DE9F7438946012157EC106B9046FFF79A
:108B100009FC044630B90246254B264840F20A318A
:108B2000FCF788FAC7F30A55C7F3130335BB002EC9
:108B3000019328D068460096FFF706FD009900B320
:108B4000019AC0F1200302FA03F30B43C2406361B0
:108B50000192019BA361002B14BF0222012222611A
:108B6000D5B1A5F233450544C9F80050C0F1350030
:108B7000C8F80000204603B0BDE8F08343F480133A
:108B8000D5E76161E5E701A8FFF7DEFC019B6361C2
:108B9000012222612030E3E704EB8203A0F232409D
:108BA000C9F800001869FFF7AFFCC0EB4210DFE71F
:108BB000D9950B0060960B002DE9F74F8846694662
:108BC0008146FFF74DFF01A9404655EC104BFFF7DA
:108BD00047FFD9F81030D8F81020A3EB020CDDE9DC
:108BE00000329B1A03EB4C1351EC100B002BD6BF39
:108BF0000A462A46C3EB03338B462F46D4BF02EB0B
:108C0000035B02EB0357204610EE102A5B46394601
:108C1000FDF7BCFE41EC100B03B0BDE8F08F01394D
:108C200070B549111469013102F1140300EB81019F
:108C300003EB8404051FA3420CD3A31A113B23F0BA
:108C400003031132A24288BF002318440023884244
:108C500005D370BD53F8046B45F8046FEBE740F89B
:108C6000043BF4E700F1140200694B11984210B57F
:108C700011DB0ADD11F01F0107D052F8234024FA5E
:108C800001F000FA01F18C420BD102EB8303934215
:108C900003D8002010BD0346F7E753F8041D002950
:108CA000F5D00120F6E713B54A4311460192FCF7CF
:108CB000B1F9044618B1019A0021FEF782F8204666
:108CC00002B010BD000000009FED010B704700BF17
:108CD000000000000000F87F49B1FF2A85BF8A2309
:108CE00003600A704FF0FF3098BF012070470846BC
:108CF0007047000038B50022002304460D46FDF7FA
:108D00008DFF28B920462946BDE83840FDF7F6BF5B
:108D1000204605F10041FDF7F1FF404261EB4101C2
:108D200038BD00BF21400B005D400B0085400B00AB
:108D300089400B0000000000436F6E6E656374692C
:108D40006E6720746F204D5154542E2E2E20002516
:108D5000730A005265747279696E67204D515454DC
:108D600020636F6E6E656374696F6E20696E203567
:108D7000207365636F6E64732E2E0A004D51545438
:108D800020436F6E6E6563746564210A00507562DE
:108D90006C697368696E672025302E3266200A0080
:108DA00052656365697665642025692066726F6D1A
:108DB0002041646166727569742E696F206665650D
:108DC0006420466565644E616D6542200A00546802
:108DD000652064697374616E636520746F206F62CF
:108DE000737461636C657320696E2066726F6E7454
:108DF0002069733A200020636D00466C616D652028
:108E000044657465637465642100666C616D6520FA
:108E100073656E736F723A2569204449474954411E
:108E20004C3A25690A006D713420416E616C6F67A0
:108E300020526561643A25696D71204469676974DF
:108E4000616C20526561643A25690A0064696F6447
:108E5000652053746174653A256920636F6E766589
:108E60007273696F6E3A25690A00546F6D61736998
:108E70006F00696F2E61646166727569742E636F2D
:108E80006D0061696F5F6C695369373654585934A6
:108E9000613949306A30594851774E667954686C67
:108EA000657100546F6D6173696F2F6665656473DA
:108EB0002F6162715F67707300546F6D6173696FCA
:108EC0002F66656564732F4F4E5F4F4646004472B0
:108ED0006F707065642061207061636B657400550C
:108EE0006E6B6E6F776E206572726F72004D5154AB
:108EF00054004661696C656420746F2073756273F9
:108F0000637269626500436F6E6E656374696F6E4C
:108F1000206661696C6564005468652053657276EB
:108F2000657220646F6573206E6F74207375707046
:108F30006F727420746865206C6576656C206F664E
:108F400020746865204D5154542070726F746F63A3
:108F50006F6C207265717565737465640054686523
:108F600020436C69656E74206964656E7469666916
:108F7000657220697320636F727265637420555443
:108F8000462D3820627574206E6F7420616C6C6F92
:108F90007765642062792074686520536572766510
:108FA0007200546865204D5154542073657276697F
:108FB000636520697320756E617661696C61626CAE
:108FC0006500546865206461746120696E2074686E
:108FD000652075736572206E616D65206F722070FB
:108FE000617373776F7264206973206D616C666F53
:108FF000726D6564004E6F7420617574686F72697C
:109000007A656420746F20636F6E6E6563740045CB
:1090100078636565646564207265636F6E6E656311
:10902000742072617465206C696D69742E20506CB7
:10903000656173652074727920616761696E206C67
:10904000617465722E00596F7520686176652062C3
:1090500065656E2062616E6E65642066726F6D205C
:10906000636F6E6E656374696E672E20506C656108
:10907000736520636F6E7461637420746865204D3E
:10908000515454207365727665722061646D696E07
:109090006973747261746F7220666F72206D6F7283
:1090A000652064657461696C732E00000000000027
:1090B000000000000000000000000000A5400B00C0
:1090C000A5400B00A5400B00A5400B00A5400B00E0
:1090D000F28E0B00068F0B00DF8E0B00188F0B003B
:1090E0005D8F0B00A28F0B00C28F0B00F58F0B0062
:1090F0000F900B0046900B000000000000000000E5
:10910000B34A0B003F4B0B005F4A0B000D4B0B00AB
:109110004D4B0B00734A0B00B54A0B0000000000DA
:10912000000000000000000000000000E3500B0001
:10913000D9500B00CF500B00C5500B00B9500B009D
:10914000AD500B00E9520B00F1520B00A1500B0087
:1091500099500B008F500B0085500B0021530B00D2
:10916000000000000000000001510B004B510B00FB
:1091700023510B0003510B002B510B0033510B00FB
:109180003B510B0043510B000000000000000000A9
:109190008D510B007D510B007F510B0061707000F1
:1091A0000000000000000000A9520B00B3520B00A9
:1091B000BD520B00C7520B00D1520B00DD520B0009
:1091C000E9520B00F1520B00F9520B0005530B0052
:1091D0000D530B0017530B0021530B007769726975
:1091E0006E670072656376206572726F72203D2033
:1091F000256400000000000000000000FD550B0089
:1092000021560B00535B0B002F560B0001560B0031
:109210000000000000000000AD560B00E1560B00FE
:1092200079550B0093550B00E9590B00BD550B0008
:109230005F580B00F1550B00F1580B0031570B0034
:109240008D580B009D5A0B002D580B00F3550B0049
:10925000A5550B0035560B0011570B0025592D2530
:109260006D2D25645425483A254D3A2553257A001D
:1092700061736374696D6500000000000000000008
:109280006D5B0B00D95B0B00B15B0B000D540B0049
:10929000815B0B009D5B0B008F5B0B00AB5B0B00DE
:1092A0006F5B0B00735B0B00000000000000000010
:1092B000175C0B007F5C0B00555C0B000D540B0022
:1092C000475C0B00195C0B00295C0B00795C0B0000
:1092D000395C0B00115C0B00000000000000000076
:1092E000775D0B006D5D0B00635D0B00195D0B007E
:1092F000575D0B004B5D0B00E9520B00F1520B0068
:109300003F5D0B00375D0B002D5D0B00235D0B00F7
:1093100021530B0000537431395F53705F6D616BE3
:10932000655F7368617265645F7461670000000067
:1093300070930B0015930B00D0930B0044930B001C
:10934000F4930B004E31305F5F6378786162697629
:109350003131375F5F636C6173735F747970655F20
:10936000696E666F450000000000000038930B0036
:10937000E9610B00FD610B0091630B0091630B0031
:1093800067620B00A9610B004F620B0011620B00BA
:10939000DB610B00D0930B00A0930B0038930B0004
:1093A0004E31305F5F637878616269763132305F69
:1093B0005F73695F636C6173735F747970655F6914
:1093C0006E666F45000000000000000094930B00E3
:1093D00091620B00A5620B0091630B0091630B007F
:1093E00067620B00A9610B0065630B00F1620B0063
:1093F000B9620B0070930B00FC930B00537439742B
:109400007970655F696E666F005245454E54206DF8
:10941000616C6C6F6320737563636565646564007C
:109420002F746D702F6A656E6B696E732D474343A1
:109430002D31302D706970656C696E652D34385F23
:1094400032303230313132345F31363036313830CB
:109450003633392F7372632F6E65776C69622F6EA6
:1094600065776C69622F6C6962632F7374646C69D1
:10947000622F72616E642E63006E6600696E69749D
:109480007900616E0000000035000000CEFBFFFF98
:10949000CB030000010000000000000034000000C9
:1094A000CEFBFFFFCB030000010000000000000026
:1094B000BC89D897B2D29C3C33A7A8D523F64939AA
:1094C0003DA7F444FD0FA5329D978CCF08BA5B25CC
:1094D000436FAC6428066811002020202020202043
:1094E0002020282828282820202020202020202054
:1094F0002020202020202020208810101010101064
:1095000010101010101010101004040404040404AF
:109510000404041010101010101041414141414149
:10952000010101010101010101010101010101012B
:10953000010101011010101010104242424242423B
:1095400002020202020202020202020202020202FB
:1095500002020202101010102000000000000000A3
:1095600000000000000000000000000000000000FB
:1095700000000000000000000000000000000000EB
:1095800000000000000000000000000000000000DB
:1095900000000000000000000000000000000000CB
:1095A00000000000000000000000000000000000BB
:1095B00000000000000000000000000000000000AB
:1095C000000000000000000000000000000000009B
:1095D00000000000000000000042616C6C6F63201E
:1095E000737563636565646564002F746D702F6ABD
:1095F000656E6B696E732D4743432D31302D706955
:1096000070656C696E652D34385F323032303131BF
:1096100032345F313630363138303633392F737269
:10962000632F6E65776C69622F6E65776C69622F48
:109630006C6962632F7374646C69622F6764746F02
:10964000612D6765746865782E63000044900B0097
:10965000CD8D0B00C4E303204300504F5349580005
:109660002F746D702F6A656E6B696E732D4743435F
:109670002D31302D706970656C696E652D34385FE1
:1096800032303230313132345F3136303631383089
:109690003633392F7372632F6E65776C69622F6E64
:1096A00065776C69622F6C6962632F7374646C698F
:1096B000622F6D707265632E630000000000000071
:1096C0000080E03779C34143176E05B5B5B89346BE
:1096D000F5F93FE9034F384D321D30F94877825A8A
:1096E0003CBF737FDD4F1575000000000000F03FA8
:1096F000000000000000244000000000000059406D
:109700000000000000408F40000000000088C340BF
:1097100000000000006AF8400000000080842E4134
:1097200000000000D01263410000000084D7974180
:109730000000000065CDCD41000000205FA0024286
:10974000000000E876483742000000A2941A6D42FB
:10975000000040E59C30A2420000901EC4BCD642EE
:1097600000003426F56B0C430080E03779C3414399
:1097700000A0D8855734764300C84E676DC1AB430F
:10978000003D9160E458E143408CB5781DAF15442D
:1097900050EFE2D6E41A4B4492D54D06CFF0804408
:1097A000F64AE1C7022DB544B49DD9794378EA441D
:1097B00005000000190000007D000000E9430B00D7
:1097C00075500B00ED500B0099520B00F9530B0034
:1097D00035550B0055550B00595B0B00815D0B0097
:0497E0000000000085
:1097E4006600000070920B0060E30320000000009C
:1097F4000000000000000000000000000000000065
:109804000000000000000000000000000000000054
:109814000000000000000000000000000000000044
:109824000000000000000000000000000000000034
:109834000000000000000000000000000000000024
:10984400000000000000000000000000ECE703201E
:10985400FF000000430000000000000000000000C2
:1098640000000000000000000000000000000000F4
:1098740000000000430000000000000000000000A1
:1098840000000000000000000000000000000000D4
:109894000000000043000000000000000000000081
:1098A40000000000000000000000000000000000B4
:1098B4000000000043000000000000000000000061
:1098C4000000000000000000000000000000000094
:1098D4000000000043000000000000000000000041
:1098E4000000000000000000000000000000000074
:1098F4000000000043000000000000000000000021
:109904000000000000000000000000000000000053
:109914000000000043000000000000000000000000
:109924000000000000000000000000000000000033
:1099340000000000D98C0B00FF820B000000000027
:10994400D8940B0044900B00CD8D0B00CD8D0B00F3
:10995400CD8D0B00CD8D0B00CD8D0B00CD8D0B006F
:10996400CD8D0B00CD8D0B00CD8D0B00FFFFFFFFC8
:10997400FFFFFFFFFFFFFFFFFFFF00000100415358
:1099840043494900000000000000000000000000FE
:10999400000000000000000000000000000041532F
:1099A40043494900000000000000000000000000DE
:1099B40000000000000000000000000000000000A3
:1099C400FFFFFFFF00000102030405060708090A60
:1099D4000B0C0D0E0F101112131415161718191A5B
:0899E4001B1C1D1E1F202800A2
:0499EC007856341263
:04000003B0004020E9
:00000001FF
